:100000000C945B000C9480010C94AD010C94830063
:100010000C9483000C9483000C9483000C94830054
:100020000C9483000C9483000C9483000C94830044
:100030000C9483000C9483000C9483000C94830034
:100040000C94DA010C9483000C945E030C948300EE
:100050000C9483000C9483000C9483000C94830014
:100060000C9483000C948300000024272A000025B0
:10007000282B000023262904040404040404040299
:100080000202020202030303030303010204081035
:100090002040800102040810200102040810200002
:1000A0000000070002010000030406000000000039
:1000B000000000006A0111241FBECFEFD8E0DEBFB0
:1000C000CDBF11E0A0E0B1E0EEE0F8E002C00590A5
:1000D0000D92AE30B107D9F711E0AEE0B1E001C04A
:1000E0001D92A83CB107E1F710E0C6EBD0E004C0D8
:1000F0002297FE010E940104C43BD107C9F70E9468
:1001000063010C9405040C940000CF93DF9382E309
:1001100091E00E947801843008F48CC082E391E081
:100120000E94750190932501809324018F3F9105D2
:1001300009F068C010920F0110920E0113C082E303
:1001400091E00E947501CC0FDD1FCE5EDE4F9983DA
:10015000888380910E0190910F01019690930F0179
:1001600080930E01C0910E01D0910F01C330D105D3
:1001700034F3209112013091130130931101209337
:100180001001409114015091150150931B014093AF
:100190001A01809116019091170190932F0180937D
:1001A0002E018D3F910529F41092310110923001FA
:1001B00009C08E3F910531F48FEF93E090933101A8
:1001C000809330012130310521F022303105D1F406
:1001D0000DC050931F0140931E01809130019091FA
:1001E000310190932901809328010CC05093230181
:1001F00040932201809130019091310190932D0123
:1002000080932C0180911C0160911E010E94A2022A
:1002100080912001609122010E94A202809126011A
:10022000609128010E94A20280912A0160912C0114
:100230000E94A202DF91CF91089510920F011092B7
:100240000E0111C0EE0FFF1FE050FF4F808161E0F3
:100250000E94840280910E0190910F01019690936B
:100260000F0180930E01E0910E01F0910F01E43037
:10027000F10544F3809100019091010190931D01DB
:1002800080931C01809102019091030190932101C0
:1002900080932001809104019091050190932701A2
:1002A00080932601809106019091070190932B0184
:1002B00080932A0182E391E040E855E260E070E03B
:1002C0000E947B0108950E944A020E941D010E9423
:1002D0008500FDCF8CE091E0909333018093320153
:1002E0000895862F0E94260308950E943F030895D3
:1002F0000E942E030895CB01BA010E94ED020895D9
:100300001F920F920FB60F9211242F933F934F938A
:100310005F936F937F938F939F93AF93BF93EF936D
:10032000FF938091340190913501892B29F0E09160
:100330003401F09135010995FF91EF91BF91AF9193
:100340009F918F917F916F915F914F913F912F91ED
:100350000F900FBE0F901F9018951F920F920FB61F
:100360000F9211242F933F934F935F936F937F933B
:100370008F939F93AF93BF93EF93FF938091360139
:1003800090913701892B29F0E0913601F0913701E6
:100390000995FF91EF91BF91AF919F918F917F91BF
:1003A0006F915F914F913F912F910F900FBE0F90E2
:1003B0001F9018951F920F920FB60F9211242F9332
:1003C0008F939F93AF93BF938091380190913901A0
:1003D000A0913A01B0913B010196A11DB11D8093FE
:1003E000380190933901A0933A01B0933B01809179
:1003F0003C0190913D01A0913E01B0913F018050A0
:10040000904CAF4FBF4F80933C0190933D01A09320
:100410003E01B0933F0127C080913C0190913D0186
:10042000A0913E01B0913F0180589E43A040B04052
:1004300080933C0190933D01A0933E01B0933F0116
:100440008091400190914101A0914201B0914301FE
:100450000196A11DB11D8093400190934101A0938D
:100460004201B093430180913C0190913D01A091E4
:100470003E01B0913F0181589E43A040B04060F6DC
:10048000BF91AF919F918F912F910F900FBE0F90C1
:100490001F901895789484B5826084BD84B581607E
:1004A00084BD85B5826085BD85B5816085BDEEE67C
:1004B000F0E0808181608083E1E8F0E0808182600B
:1004C0008083808181608083E0E8F0E080818160CA
:1004D0008083E1EBF0E0808184608083E0EBF0E0FA
:1004E000808181608083EAE7F0E08081846080839E
:1004F0008081826080838081816080838081806848
:1005000080831092C1000895282F30E0C9018557DB
:100510009F4FFC01949129583F4FF9018491882302
:1005200081F0E82FF0E0E859FF4FE491F0E0662316
:1005300029F4808190958923808308958081892B77
:1005400080830895482F50E0CA0181569F4FFC01D7
:100550002491CA0185579F4FFC01949149585F4FE0
:10056000FA0134913323C1F1222331F1233021F4F4
:10057000809180008F7705C0243031F48091800015
:100580008F7D8093800018C0213019F484B58F7757
:1005900004C0223021F484B58F7D84BD0DC0263087
:1005A00021F48091B0008F7705C0273029F4809125
:1005B000B0008F7D8093B000E32FF0E0E359FF4F50
:1005C000E491F0E0662329F480819095892380836B
:1005D00008958081892B80830895EF92FF920F9375
:1005E0001F937B018C0122E030E040E050E00E944C
:1005F000D003205C3D4B404F5F4FCA01B901A801B9
:1006000097010E94D003C901DA010197A109B1093C
:10061000292F3A2F4B2F552747FD5A950196A11D9B
:10062000B11D2093C50081508093C400E1ECF0E03F
:100630008081806180838081886080838081806800
:1006400080831F910F91FF90EF900895982F8091D4
:10065000C00085FFFCCF9093C600089580914401AF
:100660009091450180589F4F20914601309147015C
:10067000821B930B60E870E00E949B0308954091F9
:1006800046015091470180914401909145018417A2
:10069000950719F42FEF3FEF0FC0FA01E85BFE4F0B
:1006A0002081CA01019660E870E00E949B0390934C
:1006B00047018093460130E0C90108951F920F92CF
:1006C0000FB60F9211242F933F934F935F936F9325
:1006D0007F938F939F93AF93BF93EF93FF9340913B
:1006E000C600E0914401F0914501CF01019660E818
:1006F00070E00E949B039C0180914601909147010C
:100700002817390739F0E85BFE4F408330934501E5
:1007100020934401FF91EF91BF91AF919F918F91F1
:100720007F916F915F914F913F912F910F900FBEED
:100730000F901F90189597FB092E07260AD077FD7A
:1007400004D049D006D000201AF4709561957F4FEF
:100750000895F6F7909581959F4F0895A1E21A2E7E
:10076000AA1BBB1BFD010DC0AA1FBB1FEE1FFF1F55
:10077000A217B307E407F50720F0A21BB30BE40BA5
:10078000F50B661F771F881F991F1A9469F76095EC
:100790007095809590959B01AC01BD01CF010895A6
:1007A00097FB092E05260ED057FD04D0D7DF0AD0BF
:1007B000001C38F450954095309521953F4F4F4F90
:1007C0005F4F0895F6F790958095709561957F4FEE
:1007D0008F4F9F4F0895AA1BBB1B51E107C0AA1F53
:1007E000BB1FA617B70710F0A61BB70B881F991FD2
:1007F0005A95A9F780959095BC01CD010895EE0F0B
:0E080000FF1F0590F491E02D0994F894FFCFAE
:0E080E0009000A000200030000000000710152
:00000001FF
