:100000000C9434000C9451000C9451000C94510049
:100010000C9451000C9451000C9451000C9451001C
:100020000C9451000C9451000C9451000C9451000C
:100030000C9451000C9451000C9451000C945100FC
:100040000C9451000C9451000C9451000C945100EC
:100050000C9451000C9453000C9451000C945100DA
:100060000C9451000C94510011241FBECFEFD8E026
:10007000DEBFCDBF12E0A0E0B1E0E8E5F1E302C0F1
:1000800005900D92A830B107D9F712E0A8E0B2E0D0
:1000900001C01D92AC35B107E1F70E94BC020C947F
:1000A000AA180C9400001F920F920FB60F92112401
:1000B0000F900FBE0F901F901895AAE7B0E08C919B
:1000C00087608C93ECE7F0E080818064808380819E
:1000D000806280838C9180628C938C9180688C93F9
:1000E0008C9188608C937894EAE7F0E0808180645A
:1000F00080830895EAE7F0E080818F7B8083089514
:100100009C0180917A008F7B80937A0024303105A6
:1001100009F485C0253031050CF12630310509F48C
:1001200097C026303105C4F580917C0081608093B2
:100130007C0080917C008D7F80937C0080917C008E
:10014000846080937C0080917C00877F80937C001A
:1001500080917A00806480937A000895213031057F
:1001600009F44DC0223031056CF12230310509F41B
:100170005AC02330310551F480917C008360809314
:100180007C0080917C00837F80937C0080917A004A
:10019000806480937A0008952730310501F128307A
:1001A0003105A1F780917C00887F80937C0080914D
:1001B0007C00886080937C0080917A0080648093CA
:1001C0007A000895232B11F780917C00807F809323
:1001D0007C0080917A00806480937A0008958091F9
:1001E0007C00876080937C0080917C00877F809377
:1001F0007C0080917A00806480937A0008958091D9
:100200007C00816080937C0080917C00817F809362
:100210007C0080917A00806480937A0008958091B8
:100220007C008C7F89CF80917C008E7F80937C00C6
:1002300080917C00826080937C0080917C00837F31
:1002400080937C0080917A00806480937A00089586
:1002500080917C008E7F80937C0080917C00866002
:1002600080937C0080917C00877F80937C008091CC
:100270007A00806480937A00089584E463E070E0FB
:1002800040E050E00E948702089584E463E070E05B
:1002900041E050E00E94870208958FEF90E06AE00D
:1002A00070E00E946C0720E030E040E951E0CA01B4
:1002B0000197F1F72F5F3F4F83E128383807B9F7EF
:1002C00080E090E06AE070E00E946C0784E464E003
:1002D00070E041E050E00E9487028FEF90E06AE01A
:1002E00070E00E946C0720E030E040E951E0CA0174
:1002F0000197F1F72F5F3F4F83E128383807B9F7AF
:1003000080E090E06AE070E00E946C0784E464E0C2
:1003100070E040E050E00E94870284E463E070E017
:1003200040E050E00E94870220E030E040E951E0E8
:10033000CA010197F1F72F5F3F4F87E2203138075D
:10034000B9F784E463E070E041E050E00E94870286
:100350008FEF90E00E94620720E030E040E951E03A
:10036000CA010197F1F72F5F3F4F83E12838380723
:10037000B9F780E090E00E94620784E465E070E0F5
:1003800041E050E00E94870220E030E040E951E087
:10039000CA010197F1F72F5F3F4F83E128383807F3
:1003A000B9F78FEF90E00E94620720E030E040E96B
:1003B00051E0CA010197F1F72F5F3F4F83E12838E1
:1003C0003807B9F780E090E00E94620784E465E0B6
:1003D00070E040E050E00E9487020895529A539ADC
:1003E000549A559A84E462E070E041E050E00E9443
:1003F00087020E94CB020E945D000E94BB1084E431
:1004000063E070E041E050E00E948702089581308F
:10041000910509F43BC08230910559F1892BA9F56A
:1004200084E463E070E041E050E00E94870220E055
:1004300030E040E951E0CA010197F1F72F5F3F4FEB
:1004400083E128383807B9F784E463E070E040E0DE
:1004500050E00E94870220E030E040E951E0CA010C
:100460000197F1F72F5F3F4F83E128383807B9F73D
:1004700008958FEF90E062E370E00E94A70D80E0A6
:1004800090E06AE070E00E94A70D08958FEF90E081
:100490006AE070E00E94A70D81E090E06AE070E001
:1004A0000E94A70D0895382F672B59F025B181E0E0
:1004B00090E002C0880F991F3A95E2F7282B25B9E2
:1004C000089525B181E090E002C0880F991F3A9508
:1004D000E2F78095822385B90895382F672B59F06C
:1004E0002BB181E090E002C0880F991F3A95E2F7A6
:1004F000282B2BB908952BB181E090E002C0880F22
:10050000991F3A95E2F7809582238BB9089582343A
:1005100091F0843409F0089541305105D9F02BB1A0
:1005200081E090E002C0880F991F6A95E2F78095FC
:1005300082238BB9089541305105A9F025B181E09E
:1005400090E002C0880F991F6A95E2F78095822398
:1005500085B908958BB102C0440F551F6A95E2F723
:10056000842B8BB9089585B102C0440F551F6A953D
:10057000E2F7842B85B908950E94EE018FEF90E099
:100580006AE070E00E946C070E9494108130E1F7ED
:100590000E94B911F9CF85B5836085BD84B58160AE
:1005A00084BD559A569A1092590210925802109290
:1005B00057021092560210921902109218021092CD
:1005C0001502109214021092210210922002109231
:1005D000110210921002E1E8F0E0808183608083D4
:1005E000E0E8F0E0808181608083219A229A109275
:1005F0000B0210920A021092130210921202109231
:100600002D0210922C0210921F0210921E021092C4
:1006100029021092280210921B0210921A02E1EB9A
:10062000F0E0808184608083E0EBF0E08081816095
:100630008083539A239A10921702109216021092F6
:1006400025021092240210922B0210922A0210927C
:100650001D0210921C021092270210922602109284
:100660005B0210925A02089585B5836085BD84B5FA
:10067000816084BD559A569A109259021092580280
:1006800010925702109256021092190210921802FC
:100690001092150210921402109221021092200260
:1006A0001092110210921002089594B5906894BDB2
:1006B00087BD089594B5906294BD88BD08956F92EA
:1006C0007F928F929F92AF92BF92CF92DF92EF92E2
:1006D000FF920F931F93CF93DF936C01009709F460
:1006E000D0C080912C0290912D028C159D0508F0B0
:1006F00061C084B5806884BDC0911802D091190290
:10070000CC16DD0608F43FC080E090E00E94DE15C4
:100710003B014C0120E030E04AE755E40E94001420
:100720007B018C0190E9A92E91E0B92EC7BD2196DD
:10073000C801B70120E030E040E85FE30E945A15AD
:1007400088230CF49BC0C801B70120E03FEF4FE7BE
:1007500057E40E94FA1418160CF075C0C401B301D6
:1007600020E030E040E251E40E9400140E942A128E
:10077000CB01672B29F0F5013197F1F70197D9F7F4
:10078000CC16DD0698F6D0921902C0921802D092CB
:100790001902C0921802DF91CF911F910F91FF9023
:1007A000EF90DF90CF90BF90AF909F908F907F9011
:1007B0006F90089584B5806884BDC0911802D0916F
:1007C0001902CC15DD0518F380E090E00E94DE15DB
:1007D0003B014C0120E030E04AE755E40E94001460
:1007E0007B018C0180E9A82E81E0B82EC7BD21973E
:1007F000C801B70120E030E040E85FE30E945A15ED
:1008000088230CF438C0C801B70120E03FEF4FE760
:1008100057E40E94FA14181614F5C401B30120E03D
:1008200030E040E251E40E9400140E942A12CB0101
:10083000672B29F0F5013197F1F70197D9F7CC151E
:10084000DD05A0F6A4CFC801B7010E942A12CB0192
:100850000197F1F7CC16DD0608F068CF94CFC801F8
:10086000B7010E942A12CB010197F1F7CC15DD05E3
:1008700008F0BCCF8CCF61E070E0F5CF61E070E0B4
:10088000E6CF84B5806884BD17BC85CF6F927F9218
:100890008F929F92AF92BF92CF92DF92EF92FF9290
:1008A0000F931F93CF93DF935C0184B5806884BD61
:1008B000C0911802D0911902AC16BD0608F43EC0D2
:1008C00080E090E00E94DE153B014C0120E030E02A
:1008D0004AE755E40E9400147B018C0120E9C22EF6
:1008E00021E0D22EC7BD2196C801B70120E030E03B
:1008F00040E85FE30E945A1588230CF43EC0C8010B
:10090000B70120E03FEF4FE757E40E94FA141816B2
:1009100044F5C401B30120E030E040E251E40E941C
:1009200000140E942A12CB01672B29F0F60131979F
:10093000F1F70197D9F7AC16BD06A0F6B0921902EF
:10094000A0921802DF91CF911F910F91FF90EF902D
:10095000DF90CF90BF90AF909F908F907F906F90DF
:100960000895C801B7010E942A12CB010197F1F73F
:10097000AC16BD0608F0B6CFE1CF61E070E0F5CF70
:100980006F927F928F929F92AF92BF92CF92DF929F
:10099000EF92FF920F931F93CF93DF936C01009719
:1009A00009F46BC084B5806884BDC0911802D091F1
:1009B0001902CC15DD0508F43EC080E090E00E94ED
:1009C000DE153B014C0120E030E04AE755E40E948F
:1009D00000147B018C0130E9A32E31E0B32EC7BD9A
:1009E0002197C801B70120E030E040E85FE30E94B2
:1009F0005A1588230CF43EC0C801B70120E03FEF30
:100A00004FE757E40E94FA14181644F5C401B301E5
:100A100020E030E040E251E40E9400140E942A12DB
:100A2000CB01672B29F0F5013197F1F70197D9F741
:100A3000CC15DD05A0F6D0921902C0921802DF9104
:100A4000CF911F910F91FF90EF90DF90CF90BF90CB
:100A5000AF909F908F907F906F900895C801B701DD
:100A60000E942A12CB010197F1F7CC15DD0508F0A1
:100A7000B6CFE1CF61E070E0F5CF84B5806884BD8A
:100A800017BCD9CF6F927F928F929F92AF92BF92F5
:100A9000CF92DF92EF92FF920F931F93CF93DF934A
:100AA0006C01009709F06FC084B5806284BD18BCEA
:100AB000809110029091110284B5806284BDC09132
:100AC0001002D091110280E090E00E94DE153B01FF
:100AD0004C0120E030E04AE755E40E9400147B011D
:100AE0008C0150E9A52E51E0B52EC8BD2197C80153
:100AF000B70120E030E040E85FE30E945A15882308
:100B00000CF43EC0C801B70120E03FEF4FE757E4C7
:100B10000E94FA14181644F5C401B30120E030E035
:100B200040E251E40E9400140E942A12CB01672B7C
:100B300029F0F5013197F1F70197D9F7CC15DD05CB
:100B4000A0F6D0921102C0921002DF91CF911F91B6
:100B50000F91FF90EF90DF90CF90BF90AF909F905C
:100B60008F907F906F900895C801B7010E942A125C
:100B7000CB010197F1F7CC15DD0508F0B6CFE1CF39
:100B800061E070E0F5CF80911002909111028C1518
:100B90009D0508F056C084B5806284BDC0911002E6
:100BA000D0911102CC16DD0660F280E090E00E9448
:100BB000DE153B014C0120E030E04AE755E40E949D
:100BC00000147B018C0140E9A42E41E0B42EC8BD85
:100BD0002196C801B70120E030E040E85FE30E94C1
:100BE0005A1588235CF1C801B70120E03FEF4FE7B9
:100BF00057E40E94FA141816B4F4C401B30120E0BB
:100C000030E040E251E40E9400140E942A12CB011D
:100C1000672B29F0F5013197F1F70197D9F7CC1639
:100C2000DD06A8F68ECFC801B7010E942A12CB01BB
:100C30000197F1F7CC16DD0650F683CF61E070E046
:100C4000F6CF84B5806284BDC0911002D0911102AC
:100C5000CC15DD0508F475CF36CF6F927F928F9259
:100C60009F92AF92BF92CF92DF92EF92FF920F933B
:100C70001F93CF93DF935C0184B5806284BDC091E4
:100C80001002D0911102AC16BD0608F43EC080E0FF
:100C900090E00E94DE153B014C0120E030E04AE785
:100CA00055E40E9400147B018C0160E9C62E61E0CE
:100CB000D62EC8BD2196C801B70120E030E040E83B
:100CC0005FE30E945A1588230CF43EC0C801B701A7
:100CD00020E03FEF4FE757E40E94FA14181644F55E
:100CE000C401B30120E030E040E251E40E9400146E
:100CF0000E942A12CB01672B29F0F6013197F1F7F8
:100D00000197D9F7AC16BD06A0F6B0921102A092D9
:100D10001002DF91CF911F910F91FF90EF90DF9024
:100D2000CF90BF90AF909F908F907F906F900895DD
:100D3000C801B7010E942A12CB010197F1F7AC1646
:100D4000BD0608F0B6CFE1CF61E070E0F5CF6F925D
:100D50007F928F929F92AF92BF92CF92DF92EF924B
:100D6000FF920F931F93CF93DF935C01009709F0DD
:100D70006EC084B5806284BD18BC84B5806284BDB9
:100D8000C0911002D091110280E090E00E94DE1527
:100D90003B014C0120E030E04AE755E40E9400149A
:100DA0007B018C0170E9C72E71E0D72ED0938B00A8
:100DB000C0938A002197C801B70120E030E040E8E5
:100DC0005FE30E945A1588230CF43EC0C801B701A6
:100DD00020E03FEF4FE757E40E94FA14181644F55D
:100DE000C401B30120E030E040E251E40E9400146D
:100DF0000E942A12CB01672B29F0F6013197F1F7F7
:100E00000197D9F7CA15DB0588F6B0921102A092B6
:100E10001002DF91CF911F910F91FF90EF90DF9023
:100E2000CF90BF90AF909F908F907F906F900895DC
:100E3000C801B7010E942A12CB010197F1F7CA1528
:100E4000DB0508F0B3CFE1CF61E070E0F5CF84B50A
:100E5000806284BDC0911002D0911102CA15DB05D9
:100E600008F092CFD2CFE1E8F0E080818360808308
:100E7000E0E8F0E0808181608083219A229A1092DC
:100E80000B0210920A021092130210921202109298
:100E90002D0210922C0210921F0210921E0210922C
:100EA00029021092280210921B0210921A02089531
:100EB000E0E8F0E02081206820839093890080930F
:100EC00088000895E0E8F0E020812062208390937C
:100ED0008B0080938A0008956F927F928F929F92E9
:100EE000AF92BF92CF92DF92EF92FF920F931F9338
:100EF000CF93DF936C01009709F4DAC080912C0244
:100F000090912D028C159D0508F066C0809180009F
:100F1000806880938000C0912C02D0912D02CC1665
:100F2000DD0608F442C080E090E00E94DE153B013F
:100F30004C0120E030E04AE755E40E9400147B01B8
:100F40008C01F0E9AF2EF1E0BF2ED0938900C09361
:100F500088002196C801B70120E030E040E85FE357
:100F60000E945A1588230CF4A0C0C801B70120E0E4
:100F70003FEF4FE757E40E94FA1418160CF07AC0BE
:100F8000C401B30120E030E040E251E40E940014CB
:100F90000E942A12CB01672B29F0F5013197F1F756
:100FA0000197D9F7CC16DD0680F6D0922D02C092BB
:100FB0002C02D0922D02C0922C02DF91CF911F9172
:100FC0000F91FF90EF90DF90CF90BF90AF909F90E8
:100FD0008F907F906F9008958091800080688093BB
:100FE0008000C0912C02D0912D02CC15DD0508F3B4
:100FF00080E090E00E94DE153B014C0120E030E0F3
:101000004AE755E40E9400147B018C01E0E9AE2E12
:10101000E1E0BE2ED0938900C09388002197C801DB
:10102000B70120E030E040E85FE30E945A158823D2
:101030000CF438C0C801B70120E03FEF4FE757E498
:101040000E94FA14181614F5C401B30120E030E030
:1010500040E251E40E9400140E942A12CB01672B47
:1010600029F0F5013197F1F70197D9F7CC15DD0596
:1010700088F69FCFC801B7010E942A12CB010197C1
:10108000F1F7CC16DD0608F060CF8FCFC801B701AD
:101090000E942A12CB010197F1F7CC15DD0508F06B
:1010A000B9CF87CF61E070E0F5CF61E070E0E6CFC7
:1010B0008091800080688093800010928900109257
:1010C00088007BCF6F927F928F929F92AF92BF9258
:1010D000CF92DF92EF92FF920F931F93CF93DF9304
:1010E0005C0180918000806880938000C0912C0218
:1010F000D0912D02AC16BD0608F441C080E090E00E
:101100000E94DE153B014C0120E030E04AE755E447
:101110000E9400147B018C01A0E9CA2EA1E0DA2E06
:10112000D0938900C09388002196C801B70120E0C0
:1011300030E040E85FE30E945A1588230CF43EC07B
:10114000C801B70120E03FEF4FE757E40E94FA14CF
:10115000181644F5C401B30120E030E040E251E448
:101160000E9400140E942A12CB01672B29F0F6017D
:101170003197F1F70197D9F7AC16BD0688F6B09212
:101180002D02A0922C02DF91CF911F910F91FF9021
:10119000EF90DF90CF90BF90AF909F908F907F9017
:1011A0006F900895C801B7010E942A12CB010197E0
:1011B000F1F7AC16BD0608F0B3CFE1CF61E070E007
:1011C000F5CF6F927F928F929F92AF92BF92CF9204
:1011D000DF92EF92FF920F931F93CF93DF936C01F7
:1011E000009709F470C0809180008068809380002F
:1011F000C0912C02D0912D02CC15DD0508F441C020
:1012000080E090E00E94DE153B014C0120E030E0E0
:101210004AE755E40E9400147B018C01B0E9AB2E33
:10122000B1E0BB2ED0938900C09388002197C801FC
:10123000B70120E030E040E85FE30E945A158823C0
:101240000CF43EC0C801B70120E03FEF4FE757E480
:101250000E94FA14181644F5C401B30120E030E0EE
:1012600040E251E40E9400140E942A12CB01672B35
:1012700029F0F5013197F1F70197D9F7CC15DD0584
:1012800088F6D0922D02C0922C02DF91CF911F914F
:101290000F91FF90EF90DF90CF90BF90AF909F9015
:1012A0008F907F906F900895C801B7010E942A1215
:1012B000CB010197F1F7CC15DD0508F0B3CFE1CFF5
:1012C00061E070E0F5CF80918000806880938000BD
:1012D0001092890010928800D4CF6F927F928F92E3
:1012E0009F92AF92BF92CF92DF92EF92FF920F93B5
:1012F0001F93CF93DF936C01009709F079C0809121
:10130000800080628093800010928B0010928A008F
:1013100080911A0290911B028091800080628093DC
:101320008000C0911A02D0911B0280E090E00E94E0
:10133000DE153B014C0120E030E04AE755E40E9415
:1013400000147B018C0190E9A92E91E0B92ED09375
:101350008B00C0938A002197C801B70120E030E0DC
:1013600040E85FE30E945A1588230CF43EC0C80190
:10137000B70120E03FEF4FE757E40E94FA14181638
:1013800044F5C401B30120E030E040E251E40E94A2
:1013900000140E942A12CB01672B29F0F501319726
:1013A000F1F70197D9F7CC15DD0588F6D0921B022D
:1013B000C0921A02DF91CF911F910F91FF90EF9091
:1013C000DF90CF90BF90AF909F908F907F906F9065
:1013D0000895C801B7010E942A12CB010197F1F7C5
:1013E000CC15DD0508F0B3CFE1CF61E070E0F5CFBB
:1013F00080911A0290911B028C159D0508F05BC02C
:1014000080918000806280938000C0911A02D09108
:101410001B02CC16DD0650F280E090E00E94DE1543
:101420003B014C0120E030E04AE755E40E94001403
:101430007B018C0180E9A82E81E0B82ED0938B002F
:10144000C0938A002196C801B70120E030E040E84F
:101450005FE30E945A1588235CF1C801B70120E0C0
:101460003FEF4FE757E40E94FA141816B4F4C40192
:10147000B30120E030E040E251E40E9400140E94F9
:101480002A12CB01672B29F0F5013197F1F701976B
:10149000D9F7CC16DD0690F689CFC801B7010E94B6
:1014A0002A12CB010197F1F7CC16DD0638F67ECF74
:1014B00061E070E0F6CF80918000806280938000D0
:1014C000C0911A02D0911B02CC15DD0508F46ECF35
:1014D0002CCF6F927F928F929F92AF92BF92CF92BA
:1014E000DF92EF92FF920F931F93CF93DF935C01F4
:1014F00080918000806280938000C0911A02D09118
:101500001B02AC16BD0608F441C080E090E00E94CA
:10151000DE153B014C0120E030E04AE755E40E9433
:1015200000147B018C0120E9C22E21E0D22ED09341
:101530008B00C0938A002196C801B70120E030E0FB
:1015400040E85FE30E945A1588230CF43EC0C801AE
:10155000B70120E03FEF4FE757E40E94FA14181656
:1015600044F5C401B30120E030E040E251E40E94C0
:1015700000140E942A12CB01672B29F0F601319743
:10158000F1F70197D9F7AC16BD0688F6B0921B02A9
:10159000A0921A02DF91CF911F910F91FF90EF90CF
:1015A000DF90CF90BF90AF909F908F907F906F9083
:1015B0000895C801B7010E942A12CB010197F1F7E3
:1015C000AC16BD0608F0B3CFE1CF61E070E0F5CF17
:1015D0006F927F928F929F92AF92BF92CF92DF9243
:1015E000EF92FF920F931F93CF93DF935C010097CD
:1015F00009F075C080918000806280938000109215
:101600008B0010928A00809180008062809380001D
:10161000C0911A02D0911B0280E090E00E94DE157A
:101620003B014C0120E030E04AE755E40E94001401
:101630007B018C0130E9C32E31E0D32ED0938B0097
:10164000C0938A002197C801B70120E030E040E84C
:101650005FE30E945A1588230CF43EC0C801B7010D
:1016600020E03FEF4FE757E40E94FA14181644F5C4
:10167000C401B30120E030E040E251E40E940014D4
:101680000E942A12CB01672B29F0F6013197F1F75E
:101690000197D9F7CA15DB0588F6B0921B02A09214
:1016A0001A02DF91CF911F910F91FF90EF90DF9081
:1016B000CF90BF90AF909F908F907F906F90089544
:1016C000C801B7010E942A12CB010197F1F7CA1590
:1016D000DB0508F0B3CFE1CF61E070E0F5CF80919A
:1016E0008000806280938000C0911A02D0911B021A
:1016F000CA15DB0508F090CFD0CFE1EBF0E0808198
:1017000084608083E0EBF0E0808181608083539A85
:10171000239A10921702109216021092250210922C
:10172000240210922B0210922A0210921D02109293
:101730001C02109227021092260210925B02109255
:101740005A020895E0EBF0E09081906890838093D6
:10175000B3000895E0EBF0E0908190629083809375
:10176000B40008956F927F928F929F92AF92BF9232
:10177000CF92DF92EF92FF920F931F93CF93DF935D
:101780006C01009709F4D6C080912A0290912B0237
:101790008C159D0508F064C08091B000806880932E
:1017A000B000C0912A02D0912B02CC16DD0608F4BD
:1017B00040C080E090E00E94DE153B014C0120E03B
:1017C00030E04AE755E40E9400147B018C0150E9A7
:1017D000A52E51E0B52EC093B3002196C801B701E4
:1017E00020E030E040E85FE30E945A1588230CF4C3
:1017F0009EC0C801B70120E03FEF4FE757E40E94C9
:10180000FA1418160CF078C0C401B30120E030E0DF
:1018100040E251E40E9400140E942A12CB01672B7F
:1018200029F0F5013197F1F70197D9F7CC16DD06CC
:1018300090F6D0922B02C0922A02D0922B02C09234
:101840002A02DF91CF911F910F91FF90EF90DF90CF
:10185000CF90BF90AF909F908F907F906F900895A2
:101860008091B00080688093B000C0912A02D0912E
:101870002B02CC15DD0508F380E090E00E94DE1518
:101880003B014C0120E030E04AE755E40E9400149F
:101890007B018C0140E9A42E41E0B42EC093B3003B
:1018A0002197C801B70120E030E040E85FE30E94E3
:1018B0005A1588230CF438C0C801B70120E03FEF67
:1018C0004FE757E40E94FA14181614F5C401B30147
:1018D00020E030E040E251E40E9400140E942A120D
:1018E000CB01672B29F0F5013197F1F70197D9F773
:1018F000CC15DD0598F6A1CFC801B7010E942A12C8
:10190000CB010197F1F7CC16DD0608F064CF91CF3B
:10191000C801B7010E942A12CB010197F1F7CC153B
:10192000DD0508F0BBCF89CF61E070E0F5CF61E065
:1019300070E0E6CF8091B00080688093B000109294
:10194000B3007FCF6F927F928F929F92AF92BF92A0
:10195000CF92DF92EF92FF920F931F93CF93DF937B
:101960005C018091B00080688093B000C0912A0231
:10197000D0912B02AC16BD0608F43FC080E090E089
:101980000E94DE153B014C0120E030E04AE755E4BF
:101990000E9400147B018C0160E9C62E61E0D62E06
:1019A000C093B3002196C801B70120E030E040E8C1
:1019B0005FE30E945A1588230CF43EC0C801B701AA
:1019C00020E03FEF4FE757E40E94FA14181644F561
:1019D000C401B30120E030E040E251E40E94001471
:1019E0000E942A12CB01672B29F0F6013197F1F7FB
:1019F0000197D9F7AC16BD0698F6B0922B02A092CB
:101A00002A02DF91CF911F910F91FF90EF90DF900D
:101A1000CF90BF90AF909F908F907F906F900895E0
:101A2000C801B7010E942A12CB010197F1F7AC1649
:101A3000BD0608F0B5CFE1CF61E070E0F5CF6F9261
:101A40007F928F929F92AF92BF92CF92DF92EF924E
:101A5000FF920F931F93CF93DF936C01009709F4CC
:101A60006EC08091B00080688093B000C0912A025F
:101A7000D0912B02CC15DD0508F43FC080E090E04A
:101A80000E94DE153B014C0120E030E04AE755E4BE
:101A90000E9400147B018C0170E9A72E71E0B72E23
:101AA000C093B3002197C801B70120E030E040E8BF
:101AB0005FE30E945A1588230CF43EC0C801B701A9
:101AC00020E03FEF4FE757E40E94FA14181644F560
:101AD000C401B30120E030E040E251E40E94001470
:101AE0000E942A12CB01672B29F0F5013197F1F7FB
:101AF0000197D9F7CC15DD0598F6D0922B02C0924C
:101B00002A02DF91CF911F910F91FF90EF90DF900C
:101B1000CF90BF90AF909F908F907F906F900895DF
:101B2000C801B7010E942A12CB010197F1F7CC1529
:101B3000DD0508F0B5CFE1CF61E070E0F5CF809131
:101B4000B00080688093B0001092B300D6CF6F923F
:101B50007F928F929F92AF92BF92CF92DF92EF923D
:101B6000FF920F931F93CF93DF936C01009709F0BF
:101B700075C08091B00080628093B0001092B40074
:101B800080915A0290915B028091B00080628093B4
:101B9000B000C0915A02D0915B0280E090E00E94B8
:101BA000DE153B014C0120E030E04AE755E40E949D
:101BB00000147B018C01F0E9AF2EF1E0BF2EC09341
:101BC000B4002197C801B70120E030E040E85FE3AE
:101BD0000E945A1588230CF43EC0C801B70120E0CA
:101BE0003FEF4FE757E40E94FA14181644F5C4017A
:101BF000B30120E030E040E251E40E9400140E9472
:101C00002A12CB01672B29F0F5013197F1F70197E3
:101C1000D9F7CC15DD0598F6D0925B02C0925A0236
:101C2000DF91CF911F910F91FF90EF90DF90CF90B8
:101C3000BF90AF909F908F907F906F900895C80154
:101C4000B7010E942A12CB010197F1F7CC15DD05EF
:101C500008F0B5CFE1CF61E070E0F5CF80915A0296
:101C600090915B028C159D0508F059C08091B000E1
:101C700080628093B000C0915A02D0915B02CC1672
:101C8000DD0650F280E090E00E94DE153B014C0141
:101C900020E030E04AE755E40E9400147B018C010B
:101CA000E0E9AE2EE1E0BE2EC093B4002196C8015B
:101CB000B70120E030E040E85FE30E945A15882336
:101CC0005CF1C801B70120E03FEF4FE757E40E9405
:101CD000FA141816B4F4C401B30120E030E040E275
:101CE00051E40E9400140E942A12CB01672B29F0B4
:101CF000F5013197F1F70197D9F7CC16DD06A0F67B
:101D00008BCFC801B7010E942A12CB010197F1F7CE
:101D1000CC16DD0648F680CF61E070E0F6CF80910A
:101D2000B00080628093B000C0915A02D0915B02F3
:101D3000CC15DD0508F470CF30CF6F927F928F9273
:101D40009F92AF92BF92CF92DF92EF92FF920F934A
:101D50001F93CF93DF935C018091B00080628093EA
:101D6000B000C0915A02D0915B02AC16BD0608F4D7
:101D70003FC080E090E00E94DE153B014C0120E076
:101D800030E04AE755E40E9400147B018C01A0E991
:101D9000CA2EA1E0DA2EC093B4002196C801B70183
:101DA00020E030E040E85FE30E945A1588230CF4FD
:101DB0003EC0C801B70120E03FEF4FE757E40E9463
:101DC000FA14181644F5C401B30120E030E040E2F3
:101DD00051E40E9400140E942A12CB01672B29F0C3
:101DE000F6013197F1F70197D9F7AC16BD0698F6D1
:101DF000B0925B02A0925A02DF91CF911F910F9196
:101E0000FF90EF90DF90CF90BF90AF909F908F901A
:101E10007F906F900895C801B7010E942A12CB01EC
:101E20000197F1F7AC16BD0608F0B5CFE1CF61E040
:101E300070E0F5CF6F927F928F929F92AF92BF9298
:101E4000CF92DF92EF92FF920F931F93CF93DF9386
:101E50005C01009709F071C08091B00080628093AE
:101E6000B0001092B4008091B00080628093B00006
:101E7000C0915A02D0915B0280E090E00E94DE1592
:101E80003B014C0120E030E04AE755E40E94001499
:101E90007B018C01B0E9CB2EB1E0DB2EC093B40006
:101EA0002197C801B70120E030E040E85FE30E94DD
:101EB0005A1588230CF43EC0C801B70120E03FEF5B
:101EC0004FE757E40E94FA14181644F5C401B30111
:101ED00020E030E040E251E40E9400140E942A1207
:101EE000CB01672B29F0F6013197F1F70197D9F76C
:101EF000CA15DB0598F6B0925B02A0925A02DF91F8
:101F0000CF911F910F91FF90EF90DF90CF90BF90F6
:101F1000AF909F908F907F906F900895C801B70108
:101F20000E942A12CB010197F1F7CA15DB0508F0D0
:101F3000B5CFE1CF61E070E0F5CF8091B000806275
:101F40008093B000C0915A02D0915B02CA15DB05A4
:101F500008F092CFD0CF84E708950E94800020E05F
:101F600030E040E951E0CA010197F1F72F5F3F4FA0
:101F7000283C3105C1F78091790090E090932302CD
:101F80008093220210920D0210920C0280910C029A
:101F900090910D0245970CF444C060C0359527958B
:101FA000820F931F90932302809322022091790045
:101FB00080910E0290910F0230E0845690402817D5
:101FC000390794F48091790020910E0230910F022C
:101FD000869590E037FD3FC035952795820F931F7A
:101FE0009093230280932202E0910C02F0910D0263
:101FF0008091220290912302EE0FFF1FE25DFD4FC0
:102000009183808380910C0290910D0201969093B0
:102010000D0280930C0280910C0290910D02459765
:10202000ECF42091790080910E0290910F0230E043
:102030008C599F4F821793070CF0B8CF809179008D
:1020400020910E0230910F02869590E037FFA6CFC7
:102050002F5F3F4FA3CF2F5F3F4FBECF10920D0298
:1020600010920C0280910C0290910D0245971CF584
:10207000E0910C02F0910D02EE0FFF1FE25DFD4FAB
:102080008081918120910E0230910F02820F931F67
:1020900090930F0280930E0280910C0290910D029A
:1020A000019690930D0280930C0280910C02909106
:1020B0000D024597ECF280910E0290910F0264E1BF
:1020C00070E00E944C1870930F0260930E022091F2
:1020D0000E0230910F02C901089584E090E00E9441
:1020E000AD0F20910802309109028217930774F412
:1020F00084E462E070E041E050E00E94870284E006
:1021000090E00E94AD0F0E94AA0B089584E462E063
:1021100070E040E050E00E94870285E090E00E947D
:10212000AD0F0E94AA0B089584E090E00E94AD0FCD
:102130002091080230910902281739075CF485E0E4
:1021400090E00E94AD0F20910802309109022817FB
:1021500039077CF084E090E00E94AD0F20910802E6
:10216000309109022817390714F080E0089586E6B7
:10217000089584E7089585E090E00E94800020E0C3
:1021800030E040E951E0CA010197F1F72F5F3F4F7E
:10219000283C3105C1F78091790090E090932302AB
:1021A0008093220210920D0210920C0280910C0278
:1021B00090910D0245970CF444C060C03595279569
:1021C000820F931F90932302809322022091790023
:1021D00080910E0290910F0230E0845690402817B3
:1021E000390794F48091790020910E0230910F020A
:1021F000869590E037FD3FC035952795820F931F58
:102200009093230280932202E0910C02F0910D0240
:102210008091220290912302EE0FFF1FE25DFD4F9D
:102220009183808380910C0290910D02019690938E
:102230000D0280930C0280910C0290910D02459743
:10224000ECF42091790080910E0290910F0230E021
:102250008C599F4F821793070CF0B8CF809179006B
:1022600020910E0230910F02869590E037FFA6CFA5
:102270002F5F3F4FA3CF2F5F3F4FBECF10920D0276
:1022800010920C0280910C0290910D0245971CF562
:10229000E0910C02F0910D02EE0FFF1FE25DFD4F89
:1022A0008081918120910E0230910F02820F931F45
:1022B00090930F0280930E0280910C0290910D0278
:1022C000019690930D0280930C0280910C029091E4
:1022D0000D024597ECF280910E0290910F0262E19F
:1022E00070E00E944C1870930F0260930E02809170
:1022F0000E0290910F0290930902809308021092AF
:102300000D0210920C0280910C0290910D024597E3
:10231000CCF4E0910C02F0910D02EE0FFF1FE25D94
:10232000FD4F1182108280910C0290910D02019656
:1023300090930D0280930C0280910C0290910D02FB
:1023400045973CF308958FEF90E00E94620720E0EC
:1023500030E040E951E0CA010197F1F72F5F3F4FAC
:1023600087E0203D3807B9F780E090E00E946207DF
:10237000089584E090E00E94AD0F20910802309112
:102380000902281739070CF0089585E090E00E94B3
:10239000AD0F209108023091090228173907A4F7E0
:1023A00084E464E070E041E050E00E94870280E253
:1023B0009EE40197F1F78FEF90E00E94620720E022
:1023C00030E040E951E0CA010197F1F72F5F3F4F3C
:1023D00087E0203D3807B9F780E090E00E9462076F
:1023E00084E464E070E040E050E00E9487020895D9
:1023F00080E090E00E94550380E090E00E945A0344
:1024000080E090E00E94580780E090E00E94620720
:1024100080E090E00E94A20B80E090E00E94AA0B76
:1024200084E462E070E041E050E00E94870281E0D5
:1024300090E00E94070284E464E070E040E050E035
:102440000E94870284E465E070E040E050E00E9472
:1024500087020895EF92FF920F931F937B018C01E7
:1024600020E030E040E05FE40E942A1588238CF0F1
:10247000C801B70120E030E040E05FE40E94A21311
:102480000E948A159B01AC012050304040405048CA
:1024900006C0C801B7010E948A159B01AC01B901B1
:1024A000CA011F910F91FF90EF900895A0E0B0E056
:1024B000ECE5F2E10C947318DC012B01FA019C911C
:1024C000923008F439C1EB018881823008F433C1BD
:1024D000943069F4843009F02FC111969C911197C2
:1024E0008981981709F428C1A0E0B1E025C18430A2
:1024F00009F421C18230A9F4923009F01DC19A017A
:10250000AD0188E0EA010990AE01E90109929E015E
:102510008150C1F7E201898111969C9189238183C1
:1025200008C1923009F407C112962D903C90139780
:10253000EB018A819B811496AD90BD90CD90DC908B
:102540001797EC80FD800E811F819101281B390BAC
:10255000B90137FF04C066277727621B730B60320F
:1025600071050CF061C0121613066CF537014801B5
:10257000062E04C096948794779467940A94D2F7B1
:1025800021E030E040E050E004C0220F331F441F40
:10259000551F6A95D2F721503040404050402E21BF
:1025A0003F2140235123211531054105510521F0DB
:1025B00021E030E040E050E079018A01E628F72888
:1025C000082919293CC0232BD1F1260E371E3501CD
:1025D0004601062E04C096948794779467940A94D3
:1025E000D2F721E030E040E050E004C0220F331F7A
:1025F000441F551F6A95D2F721503040404050404B
:102600002A213B214C215D21211531054105510530
:1026100021F021E030E040E050E059016A01A628B5
:10262000B728C828D9280BC0821593052CF01C01A7
:10263000AA24BB24650103C0EE24FF248701119660
:102640009C91D20111968C91981709F445C0992359
:1026500039F0A80197012A193B094C095D0906C008
:10266000A60195012E193F09400B510B57FD08C0DB
:1026700011823382228224833583468357831DC08F
:1026800081E081833382228288279927DC01821BA3
:10269000930BA40BB50B84839583A683B7830DC0DE
:1026A000220F331F441F551F2483358346835783CE
:1026B000828193810197938382832481358146812E
:1026C0005781DA01C9010197A109B1098F5F9F4FB5
:1026D000AF4FBF4328F30BC0918333822282EA0CB1
:1026E000FB1C0C1D1D1DE482F5820683178383E00D
:1026F0008083248135814681578157FF1AC0C901E3
:10270000AA2797FDA095BA2F81709070A070B07025
:102710005695479537952795822B932BA42BB52B50
:1027200084839583A683B783828193810196938363
:102730008283DF0101C0D201CD01CDB7DEB7E2E176
:102740000C948F18A0E2B0E0E8EAF3E10C947F1853
:1027500069837A838B839C832D833E834F83588741
:10276000E9E0EE2EF12CEC0EFD1ECE010196B70134
:102770000E947B178E010F5E1F4FCE010596B80198
:102780000E947B178A8991E089278A8BC701B8014B
:10279000AE01475E5F4F0E9456120E94A616A09699
:1027A000E6E00C949B18A0E2B0E0E9EDF3E10C94B4
:1027B0007F1869837A838B839C832D833E834F8329
:1027C0005887F9E0EF2EF12CEC0EFD1ECE0101969C
:1027D000B7010E947B178E010F5E1F4FCE01059639
:1027E000B8010E947B17C701B801AE01475E5F4F79
:1027F0000E9456120E94A616A096E6E00C949B1822
:10280000A0E2B0E0E6E0F4E10C94731869837A8307
:102810008B839C832D833E834F835887CE01019603
:10282000BE01675F7F4F0E947B17CE010596BE01F8
:102830006F5E7F4F0E947B179985923088F089895F
:102840008230C8F0943019F4823051F404C08430DE
:1028500029F4923081F480E091E0C6C0923049F4CE
:1028600020E09A858A89981321E02A87CE0109966B
:10287000BBC0823049F420E09A858A89981321E010
:102880002A8BCE014196B0C02D843E844F84588857
:102890006D887E888F88988CEE24FF248701AA2477
:1028A000BB24650140E050E060E070E0E0E0F0E073
:1028B000C10181709070892BE9F0E60CF71C081DAE
:1028C000191D9A01AB012A0D3B1D4C1D5D1D80E0B9
:1028D00090E0A0E0B0E0E614F7040805190520F444
:1028E00081E090E0A0E0B0E0BA01A901480F591FD3
:1028F0006A1F7B1FAA0CBB1CCC1CDD1C97FE08C0EA
:1029000081E090E0A0E0B0E0A82AB92ACA2ADB2A38
:102910003196E032F10549F0660C771C881C991C51
:102920005694479437942794C3CFFA85EA892B8924
:102930003C898B859C85280F391F2E5F3F4F17C020
:10294000CA0181709070892B61F016950795F794F4
:10295000E79480E090E0A0E0B0E8E82AF92A0A2BAA
:102960001B2B76956795579547952F5F3F4F77FDC2
:10297000E7CF0CC0440F551F661F771F17FD41603E
:10298000EE0CFF1C001F111F21503040403090E022
:10299000590790E0690790E4790760F32B8F3C8F2B
:1029A000DB01CA018F779070A070B0708034910500
:1029B000A105B10561F447FD0AC0E114F104010568
:1029C000110529F0405C5F4F6F4F7F4F40781A8EA2
:1029D000FE1711F081E08A8F4D8F5E8F6F8F78A385
:1029E00083E0898FCE0149960E94A616A096E2E167
:1029F0000C948F18A8E1B0E0E0E0F5E10C947F18AA
:102A000069837A838B839C832D833E834F8358878E
:102A100089E0E82EF12CEC0EFD1ECE010196B701E7
:102A20000E947B178E010F5E1F4FCE010596B801E5
:102A30000E947B178985823040F08989823028F096
:102A4000C701B8010E94F31701C08FEF6896E6E056
:102A50000C949B18A8E1B0E0E0E3F5E10C947F183A
:102A600069837A838B839C832D833E834F8358872E
:102A700089E0E82EF12CEC0EFD1ECE010196B70187
:102A80000E947B178E010F5E1F4FCE010596B80185
:102A90000E947B178985823040F08989823028F036
:102AA000C701B8010E94F31701C08FEF6896E6E0F6
:102AB0000C949B18A8E1B0E0E0E6F5E10C947F18D7
:102AC00069837A838B839C832D833E834F835887CE
:102AD00089E0E82EF12CEC0EFD1ECE010196B70127
:102AE0000E947B178E010F5E1F4FCE010596B80125
:102AF0000E947B178985823040F08989823028F0D6
:102B0000C701B8010E94F31701C081E06896E6E0B2
:102B10000C949B18ACE0B0E0E0E9F5E10C9483186C
:102B200069837A838B839C83CE010196BE016B5FA0
:102B30007F4F0E947B178D81823061F1823050F18E
:102B4000843021F48E81882351F12EC02F81388565
:102B500037FD20C06E812F3131051CF06623F9F05E
:102B600023C08EE190E0821B930B29853A854B852B
:102B70005C8504C056954795379527958A95D2F779
:102B80006623B1F050954095309521953F4F4F4FBA
:102B90005F4F0EC020E030E040E050E009C02FEF72
:102BA0003FEF4FEF5FE704C020E030E040E050E847
:102BB000B901CA012C96E2E00C949F18A8E0B0E09D
:102BC000E4EEF5E10C947B187B018C016115710535
:102BD0008105910519F482E0898360C083E08983CF
:102BE0008EE1C82ED12CDC82CB82ED82FE820F8357
:102BF0001887C801B7010E945716FC013197F7FFEB
:102C00003BC0222733272E1B3F0B57016801022EA2
:102C100004C0D694C794B794A7940A94D2F740E01E
:102C200050E060E070E081E090E0A0E0B0E004C03F
:102C3000880F991FAA1FBB1F2A95D2F70197A109D8
:102C4000B1098E219F21A023B1230097A105B105D1
:102C500021F041E050E060E070E04A295B296C29F6
:102C60007D294D835E836F8378878EE190E08E1B94
:102C70009F0B9C838B8312C0309781F00E2E04C073
:102C8000EE0CFF1C001F111F0A94D2F7ED82FE828A
:102C90000F831887CE1ADF0ADC82CB821A82CE011C
:102CA00001960E94A6162896EAE00C949718EF92D7
:102CB000FF920F931F937B018C0180E0E81680E068
:102CC000F80681E0080780E0180788F48FEFE8161F
:102CD000F1040105110531F028F088E090E0A0E052
:102CE000B0E017C080E090E0A0E0B0E012C080E06B
:102CF000E81680E0F80680E0080781E0180728F071
:102D000088E190E0A0E0B0E004C080E190E0A0E0C5
:102D1000B0E020E230E040E050E0281B390B4A0BE5
:102D20005B0B04C016950795F794E7948A95D2F744
:102D3000F701E85FFE4F8081281B310941095109E5
:102D4000C9011F910F91FF90EF900895DF92EF92CC
:102D5000FF920F931F93FC01E480F5800681178199
:102D6000D1808081823048F480E090E0A0E1B0E042
:102D7000E82AF92A0A2B1B2BA5C0843009F49FC02E
:102D8000823021F4EE24FF24870105C0E114F10410
:102D90000105110519F4E0E0F0E096C0628173814D
:102DA0009FEF623879070CF05BC022E83FEF261BEB
:102DB000370B2A3131052CF020E030E040E050E0C4
:102DC0002AC0B801A701022E04C0769567955795D1
:102DD00047950A94D2F781E090E0A0E0B0E004C00B
:102DE000880F991FAA1FBB1F2A95D2F70197A10927
:102DF000B1098E219F21A023B1230097A105B10520
:102E000021F081E090E0A0E0B0E09A01AB01282B36
:102E1000392B4A2B5B2BDA01C9018F779070A07098
:102E2000B07080349105A105B10539F427FF09C0C0
:102E3000205C3F4F4F4F5F4F04C0215C3F4F4F4FCF
:102E40005F4FE0E0F0E02030A0E03A07A0E04A0762
:102E5000A0E45A0710F0E1E0F0E079018A0127C010
:102E60006038710564F5FB01E158FF4FD801C701D7
:102E70008F779070A070B07080349105A105B10576
:102E800039F4E7FE0DC080E490E0A0E0B0E004C0BB
:102E90008FE390E0A0E0B0E0E80EF91E0A1F1B1FD0
:102EA00017FF05C016950795F794E794319687E0CC
:102EB00016950795F794E7948A95D1F705C0EE2407
:102EC000FF248701EFEFF0E06E2F67956627679587
:102ED000902F9F77D794DD24D7948E2F8695492FF6
:102EE000462B582F5D29B701CA011F910F91FF9002
:102EF000EF90DF900895FC01DB0140815181228138
:102F0000622F6F7770E0221F2227221F9381892F63
:102F1000880F822B282F30E0991F9927991F11962F
:102F20009C93119721153105A9F5411551056105AE
:102F3000710511F482E037C082E89FEF13969C93ED
:102F40008E9312979A01AB0167E0220F331F441F43
:102F5000551F6A95D1F783E08C930DC0220F331F64
:102F6000441F551F12968D919C91139701971396AC
:102F70009C938E931297203080E0380780E04807BA
:102F800080E4580758F314962D933D934D935C932A
:102F9000179708952F3F310579F4411551056105C3
:102FA000710519F484E08C93089564FF03C081E0F7
:102FB0008C9312C01C9210C02F57304013963C9334
:102FC0002E93129783E08C9387E0440F551F661F62
:102FD000771F8A95D1F7706414964D935D936D9326
:102FE0007C93179708951F93DC01FB019C9192300D
:102FF00008F447C08081823008F443C0943051F413
:1030000011961C91843099F58181682F70E0611BC5
:1030100071093FC0843021F0923031F48230B9F12F
:103020008181882389F12DC011961C9111978230DE
:10303000F1F081811817D9F412962D913C911397D4
:10304000828193818217930794F028173907BCF087
:1030500014968D919D910D90BC91A02D2481358168
:1030600046815781281739074A075B0718F411234F
:1030700041F00AC082179307A407B50740F4112353
:1030800019F061E070E005C06FEF7FEF02C060E013
:1030900070E0CB011F91089597FB092E07260AD0F7
:1030A00077FD04D00CD006D000201AF470956195FD
:1030B0007F4F0895F6F7909581959F4F0895AA1B2D
:1030C000BB1B51E107C0AA1FBB1FA617B70710F013
:1030D000A61BB70B881F991F5A95A9F78095909545
:1030E000BC01CD0108952F923F924F925F926F9253
:1030F0007F928F929F92AF92BF92CF92DF92EF9288
:10310000FF920F931F93CF93DF93CDB7DEB7CA1B08
:10311000DB0B0FB6F894DEBF0FBECDBF09942A8833
:10312000398848885F846E847D848C849B84AA84DB
:10313000B984C884DF80EE80FD800C811B81AA8168
:10314000B981CE0FD11D0FB6F894DEBF0FBECDBF33
:08315000ED010895F894FFCF92
:103158000000000000000000000102020303030356
:10316800040404040404040405050505050505050F
:1031780005050505050505050606060606060606EF
:1031880006060606060606060606060606060606D7
:1031980006060606060606060707070707070707BF
:1031A80007070707070707070707070707070707A7
:1031B8000707070707070707070707070707070797
:1031C8000707070707070707070707070707070787
:1031D800070707070707070708080808080808086F
:1031E8000808080808080808080808080808080857
:1031F8000808080808080808080808080808080847
:103208000808080808080808080808080808080836
:103218000808080808080808080808080808080826
:103228000808080808080808080808080808080816
:103238000808080808080808080808080808080806
:1032480008080808080808080808080808080808F6
:0832580008080808080808082E
:00000001FF
