:100000000C9434000C9451000C9451000C94510049
:100010000C9451000C9451000C9451000C9451001C
:100020000C9451000C9451000C9451000C9451000C
:100030000C9451000C9451000C9451000C945100FC
:100040000C94D7010C9451000C9414050C9451009D
:100050000C9451000C9453000C9451000C945100DA
:100060000C9451000C94510011241FBECFEFD8E026
:10007000DEBFCDBF11E0A0E0B1E0E8EAFAE002C0E7
:1000800005900D92A630B107D9F713E0A6E0B1E0D4
:1000900001C01D92A23FB107E1F70E94E5020C9456
:1000A00052050C9400001F920F920FB60F9211246C
:1000B0000F900FBE0F901F90189590917A00976047
:1000C00090937A0090917C00906490937C008823B8
:1000D00029F080917C00806280937C0080917A007E
:1000E000806280937A0080917A00806880937A00A1
:1000F00080917A00886080937A00789480917A0069
:10010000806480937A000895EAE7F0E080818F7B35
:1001100080830895982F80917A008F7B80937A0056
:10012000943309F4A6C09533D4F0963309F46CC027
:100130009633DCF1973309F47CC0983351F4809105
:100140007C00887F80937C0080917C008860809315
:100150007C0080917A00806480937A0008959133C6
:1001600009F477C09233A4F09233C9F1933389F73D
:1001700080917C00836080937C0080917C00837FF1
:1001800080937C0080917A00806480937A00089547
:100190009033F9F680917C00807F80937C00809181
:1001A0007A00806480937A00089580917C00816059
:1001B00080937C0080917C008D7F80937C00809177
:1001C0007C00846080937C0080917C00877F80939A
:1001D0007C0080917A00806480937A0008958091F9
:1001E0007C008E7F80937C0080917C008260809375
:1001F0007C0080917C00837F80937C0080917A00DA
:10020000806480937A00089580917C008E7F809333
:100210007C0080917C00866080937C0080917C00D3
:10022000877F80937C0080917A00806480937A003D
:10023000089580917C00876080937C0080917C0091
:10024000877F80937C0080917A00806480937A001D
:10025000089580917C00816080937C0080917C0077
:10026000817F80937C0080917A00806480937A0003
:10027000089580917C008C7FA0CF529A5A9A559A0B
:10028000569A529A539A0E94F30281E00E945D00AE
:100290000E94AB040E9416028AB18AB90E94B6017C
:1002A0000895382F662359F025B181E090E002C00F
:1002B000880F991F3A95E2F7282B25B9089525B1A3
:1002C00081E090E002C0880F991F3A95E2F780958F
:1002D000822385B90895382F662359F02BB181E028
:1002E00090E002C0880F991F3A95E2F7282B2BB9AE
:1002F00008952BB181E090E002C0880F991F3A95D4
:10030000E2F7809582238BB908958234A1F084347A
:1003100009F008952AB181E090E002C0880F991F8A
:100320006A95E2F7982F282B2AB94423B1F08BB1B4
:10033000982B9BB9089524B181E090E002C0880F0A
:10034000991F6A95E2F7982F282B24B9442351F47A
:1003500085B19095982395B908958BB19095982380
:100360009BB9089585B1982B95B9089516BC85B5AC
:10037000826085BDEEE6F0E0808181608083089533
:100380008091D1038B3018F081E080930D014B995F
:1003900002C010920D018091D2038B3018F081E0E1
:1003A00080930E014C9902C010920E0108951F9285
:1003B0000F920FB60F9211248F934B9B0FC0809119
:1003C000D1038F5F8093D1034C990CC01092D2035C
:1003D0008F910F900FBE0F901F9018951092D10320
:1003E0004C9BF4CF8091D2038F5F8093D2038F9187
:1003F0000F900FBE0F901F90189580910D018130C6
:1004000019F01092F10308958091F1038F5F8093AA
:10041000F103813021F08F5F8093F10308950E94F2
:1004200065030E94CF048091F103F5CF1092B900CB
:1004300088E48093B80008958130A9F0813050F0AD
:10044000823061F08091BC0087FFFCCF8091B900C1
:10045000887F089584EA8093BC00F4CF84E9809378
:10046000BC0080E0089584E88093BC00EBCF91E36A
:1004700034EA282F216044E83093BC008091BC000E
:1004800087FFFCCF8091B900887F883399F088304E
:1004900011F08031E1F42093BB004093BC008091C7
:1004A000BC0087FFFCCF8091B900887F803211F0BB
:1004B000883329F4915000F78FEF9FEF089588312A
:1004C00031F48091BB0080930F011092100184E9F8
:1004D0008093BC008FEF9FEF0895FF920F931F93BF
:1004E000282F062FF72E142F91E334EA44E8309397
:1004F000BC008091BC0087FFFCCF8091B900887F51
:10050000883399F0883011F0803121F52093BB00B9
:100510004093BC008091BC0087FFFCCF8091B90064
:10052000887F803211F0883349F4915000F72FEF23
:100530003FEFC9011F910F91FF900895883151F449
:10054000112391F080E68093BB0081E00E941C02A1
:10055000883271F02FEF3FEF84E98093BC00C9012E
:100560001F910F91FF90089580E48093BB00EDCF21
:100570000093BB0081E00E941C02883259F7F09280
:10058000BB0081E00E941C02883221F71123C9F0D0
:1005900080E68093BB0081E00E941C028832D1F685
:1005A0000093BB0081E00E941C02883299F6F09211
:1005B000BB0081E00E941C02883261F621E030E03D
:1005C000CBCF80E48093BB00E6CF0E943D0181E069
:1005D0000E94FC0380E091E00E94E5040E94C001BB
:1005E0000E94FD01FBCF85B5836085BD84B5816028
:1005F00084BD559A569AE1E8F0E08081836080835B
:10060000E0E8F0E0808183608083219A229AE1EB28
:10061000F0E0808184608083E0EBF0E080818160A5
:100620008083539A239A089585B5836085BD84B5E8
:10063000816084BD559A569A089594B5906894BD8A
:1006400087BD089594B5906294BD88BD0895E1E892
:10065000F0E0808183608083E0E8F0E080818A615F
:100660008083219A229A0895E0E8F0E020812068B2
:10067000208390938900809388000895E0E8F0E05B
:1006800020812062208390938B0080938A000895BC
:10069000E1EBF0E0808184608083E0EBF0E080813A
:1006A00081608083539A239A0895E0EBF0E0908173
:1006B000906890838093B3000895E0EBF0E0908120
:1006C000906290838093B40008950E948A0020E095
:1006D00030E040E951E0CA010197F1F72F5F3F4F49
:1006E000283C3105C1F78091790090E09093D003C8
:1006F0008093CF0310920801809108018F3108F098
:100700004AC0209179008091090190910A0130E05E
:100710008C599F4F8217930778F42091790080912C
:10072000090190910A01269596958795820F911D52
:100730009093D0038093CF03209179008091090199
:1007400090910A0130E0845690402817390778F4D8
:10075000209179008091090190910A012695969542
:100760008795820F911D9093D0038093CF03E091E2
:100770000801F0E08091CF039091D003ED52FC4F3F
:100780008083809108018F5F809308018091080128
:100790008F3108F4B6CF10920801809108018F3193
:1007A000C8F4E0910801F0E0ED52FC4F2081809107
:1007B000090190910A01820F911D90930A01809383
:1007C0000901809108018F5F8093080180910801E1
:1007D0008F3138F38091090190910A016EE170E048
:1007E0000E943E0570930A0160930901209109015E
:1007F00030910A01C90108950E948A0020E030E08A
:1008000040E951E0CA010197F1F72F5F3F4F283CC3
:100810003105C1F78091790090E09093D0038093E7
:10082000CF031092080180910801853108F04AC079
:10083000209179008091090190910A0130E08C5952
:100840009F4F8217930778F42091790080910901D6
:1008500090910A01269596958795820F911D909308
:10086000D0038093CF03209179008091090190916A
:100870000A0130E0845690402817390778F4209117
:1008800079008091090190910A01269596958795A6
:10089000820F911D9093D0038093CF03E0910801C4
:1008A000F0E08091CF039091D003ED52FC4F808314
:1008B000809108018F5F8093080180910801853144
:1008C00008F4B6CF10920801809108018531C8F470
:1008D000E0910801F0E0ED52FC4F20818091090188
:1008E00090910A01820F911D90930A018093090152
:1008F000809108018F5F8093080180910801853104
:1009000038F38091090190910A0162E170E00E9440
:100910003E0570930A01609309018091090190914D
:100920000A019093070180930601109208018091BB
:100930000801853178F4E0910801F0E0ED52FC4FB8
:100940001082809108018F5F8093080180910801D7
:10095000853188F308958091C10088618093C1003A
:100960008091C20086608093C20087E68093C400B5
:100970001092C5008091C10080688093C100789476
:100980008091C00085FFFCCF8AE08093C6008091F3
:10099000C00085FFFCCF8DE08093C6000895982F9E
:1009A0008091C00085FFFCCF9093C6000895282F4A
:1009B0008091C00085FFFCCF2093C6008091C000CD
:1009C00085FFFCCF9093C6000895FC019081992388
:1009D00051F08091C00085FFFCCF9093C600319606
:1009E00090819923B1F708958091C1008068809328
:1009F000C100789483B7816083BF889583B78E7F69
:100A000083BFF894E0910B01F0910C01309729F429
:100A10008091CE038D3031F00895EE5EFE4F8081DF
:100A20008D30D1F78AE008951F920F920FB60F9282
:100A300011242F938F939F93EF93FF9380910B013A
:100A400090910C012091C600FC01ED5EFE4F2083C9
:100A5000019690930C0180930B018C5B924021F4E2
:100A600010920C0110920B01FF91EF919F918F91C9
:100A70002F910F900FBE0F901F901895AA1BBB1BB4
:100A800051E107C0AA1FBB1FA617B70710F0A61B8E
:100A9000B70B881F991F5A95A9F780959095BC01AF
:080AA000CD010895F894FFCF89
:060AA80048656C6C6F0054
:00000001FF
