:100000000C9434000C9451000C9451000C94510049
:100010000C9451000C9451000C9451000C9451001C
:100020000C9451000C9451000C9451000C9451000C
:100030000C9451000C9451000C9451000C945100FC
:100040000C9451000C9451000C9451000C945100EC
:100050000C9451000C9453000C9451000C945100DA
:100060000C9451000C94510011241FBECFEFD8E026
:10007000DEBFCDBF12E0A0E0B1E0E2EBF6E102C0EE
:1000800005900D92A830B107D9F712E0A8E0B2E0D0
:1000900001C01D92A431B107E1F70E94D0000C9479
:1000A000570B0C9400001F920F920FB60F92112461
:1000B0000F900FBE0F901F901895AAE7B0E08C919B
:1000C00087608C93ECE7F0E080818064808380819E
:1000D000806280838C9180628C938C9180688C93F9
:1000E0008C9188608C937894EAE7F0E0808180645A
:1000F00080830895382F672B59F025B181E090E077
:1001000002C0880F991F3A95E2F7282B25B9089568
:1001100025B181E090E002C0880F991F3A95E2F77F
:100120008095822385B90895382F672B59F02BB11C
:1001300081E090E002C0880F991F3A95E2F7282BE2
:100140002BB908952BB181E090E002C0880F991F70
:100150003A95E2F7809582238BB90895382F672B63
:1001600059F024B181E090E002C0880F991F3A95C0
:10017000E2F7282B24B9089584B184B90895382F63
:10018000672B59F02AB181E090E002C0880F991FD7
:100190003A95E2F7282B2AB908958AB18AB90895C9
:1001A0000E94EB000E945D00529A539A549A559A0D
:1001B00082E090E061E070E00E9494008FEF90E0B8
:1001C00064E170E00E94240183E090E061E070E06F
:1001D0000E949400F9CFE1E8F0E0808183608083A1
:1001E000E0E8F0E0808181608083219A229A109279
:1001F00009021092080210920B0210920A02109249
:1002000013021092120210920F0210920E0210921C
:1002100011021092100210920D0210920C02089519
:10022000E0E8F0E0208120682083909389008093AB
:1002300088000895E0E8F0E0208120622083909318
:100240008B0080938A0008956F927F928F929F9285
:10025000AF92BF92CF92DF92EF92FF920F931F93D4
:10026000CF93DF936C01009719F421E0C22ED12CBB
:1002700080911202909113028C159D0508F062C0C6
:1002800080918000806880938000C0911202D0919C
:100290001302CC16DD0608F442C080E090E00E9414
:1002A000B2083B014C0120E030E04AE755E40E94EF
:1002B000D4067B018C0190E9A92E91E0B92ED09350
:1002C0008900C09388002196C801B70120E030E082
:1002D00040E85FE30E942E0888230CF499C0C8010F
:1002E000B70120E03FEF4FE757E40E94CE07181612
:1002F0000CF076C0C401B30120E030E040E251E4EC
:100300000E94D4060E94FE04CB01672B29F0F50160
:100310003197F1F70197D9F7CC16DD0680F6D09228
:100320001302C0921202DF91CF911F910F91FF90A3
:10033000EF90DF90CF90BF90AF909F908F907F9085
:100340006F90089580918000806880938000C091B4
:100350001202D0911302CC15DD0508F380E090E085
:100360000E94B2083B014C0120E030E04AE755E42E
:100370000E94D4067B018C0180E9A82E81E0B82E72
:10038000D0938900C09388002197C801B70120E06D
:1003900030E040E85FE30E942E0888230CF43BC065
:1003A000C801B70120E03FEF4FE757E40E94CE07B6
:1003B000181614F5C401B30120E030E040E251E426
:1003C0000E94D4060E94FE04CB01672B29F0F501A0
:1003D0003197F1F70197D9F7CC15DD0588F69FCF56
:1003E000C801B7010E94FE04CB010197F1F7CC16BA
:1003F000DD0608F064CF93CFC801B7010E94FE0468
:10040000CB010197F1F7CC15DD0508F0B9CF87CF07
:1004100061E070E0E9CF61E070E0F2CF6F927F922F
:100420008F929F92AF92BF92CF92DF92EF92FF9204
:100430000F931F93CF93DF935C01809180008068BE
:1004400080938000C0911202D0911302AC16BD06B9
:1004500008F441C080E090E00E94B2083B014C01EA
:1004600020E030E04AE755E40E94D4067B018C018D
:1004700030E9C32E31E0D32ED0938900C093880099
:100480002196C801B70120E030E040E85FE30E9418
:100490002E0888230CF43EC0C801B70120E03FEFCE
:1004A0004FE757E40E94CE07181644F5C401B30184
:1004B00020E030E040E251E40E94D4060E94FE04B5
:1004C000CB01672B29F0F6013197F1F70197D9F7A6
:1004D000AC16BD0688F6B0921302A0921202DF910C
:1004E000CF911F910F91FF90EF90DF90CF90BF9031
:1004F000AF909F908F907F906F900895C801B70143
:100500000E94FE04CB010197F1F7AC16BD0608F07E
:10051000B3CFE1CF61E070E0F5CF6F927F928F9221
:100520009F92AF92BF92CF92DF92EF92FF920F9382
:100530001F93CF93DF936C01009719F451E0C52E00
:10054000D12C80918000806880938000C09112023D
:10055000D0911302CC15DD0508F441C080E090E095
:100560000E94B2083B014C0120E030E04AE755E42C
:100570000E94D4067B018C0140E9A42E41E0B42EF8
:10058000D0938900C09388002197C801B70120E06B
:1005900030E040E85FE30E942E0888230CF43EC060
:1005A000C801B70120E03FEF4FE757E40E94CE07B4
:1005B000181644F5C401B30120E030E040E251E4F4
:1005C0000E94D4060E94FE04CB01672B29F0F5019E
:1005D0003197F1F70197D9F7CC15DD0588F6D09260
:1005E0001302C0921202DF91CF911F910F91FF90E1
:1005F000EF90DF90CF90BF90AF909F908F907F90C3
:100600006F900895C801B7010E94FE04CB010197C5
:10061000F1F7CC15DD0508F0B3CFE1CF61E070E074
:10062000F5CF6F927F928F929F92AF92BF92CF92AF
:10063000DF92EF92FF920F931F93CF93DF936C01A2
:10064000009719F4E1E0CE2ED12C80910C0290910C
:100650000D028C159D0508F062C0809180008062BB
:1006600080938000C0910C02D0910D02CC16DD0663
:1006700008F442C080E090E00E94B2083B014C01C7
:1006800020E030E04AE755E40E94D4067B018C016B
:1006900070E9A72E71E0B72ED0938B00C0938A002B
:1006A0002196C801B70120E030E040E85FE30E94F6
:1006B0002E0888230CF499C0C801B70120E03FEF51
:1006C0004FE757E40E94CE0718160CF076C0C4011D
:1006D000B30120E030E040E251E40E94D4060E94E1
:1006E000FE04CB01672B29F0F5013197F1F7019753
:1006F000D9F7CC16DD0680F6D0920D02C0920C021E
:10070000DF91CF911F910F91FF90EF90DF90CF90ED
:10071000BF90AF909F908F907F906F900895809141
:100720008000806280938000C0910C02D0910D0205
:10073000CC15DD0508F380E090E00E94B2083B0193
:100740004C0120E030E04AE755E40E94D4067B01EA
:100750008C0160E9A62E61E0B62ED0938B00C09389
:100760008A002197C801B70120E030E040E85FE34C
:100770000E942E0888230CF43BC0C801B70120E07A
:100780003FEF4FE757E40E94CE07181614F5C40157
:10079000B30120E030E040E251E40E94D4060E9420
:1007A000FE04CB01672B29F0F5013197F1F7019792
:1007B000D9F7CC15DD0588F69FCFC801B7010E9497
:1007C000FE04CB010197F1F7CC16DD0608F064CFEB
:1007D00093CFC801B7010E94FE04CB010197F1F746
:1007E000CC15DD0508F0B9CF87CF61E070E0E9CF27
:1007F00061E070E0F2CF6F927F928F929F92AF9202
:10080000BF92CF92DF92EF92FF920F931F93CF93FD
:10081000DF935C0180918000806280938000C091B2
:100820000C02D0910D02AC16BD0608F441C080E068
:1008300090E00E94B2083B014C0120E030E04AE722
:1008400055E40E94D4067B018C01F0E9CF2EF1E043
:10085000DF2ED0938B00C0938A002196C801B70188
:1008600020E030E040E85FE30E942E0888230CF48B
:100870003EC0C801B70120E03FEF4FE757E40E94B8
:10088000CE07181644F5C401B30120E030E040E281
:1008900051E40E94D4060E94FE04CB01672B29F08C
:1008A000F6013197F1F70197D9F7AC16BD0688F636
:1008B000B0920D02A0920C02DF91CF911F910F9187
:1008C000FF90EF90DF90CF90BF90AF909F908F9070
:1008D0007F906F900895C801B7010E94FE04CB017C
:1008E0000197F1F7AC16BD0608F0B3CFE1CF61E098
:1008F00070E0F5CF6F927F928F929F92AF92BF92EE
:10090000CF92DF92EF92FF920F931F93CF93DF93DB
:100910006C01009719F4B1E0CB2ED12C80918000AE
:10092000806280938000C0910C02D0910D02CC15A2
:10093000DD0508F441C080E090E00E94B2083B0170
:100940004C0120E030E04AE755E40E94D4067B01E8
:100950008C01A0E9AA2EA1E0BA2ED0938B00C093FF
:100960008A002197C801B70120E030E040E85FE34A
:100970000E942E0888230CF43EC0C801B70120E075
:100980003FEF4FE757E40E94CE07181644F5C40125
:10099000B30120E030E040E251E40E94D4060E941E
:1009A000FE04CB01672B29F0F5013197F1F7019790
:1009B000D9F7CC15DD0588F6D0920D02C0920C0255
:1009C000DF91CF911F910F91FF90EF90DF90CF902B
:1009D000BF90AF909F908F907F906F900895C801C7
:1009E000B7010E94FE04CB010197F1F7CC15DD059C
:1009F00008F0B3CFE1CF61E070E0F5CFEF92FF9266
:100A00000F931F937B018C0120E030E040E05FE416
:100A10000E94FE0788238CF0C801B70120E030E077
:100A200040E05FE40E9476060E945E089B01AC01F4
:100A3000205030404040504806C0C801B7010E94D5
:100A40005E089B01AC01B901CA011F910F91FF9093
:100A5000EF900895A0E0B0E0E0E3F5E00C94200B07
:100A6000DC012B01FA019C91923008F439C1EB01B1
:100A70008881823008F433C1943069F4843009F0FD
:100A80002FC111969C9111978981981709F428C15B
:100A9000A0E0B1E025C1843009F421C18230A9F47D
:100AA000923009F01DC19A01AD0188E0EA01099078
:100AB000AE01E90109929E018150C1F7E2018981ED
:100AC00011969C918923818308C1923009F407C152
:100AD00012962D903C901397EB018A819B8114967E
:100AE000AD90BD90CD90DC901797EC80FD800E818D
:100AF0001F819101281B390BB90137FF04C06627FC
:100B00007727621B730B603271050CF061C01216FF
:100B100013066CF537014801062E04C0969487949D
:100B2000779467940A94D2F721E030E040E050E0F7
:100B300004C0220F331F441F551F6A95D2F721505E
:100B40003040404050402E213F2140235123211569
:100B500031054105510521F021E030E040E050E051
:100B600079018A01E628F728082919293CC0232B96
:100B7000D1F1260E371E35014601062E04C096948B
:100B80008794779467940A94D2F721E030E040E0AC
:100B900050E004C0220F331F441F551F6A95D2F73F
:100BA00021503040404050402A213B214C215D21C2
:100BB000211531054105510521F021E030E040E0EB
:100BC00050E059016A01A628B728C828D9280BC0C7
:100BD000821593052CF01C01AA24BB24650103C0D7
:100BE000EE24FF24870111969C91D20111968C91DD
:100BF000981709F445C0992339F0A80197012A19DB
:100C00003B094C095D0906C0A60195012E193F0953
:100C1000400B510B57FD08C011823382228224837E
:100C20003583468357831DC081E0818333822282CE
:100C300088279927DC01821B930BA40BB50B8483B7
:100C40009583A683B7830DC0220F331F441F551F02
:100C500024833583468357838281938101979383CD
:100C600082832481358146815781DA01C901019748
:100C7000A109B1098F5F9F4FAF4FBF4328F30BC04E
:100C8000918333822282EA0CFB1C0C1D1D1DE48221
:100C9000F5820683178383E0808324813581468132
:100CA000578157FF1AC0C901AA2797FDA095BA2FEF
:100CB00081709070A070B0705695479537952795C4
:100CC000822B932BA42BB52B84839583A683B78388
:100CD00082819381019693838283DF0101C0D201D7
:100CE000CD01CDB7DEB7E2E10C943C0BA0E2B0E061
:100CF000ECE7F6E00C942C0B69837A838B839C835E
:100D00002D833E834F835887E9E0EE2EF12CEC0EC5
:100D1000FD1ECE010196B7010E944F0A8E010F5EA3
:100D20001F4FCE010596B8010E944F0A8A8991E0B3
:100D300089278A8BC701B801AE01475E5F4F0E94C9
:100D40002A050E947A09A096E6E00C94480BA0E2DE
:100D5000B0E0EDEAF6E00C942C0B69837A838B8388
:100D60009C832D833E834F835887F9E0EF2EF12C2F
:100D7000EC0EFD1ECE010196B7010E944F0A8E01B6
:100D80000F5E1F4FCE010596B8010E944F0AC701A2
:100D9000B801AE01475E5F4F0E942A050E947A09A2
:100DA000A096E6E00C94480BA0E2B0E0EAEDF6E095
:100DB0000C94200B69837A838B839C832D833E83E1
:100DC0004F835887CE010196BE01675F7F4F0E9417
:100DD0004F0ACE010596BE016F5E7F4F0E944F0AFB
:100DE0009985923088F089898230C8F0943019F45E
:100DF000823051F404C0843029F4923081F480E0D0
:100E000091E0C6C0923049F420E09A858A8998130F
:100E100021E02A87CE010996BBC0823049F420E048
:100E20009A858A89981321E02A8BCE014196B0C019
:100E30002D843E844F8458886D887E888F88988C56
:100E4000EE24FF248701AA24BB24650140E050E082
:100E500060E070E0E0E0F0E0C10181709070892B0B
:100E6000E9F0E60CF71C081D191D9A01AB012A0DCB
:100E70003B1D4C1D5D1D80E090E0A0E0B0E0E6145D
:100E8000F7040805190520F481E090E0A0E0B0E047
:100E9000BA01A901480F591F6A1F7B1FAA0CBB1C6E
:100EA000CC1CDD1C97FE08C081E090E0A0E0B0E023
:100EB000A82AB92ACA2ADB2A3196E032F10549F07C
:100EC000660C771C881C991C569447943794279479
:100ED000C3CFFA85EA892B893C898B859C85280FAD
:100EE000391F2E5F3F4F17C0CA0181709070892B48
:100EF00061F016950795F794E79480E090E0A0E004
:100F0000B0E8E82AF92A0A2B1B2B769567955795A6
:100F100047952F5F3F4F77FDE7CF0CC0440F551F1C
:100F2000661F771F17FD4160EE0CFF1C001F111F8D
:100F300021503040403090E0590790E0690790E43C
:100F4000790760F32B8F3C8FDB01CA018F7790709C
:100F5000A070B07080349105A105B10561F447FD22
:100F60000AC0E114F1040105110529F0405C5F4F4E
:100F70006F4F7F4F40781A8EFE1711F081E08A8FF5
:100F80004D8F5E8F6F8F78A383E0898FCE01499656
:100F90000E947A09A096E2E10C943C0BA8E1B0E033
:100FA000E4EDF7E00C942C0B69837A838B839C83AC
:100FB0002D833E834F83588789E0E82EF12CEC0E79
:100FC000FD1ECE010196B7010E944F0A8E010F5EF1
:100FD0001F4FCE010596B8010E944F0A89858230C5
:100FE00040F08989823028F0C701B8010E94C70A01
:100FF00001C08FEF6896E6E00C94480BA8E1B0E0E2
:10100000E4E0F8E00C942C0B69837A838B839C8357
:101010002D833E834F83588789E0E82EF12CEC0E18
:10102000FD1ECE010196B7010E944F0A8E010F5E90
:101030001F4FCE010596B8010E944F0A8985823064
:1010400040F08989823028F0C701B8010E94C70AA0
:1010500001C08FEF6896E6E00C94480BA8E1B0E081
:10106000E4E3F8E00C942C0B69837A838B839C83F4
:101070002D833E834F83588789E0E82EF12CEC0EB8
:10108000FD1ECE010196B7010E944F0A8E010F5E30
:101090001F4FCE010596B8010E944F0A8985823004
:1010A00040F08989823028F0C701B8010E94C70A40
:1010B00001C081E06896E6E00C94480BACE0B0E03B
:1010C000E4E6F8E00C94300B69837A838B839C838D
:1010D000CE010196BE016B5F7F4F0E944F0A8D814A
:1010E000823061F1823050F1843021F48E81882386
:1010F00051F12EC02F81388537FD20C06E812F31F0
:1011000031051CF06623F9F023C08EE190E0821BCC
:10111000930B29853A854B855C8504C05695479588
:10112000379527958A95D2F76623B1F0509540956B
:10113000309521953F4F4F4F5F4F0EC020E030E07C
:1011400040E050E009C02FEF3FEF4FEF5FE704C0F2
:1011500020E030E040E050E8B901CA012C96E2E01E
:101160000C944C0BA8E0B0E0E8EBF8E00C94280BF2
:101170007B018C01611571058105910519F482E0EF
:10118000898360C083E089838EE1C82ED12CDC8204
:10119000CB82ED82FE820F831887C801B7010E94BF
:1011A0002B09FC013197F7FF3BC0222733272E1B69
:1011B0003F0B57016801022E04C0D694C794B79420
:1011C000A7940A94D2F740E050E060E070E081E03C
:1011D00090E0A0E0B0E004C0880F991FAA1FBB1FD9
:1011E0002A95D2F70197A109B1098E219F21A02349
:1011F000B1230097A105B10521F041E050E060E086
:1012000070E04A295B296C297D294D835E836F83B9
:1012100078878EE190E08E1B9F0B9C838B8312C09E
:10122000309781F00E2E04C0EE0CFF1C001F111F22
:101230000A94D2F7ED82FE820F831887CE1ADF0A56
:10124000DC82CB821A82CE0101960E947A0928960E
:10125000EAE00C94440BEF92FF920F931F937B01F3
:101260008C0180E0E81680E0F80681E0080780E065
:10127000180788F48FEFE816F1040105110531F025
:1012800028F088E090E0A0E0B0E017C080E090E0B7
:10129000A0E0B0E012C080E0E81680E0F80680E050
:1012A000080781E0180728F088E190E0A0E0B0E0AE
:1012B00004C080E190E0A0E0B0E020E230E040E057
:1012C00050E0281B390B4A0B5B0B04C016950795A1
:1012D000F794E7948A95D2F7F701E85FFE4F808193
:1012E000281B310941095109C9011F910F91FF9034
:1012F000EF900895DF92EF92FF920F931F93FC01FE
:10130000E480F58006811781D1808081823048F4A5
:1013100080E090E0A0E1B0E0E82AF92A0A2B1B2B3C
:10132000A5C0843009F49FC0823021F4EE24FF244C
:10133000870105C0E114F1040105110519F4E0E08D
:10134000F0E096C0628173819FEF623879070CF0FC
:101350005BC022E83FEF261B370B2A3131052CF00A
:1013600020E030E040E050E02AC0B801A701022EA2
:1013700004C076956795579547950A94D2F781E012
:1013800090E0A0E0B0E004C0880F991FAA1FBB1F27
:101390002A95D2F70197A109B1098E219F21A02397
:1013A000B1230097A105B10521F081E090E0A0E014
:1013B000B0E09A01AB01282B392B4A2B5B2BDA01C9
:1013C000C9018F779070A070B07080349105A1052D
:1013D000B10539F427FF09C0205C3F4F4F4F5F4FE5
:1013E00004C0215C3F4F4F4F5F4FE0E0F0E0203002
:1013F000A0E03A07A0E04A07A0E45A0710F0E1E0B5
:10140000F0E079018A0127C06038710564F5FB01BD
:10141000E158FF4FD801C7018F779070A070B0706E
:1014200080349105A105B10539F4E7FE0DC080E4D3
:1014300090E0A0E0B0E004C08FE390E0A0E0B0E076
:10144000E80EF91E0A1F1B1F17FF05C0169507950A
:10145000F794E794319687E016950795F794E7940B
:101460008A95D1F705C0EE24FF248701EFEFF0E065
:101470006E2F679566276795902F9F77D794DD2409
:10148000D7948E2F8695492F462B582F5D29B7016B
:10149000CA011F910F91FF90EF90DF900895FC011A
:1014A000DB01408151812281622F6F7770E0221F22
:1014B0002227221F9381892F880F822B282F30E02B
:1014C000991F9927991F11969C9311972115310502
:1014D000A9F5411551056105710511F482E037C088
:1014E00082E89FEF13969C938E9312979A01AB011B
:1014F00067E0220F331F441F551F6A95D1F783E021
:101500008C930DC0220F331F441F551F12968D91CF
:101510009C911397019713969C938E93129720306A
:1015200080E0380780E0480780E4580758F31496B5
:101530002D933D934D935C93179708952F3F31055D
:1015400079F4411551056105710519F484E08C9316
:10155000089564FF03C081E08C9312C01C9210C0F8
:101560002F57304013963C932E93129783E08C9321
:1015700087E0440F551F661F771F8A95D1F7706467
:1015800014964D935D936D937C93179708951F93D5
:10159000DC01FB019C91923008F447C080818230CD
:1015A00008F443C0943051F411961C91843099F59D
:1015B0008181682F70E0611B71093FC0843021F088
:1015C000923031F48230B9F18181882389F12DC0C4
:1015D00011961C9111978230F1F081811817D9F47E
:1015E00012962D913C9113978281938182179307D4
:1015F00094F028173907BCF014968D919D910D90A9
:10160000BC91A02D24813581468157812817390747
:101610004A075B0718F4112341F00AC082179307A9
:10162000A407B50740F4112319F061E070E005C08C
:101630006FEF7FEF02C060E070E0CB011F91089573
:101640002F923F924F925F926F927F928F929F92D2
:10165000AF92BF92CF92DF92EF92FF920F931F93C0
:10166000CF93DF93CDB7DEB7CA1BDB0B0FB6F89471
:10167000DEBF0FBECDBF09942A88398848885F84B1
:101680006E847D848C849B84AA84B984C884DF8022
:10169000EE80FD800C811B81AA81B981CE0FD11D06
:1016A0000FB6F894DEBF0FBECDBFED010895F894DC
:0216B000FFCF6A
:1016B2000000000000000000000102020303030317
:1016C20004040404040404040505050505050505D0
:1016D20005050505050505050606060606060606B0
:1016E2000606060606060606060606060606060698
:1016F2000606060606060606070707070707070780
:101702000707070707070707070707070707070767
:101712000707070707070707070707070707070757
:101722000707070707070707070707070707070747
:10173200070707070707070708080808080808082F
:101742000808080808080808080808080808080817
:101752000808080808080808080808080808080807
:1017620008080808080808080808080808080808F7
:1017720008080808080808080808080808080808E7
:1017820008080808080808080808080808080808D7
:1017920008080808080808080808080808080808C7
:1017A20008080808080808080808080808080808B7
:0817B2000808080808080808EF
:00000001FF
