:100000000C9434000C9446000C9446000C9446006A
:100010000C9446000C9446000C9446000C94460048
:100020000C9446000C9446000C9446000C94460038
:100030000C9446000C9446000C9446000C94460028
:100040000C94EE010C9446000C9470050C94460040
:100050000C9446000C9448000C9446000C94460006
:100060000C9446000C94460011241FBECFEFD8E03C
:10007000DEBFCDBF13E0A0E0B1E001C01D92AC3EF9
:10008000B107E1F70E941E030C94AE050C9400002A
:100090001F920F920FB60F9211240F900FBE0F9068
:1000A0001F90189590917A00976090937A009091A4
:1000B0007C00906490937C00882329F080917C00E0
:1000C000806280937C0080917A00806280937A00C5
:1000D00080917A00806880937A0080917A008860AD
:1000E00080937A00789480917A00806480937A007B
:1000F0000895EAE7F0E080818F7B80830895982F50
:1001000080917A008F7B80937A00943309F4A6C0A3
:100110009533D4F0963309F46CC09633DCF1973301
:1001200009F47CC0983351F480917C00887F8093DF
:100130007C0080917C00886080937C0080917A00B4
:10014000806480937A000895913309F477C09233E4
:10015000A4F09233C9F1933389F780917C008360D6
:1001600080937C0080917C00837F80937C008091D1
:100170007A00806480937A0008959033F9F6809134
:100180007C00807F80937C0080917A0080648093E3
:100190007A00089580917C00816080937C0080913A
:1001A0007C008D7F80937C0080917C0084608093B4
:1001B0007C0080917C00877F80937C0080917A0016
:1001C000806480937A00089580917C008E7F809374
:1001D0007C0080917C00826080937C0080917C0018
:1001E000837F80937C0080917A00806480937A0082
:1001F000089580917C008E7F80937C0080917C00AC
:10020000866080937C0080917C00877F80937C0057
:1002100080917A00806480937A00089580917C00B8
:10022000876080937C0080917C00877F80937C0036
:1002300080917A00806480937A00089580917C0098
:10024000816080937C0080917C00817F80937C0022
:1002500080917A00806480937A00089580917C0078
:100260008C7FA0CF529A5A9A559A569A529A539A7C
:100270000E94250381E00E9452000E94DD040E943A
:100280004F020E94AB018AB18AB90895382F6623C4
:1002900059F025B181E090E002C0880F991F3A958E
:1002A000E2F7282B25B9089525B181E090E002C03E
:1002B000880F991F3A95E2F78095822385B90895B2
:1002C000382F662359F02BB181E090E002C0880FEF
:1002D000991F3A95E2F7282B2BB908952BB181E0AD
:1002E00090E002C0880F991F3A95E2F7809582232B
:1002F0008BB908958234A1F0843409F008952AB1AD
:1003000081E090E002C0880F991F6A95E2F7982F6C
:10031000282B2AB94423B1F08BB1982B9BB90895AF
:1003200024B181E090E002C0880F991F6A95E2F73E
:10033000982F282B24B9442351F485B19095982304
:1003400095B908958BB1909598239BB9089585B17F
:10035000982B95B9089516BC85B5826085BDEEE6EB
:10036000F0E080818160808308958091CB038630A6
:1003700070F04B9B30C081E0809307018091CB03EC
:100380008B3F28F04B9B24C082E0809307014B9960
:1003900002C0109207018091CC03863070F04C9B14
:1003A00014C081E0809308018091CC038B3F28F03A
:1003B0004C9B08C082E0809308014C9902C01092C7
:1003C000080108951092CC03F5CF1092CC03E9CF29
:1003D0001092CB03D9CF1092CB03CDCF1F920F92A7
:1003E0000FB60F9211248F934B9B0FC08091CB03BC
:1003F0008F5F8093CB034C990CC01092CC038F91EC
:100400000F900FBE0F901F9018951092CB034C9B2E
:10041000F4CF8091CC038F5F8093CC038F910F90AA
:100420000FBE0F901F9018958091CB03882369F021
:100430001092EB0388E50E9401058091EB038F5F2A
:100440008093EB038230B0F308951092EB0308958C
:1004500080910701813049F0559A5D9A8091080199
:100460008130B9F0569A5E9A08958091CB03882323
:1004700099F01092EB0388E50E9401058091EB034F
:100480008F5F8093EB038230B0F38091080181305D
:1004900049F7569A5E9808951092EB03DFCF1092B9
:1004A000B90088E48093B80008958130A9F08130C4
:1004B00050F0823061F08091BC0087FFFCCF8091CA
:1004C000B900887F089584EA8093BC00F4CF84E962
:1004D0008093BC0080E0089584E88093BC00EBCF5B
:1004E00091E334EA282F216044E83093BC008091E6
:1004F000BC0087FFFCCF8091B900887F883399F0DA
:10050000883011F08031E1F42093BB004093BC00AF
:100510008091BC0087FFFCCF8091B900887F80323A
:1005200011F0883329F4915000F78FEF9FEF089571
:10053000883131F48091BB008093090110920A0147
:1005400084E98093BC008FEF9FEF0895FF920F9393
:100550001F93282F062FF72E142F91E334EA44E837
:100560003093BC008091BC0087FFFCCF8091B90024
:10057000887F883399F0883011F0803121F52093FD
:10058000BB004093BC008091BC0087FFFCCF8091F2
:10059000B900887F803211F0883349F4915000F718
:1005A0002FEF3FEFC9011F910F91FF900895883100
:1005B00051F4112391F080E68093BB0081E00E940A
:1005C0005502883271F02FEF3FEF84E98093BC0031
:1005D000C9011F910F91FF90089580E48093BB00A3
:1005E000EDCF0093BB0081E00E945502883259F79D
:1005F000F092BB0081E00E945502883221F711235E
:10060000C9F080E68093BB0081E00E9455028832E9
:10061000D1F60093BB0081E00E945502883299F622
:10062000F092BB0081E00E945502883261F621E021
:1006300030E0CBCF80E48093BB00E6CF0E94320154
:100640000E94B5010E942802FBCF85B5836085BD5D
:1006500084B5816084BD559A569AE1E8F0E08081C6
:1006600083608083E0E8F0E0808183608083219A6A
:10067000229AE1EBF0E0808184608083E0EBF0E09F
:10068000808181608083539A239A089585B5836021
:1006900085BD84B5816084BD559A569A089594B5F8
:1006A000906894BD87BD089594B5906294BD88BD4F
:1006B0000895E1E8F0E0808183608083E0E8F0E085
:1006C00080818A618083219A229A0895E0E8F0E08F
:1006D000208120682083909389008093880008956A
:1006E000E0E8F0E020812062208390938B008093EB
:1006F0008A000895E1EBF0E0808184608083E0EB84
:10070000F0E0808181608083539A239A0895E0EB22
:10071000F0E09081906890838093B3000895E0EBBF
:10072000F0E09081906290838093B40008950E94DD
:100730007F0020E030E040E951E0CA010197F1F785
:100740002F5F3F4F283C3105C1F78091790090E041
:100750009093CA038093C903109202018091020111
:100760008F3108F04AC02091790080910301909167
:10077000040130E08C599F4F8217930778F4209141
:1007800079008091030190910401269596958795B3
:10079000820F911D9093CA038093C9032091790021
:1007A000809103019091040130E084569040281715
:1007B000390778F420917900809103019091040128
:1007C000269596958795820F911D9093CA038093E5
:1007D000C903E0910201F0E08091C9039091CA033E
:1007E000E353FC4F8083809102018F5F809302016D
:1007F000809102018F3108F4B6CF109202018091EE
:1008000002018F31C8F4E0910201F0E0E353FC4FA4
:1008100020818091030190910401820F911D90939A
:10082000040180930301809102018F5F8093020194
:10083000809102018F3138F380910301909104017E
:100840006EE170E00E949A057093040160930301C9
:100850002091030130910401C90108950E947F0095
:1008600020E030E040E951E0CA010197F1F72F5F45
:100870003F4F283C3105C1F78091790090E090937B
:10088000CA038093C903109202018091020185314D
:1008900008F04AC0209179008091030190910401F1
:1008A00030E08C599F4F8217930778F4209179009C
:1008B0008091030190910401269596958795820F6A
:1008C000911D9093CA038093C90320917900809170
:1008D00003019091040130E08456904028173907B5
:1008E00078F420917900809103019091040126957C
:1008F00096958795820F911D9093CA038093C903A3
:10090000E0910201F0E08091C9039091CA03E353A2
:10091000FC4F8083809102018F5F80930201809160
:100920000201853108F4B6CF1092020180910201D4
:100930008531C8F4E0910201F0E0E353FC4F2081DF
:100940008091030190910401820F911D9093040105
:1009500080930301809102018F5F80930201809157
:100960000201853138F3809103019091040162E125
:1009700070E00E949A0570930401609303018091D6
:100980000301909104019093010180930001109262
:10099000020180910201853178F4E0910201F0E0DA
:1009A000E353FC4F1082809102018F5F809302011C
:1009B00080910201853188F308958091C10088619A
:1009C0008093C1008091C20086608093C20087E658
:1009D0008093C4001092C5008091C100806880930C
:1009E000C10078948091C00085FFFCCF8AE080939D
:1009F000C6008091C00085FFFCCF8DE08093C600CB
:100A00000895982F8091C00085FFFCCF9093C60079
:100A10008091C00085FFFCCF8AE08093C600809162
:100A2000C00085FFFCCF8DE08093C6000895282F7D
:100A30008091C00085FFFCCF2093C6008091C0004C
:100A400085FFFCCF9093C6008091C00085FFFCCF4E
:100A50008AE08093C6008091C00085FFFCCF8DE0C6
:100A60008093C6000895FC019081992351F08091F4
:100A7000C00085FFFCCF9093C600319690819923EA
:100A8000B1F78091C00085FFFCCF8AE08093C6005B
:100A90008091C00085FFFCCF8DE08093C600089553
:100AA0008091C10080688093C100789483B7816091
:100AB00083BF889583B78E7F83BFF894E09105014B
:100AC000F0910601309729F48091C8038D3031F000
:100AD0000895E45FFE4F80818D30D1F78AE008955C
:100AE0001F920F920FB60F9211242F938F939F9303
:100AF000EF93FF9380910501909106012091C6002C
:100B0000FC01E35FFE4F20830196909306018093E2
:100B100005018C5B924021F41092060110920501B0
:100B2000FF91EF919F918F912F910F900FBE0F909A
:100B30001F901895AA1BBB1B51E107C0AA1FBB1F22
:100B4000A617B70710F0A61BB70B881F991F5A9559
:100B5000A9F780959095BC01CD010895F894FFCF39
:00000001FF
