:100000000C9434000C9451000C9451000C94510049
:100010000C9451000C9451000C9451000C9451001C
:100020000C9451000C9451000C9451000C9451000C
:100030000C9451000C9451000C9451000C945100FC
:100040000C94CD010C9451000C9425040C94510097
:100050000C9451000C9451000C9451000C945100DC
:100060000C9451000C94510011241FBECFEFD8E026
:10007000DEBFCDBF11E0A0E0B1E0E2EAF8E002C0EF
:1000800005900D92A630B107D9F713E0A6E0B1E0D4
:1000900001C01D92AB3EB107E1F70E94D6020C945D
:1000A0004F040C94000090917A00976090937A002E
:1000B00090917C00906490937C00882329F080913B
:1000C0007C00806280937C0080917A0080628093C3
:1000D0007A0080917A00806880937A0080917A001B
:1000E000886080937A00789480917A00806480930D
:1000F0007A000895EAE7F0E080818F7B808308959D
:10010000982F80917A008F7B80937A00943309F442
:10011000A6C09533D4F0963309F46CC09633DCF165
:10012000973309F47CC0983351F480917C00887F28
:1001300080937C0080917C00886080937C0080911B
:100140007A00806480937A000895913309F477C02F
:100150009233A4F09233C9F1933389F780917C00F4
:10016000836080937C0080917C00837F80937C00FF
:1001700080917A00806480937A0008959033F9F634
:1001800080917C00807F80937C0080917A008064E5
:1001900080937A00089580917C00816080937C0038
:1001A00080917C008D7F80937C0080917C008460B6
:1001B00080937C0080917C00877F80937C0080917D
:1001C0007A00806480937A00089580917C008E7F0D
:1001D00080937C0080917C00826080937C00809181
:1001E0007C00837F80937C0080917A008064809380
:1001F0007A00089580917C008E7F80937C008091AE
:100200007C00866080937C0080917C00877F809357
:100210007C0080917A00806480937A0008958091B8
:100220007C00876080937C0080917C00877F809336
:100230007C0080917A00806480937A000895809198
:100240007C00816080937C0080917C00817F809322
:100250007C0080917A00806480937A000895809178
:100260007C008C7FA0CF529A5A9A559A569A529AED
:10027000539A0E94E10281E00E9453000E94BC0355
:100280000E9407028AB18AB90E94AC010895382FF2
:10029000662359F025B181E090E002C0880F991FD4
:1002A0003A95E2F7282B25B9089525B181E090E031
:1002B00002C0880F991F3A95E2F78095822385B98D
:1002C0000895382F662359F02BB181E090E002C0E9
:1002D000880F991F3A95E2F7282B2BB908952BB177
:1002E00081E090E002C0880F991F3A95E2F780956F
:1002F00082238BB908958234A1F0843409F00895E3
:100300002AB181E090E002C0880F991F6A95E2F758
:10031000982F282B2AB94423B1F08BB1982B9BB985
:10032000089524B181E090E002C0880F991F6A957A
:10033000E2F7982F282B24B9442351F485B19095E6
:10034000982395B908958BB1909598239BB90895FA
:1003500085B1982B95B9089516BC85B5826085BD89
:10036000EEE6F0E080818160808308958091D00383
:100370008B3018F081E080930D014B9902C01092F0
:100380000D018091D1038B3018F081E080930E0134
:100390004C9902C010920E0108951F920F920FB651
:1003A0000F9211248F934B9B0FC08091D0038F5FCE
:1003B0008093D0034C990CC01092D1038F910F9071
:1003C0000FBE0F901F9018951092D0034C9BF4CF46
:1003D0008091D1038F5F8093D1038F910F900FBED7
:1003E0000F901F90189580910D01813019F0109297
:1003F000EA03089581E00E9453030E94E003809184
:10040000EA038823B9F38F5F8093EA03089510927B
:10041000B90088E48093B80008958130A9F0813054
:1004200050F0823061F08091BC0087FFFCCF80915A
:10043000B900887F089584EA8093BC00F4CF84E9F2
:100440008093BC0080E0089584E88093BC00EBCFEB
:1004500091E334EA282F216044E83093BC00809176
:10046000BC0087FFFCCF8091B900887F883399F06A
:10047000883011F08031E1F42093BB004093BC0040
:100480008091BC0087FFFCCF8091B900887F8032CB
:1004900011F0883329F4915000F78FEF9FEF089502
:1004A000883131F48091BB0080930F0110921001CC
:1004B00084E98093BC008FEF9FEF0895FF920F9324
:1004C0001F93282F062FF72E142F91E334EA44E8C8
:1004D0003093BC008091BC0087FFFCCF8091B900B5
:1004E000887F883399F0883011F0803121F520938E
:1004F000BB004093BC008091BC0087FFFCCF809183
:10050000B900887F803211F0883349F4915000F7A8
:100510002FEF3FEFC9011F910F91FF900895883190
:1005200051F4112391F080E68093BB0081E00E949A
:100530000D02883271F02FEF3FEF84E98093BC0009
:10054000C9011F910F91FF90089580E48093BB0033
:10055000EDCF0093BB0081E00E940D02883259F775
:10056000F092BB0081E00E940D02883221F7112336
:10057000C9F080E68093BB0081E00E940D028832C2
:10058000D1F60093BB0081E00E940D02883299F6FB
:10059000F092BB0081E00E940D02883261F621E0FA
:1005A00030E0CBCF80E48093BB00E6CF0E943301E4
:1005B00080E091E00E94F6030E94B6010E94F301E0
:1005C000FBCF85B5836085BD84B5816084BD559AB8
:1005D000569AE1E8F0E0808183608083E0E8F0E013
:1005E000808183608083219A229AE1EBF0E0808110
:1005F00084608083E0EBF0E0808181608083539AA7
:10060000239A089585B5836085BD84B5816084BDD6
:10061000559A569A089594B5906894BD87BD0895EB
:1006200094B5906294BD88BD0895E1E8F0E08081C2
:1006300083608083E0E8F0E080818A618083219A92
:10064000229A0895E0E8F0E02081206820839093CA
:100650008900809388000895E0E8F0E0208120621E
:10066000208390938B0080938A000895E1EBF0E063
:10067000808184608083E0EBF0E080818160808312
:10068000539A239A0895E0EBF0E09081906890836C
:100690008093B3000895E0EBF0E090819062908346
:1006A0008093B400089580910901869580930C0190
:1006B000809179008093CF03109208018091080106
:1006C0008131B8F5209179008091090130E090E006
:1006D0008C599F4F8217930744F480917900909131
:1006E0000C018695890F8093CF032091790080912A
:1006F000090130E090E0845690402817390744F40F
:100700008091790090910C018695890F8093CF0399
:10071000E0910801F0E08091CF03EE52FC4F80831E
:10072000809108018F5F80930801809108018131D9
:1007300048F210920801809108018131A0F4E09103
:100740000801F0E0EE52FC4F808190910901890F81
:1007500080930901809108018F5F80930801809147
:100760000801813160F38091090182958F70809337
:1007700009018091090108958091C10088618093E9
:10078000C1008091C20086608093C20087E680939A
:10079000C4001092C5008091C10080688093C100A0
:1007A00078948091C00085FFFCCF8AE08093C600DA
:1007B0008091C00085FFFCCF8DE08093C600089536
:1007C000982F8091C00085FFFCCF9093C6000895BC
:1007D000282F8091C00085FFFCCF2093C600809118
:1007E000C00085FFFCCF9093C6000895FC01908166
:1007F000992351F08091C00085FFFCCF9093C600F3
:10080000319690819923B1F708958091C100806855
:100810008093C100789483B7816083BF889583B744
:100820008E7F83BFF894E0910A01F0910B0130971D
:1008300029F48091CE038D3031F00895EE5EFE4FA5
:1008400080818D30D1F78AE008951F920F920FB604
:100850000F9211242F938F939F93EF93FF93809187
:100860000A0190910B012091C600FC01ED5EFE4F44
:100870002083019690930B0180930A018C5B924038
:1008800021F410920B0110920A01FF91EF919F91B8
:100890008F912F910F900FBE0F901F901895F89485
:0208A000FFCF88
:0608A20048656C6C6F005C
:00000001FF
