:100000000C9434000C9451000C9451000C94510049
:100010000C9451000C9451000C9451000C9451001C
:100020000C9451000C9451000C9451000C9451000C
:100030000C9451000C94F3000C9451000C9451005A
:100040000C9451000C9451000C9451000C945100EC
:100050000C9451000C9453000C9451000C945100DA
:100060000C9451000C94510011241FBECFEFD8E026
:10007000DEBFCDBF11E0A0E0B1E0E2EBF2E002C0F4
:1000800005900D92A030B107D9F711E0A0E0B1E0E2
:1000900001C01D92A530B107E1F70E949E000C94AB
:1000A00057010C9400001F920F920FB60F9211246B
:1000B000DF93CF93CDB7DEB7CF91DF910F900FBE17
:1000C0000F901F901895DF93CF93CDB7DEB7AAE7B7
:1000D000B0E0EAE7F0E0808187608C93ACE7B0E0C5
:1000E000ECE7F0E0808180648C93ACE7B0E0ECE773
:1000F000F0E0808180628C93AAE7B0E0EAE7F0E06C
:10010000808180628C93AAE7B0E0EAE7F0E080812A
:1001100080688C93AAE7B0E0EAE7F0E0808188602D
:100120008C937894AAE7B0E0EAE7F0E080818064FD
:100130008C9381E090E0CF91DF910895DF93CF938E
:10014000CDB7DEB70E94AD008FEF9FEF60E070E0AB
:1001500041E050E00E94DB00F7CFDF93CF93CDB7B3
:10016000DEB7E9E8F0E01082A4E2B0E0E4E2F0E01B
:10017000808182608C93A4E2B0E0E4E2F0E08081D0
:1001800084608C93E0E8F0E081E88083E1E8F0E0CF
:1001900081E080831092040110920301AFE6B0E089
:1001A000EFE6F0E0808181608C93789481E090E0CC
:1001B000CF91DF910895DF93CF9300D000D000D08E
:1001C000CDB7DEB79A8389837C836B835E834D834F
:1001D00081E090E026960FB6F894DEBF0FBECDBF4B
:1001E000CF91DF9108951F920F920FB60F921124B5
:1001F0002F933F938F939F93EF93FF93DF93CF932F
:1002000000D0CDB7DEB780910001282F30E03A83CF
:10021000298389819A81009731F029813A8121309F
:100220003105C9F02EC08091010190910201019623
:10023000909302018093010120910101309102010C
:10024000809103019091040128173907D1F481E0CE
:100250008093000116C080910101909102010197E5
:1002600090930201809301012091010130910201DC
:1002700080910301909104012817390711F410921D
:100280000001E8E8F0E08091010190910201808393
:100290000F900F90CF91DF91FF91EF919F918F91F0
:1002A0003F912F910F900FBE0F901F901895F894CB
:0202B000FFCF7E
:00000001FF
