:100000000C9434000C9451000C9451000C94510049
:100010000C9451000C9451000C9451000C9451001C
:100020000C9451000C9451000C9451000C9451000C
:100030000C9451000C9451000C9451000C945100FC
:100040000C9463030C9451000C94C0090C9451005F
:100050000C9451000C9453000C9451000C945100DA
:100060000C9451000C94510011241FBECFEFD8E026
:10007000DEBFCDBF11E0A0E0B1E0E6E4FFE102C0E9
:1000800005900D92AE30B107D9F713E0AEE0B1E0C4
:1000900001C01D92AA3FB107E1F70E9433050C94FD
:1000A000A10F0C9400001F920F920FB60F92112413
:1000B000DF93CF93CDB7DEB7CF91DF910F900FBE17
:1000C0000F901F901895DF93CF930F92CDB7DEB7A7
:1000D0008983AAE7B0E0EAE7F0E0808187608C934B
:1000E000ACE7B0E0ECE7F0E0808180648C9389813C
:1000F000882339F0ACE7B0E0ECE7F0E08081806283
:100100008C93AAE7B0E0EAE7F0E0808180628C930C
:10011000AAE7B0E0EAE7F0E0808180688C93AAE784
:10012000B0E0EAE7F0E0808188608C937894AAE7F9
:10013000B0E0EAE7F0E0808180648C930F90CF918B
:10014000DF910895DF93CF93CDB7DEB7AAE7B0E094
:10015000EAE7F0E080818F7B8C93CF91DF91089567
:10016000DF93CF9300D00F92CDB7DEB78983AAE794
:10017000B0E0EAE7F0E080818F7B8C938981282FC3
:10018000332727FD30953B832A838A819B818433E3
:10019000910509F476C02A813B8125333105E4F4C9
:1001A0008A819B8181339105C1F12A813B81223370
:1001B000310534F48A819B818033910531F1C7C0C8
:1001C0002A813B8122333105B9F18A819B818333B6
:1001D000910509F447C0BBC02A813B812633310514
:1001E00009F482C08A819B81863391050CF45FC03B
:1001F0002A813B812733310509F48CC08A819B8198
:100200008833910509F495C0A2C0ACE7B0E0ECE7F3
:10021000F0E08081807F8C939AC0ACE7B0E0ECE79F
:10022000F0E0808181608C93ACE7B0E0ECE7F0E037
:100230008081817F8C938BC0ACE7B0E0ECE7F0E08D
:1002400080818E7F8C93ACE7B0E0ECE7F0E08081BA
:1002500082608C93ACE7B0E0ECE7F0E08081837FD4
:100260008C9375C0ACE7B0E0ECE7F0E08081836090
:100270008C93ACE7B0E0ECE7F0E08081837F8C9377
:1002800066C0ACE7B0E0ECE7F0E080818C7F8C9357
:10029000ACE7B0E0ECE7F0E0808184608C93ACE701
:1002A000B0E0ECE7F0E08081877F8C9350C0ACE752
:1002B000B0E0ECE7F0E0808181608C93ACE7B0E0E7
:1002C000ECE7F0E080818D7F8C93ACE7B0E0ECE769
:1002D000F0E0808184608C93ACE7B0E0ECE7F0E084
:1002E0008081877F8C9333C0ACE7B0E0ECE7F0E02F
:1002F00080818E7F8C93ACE7B0E0ECE7F0E080810A
:1003000086608C93ACE7B0E0ECE7F0E08081877F1B
:100310008C931DC0ACE7B0E0ECE7F0E08081876033
:100320008C93ACE7B0E0ECE7F0E08081877F8C93C2
:100330000EC0ACE7B0E0ECE7F0E08081887F8C9302
:10034000ACE7B0E0ECE7F0E0808188608C93AAE74E
:10035000B0E0EAE7F0E0808180648C930F900F902A
:100360000F90CF91DF910895DF93CF93CDB7DEB794
:10037000AAE2B0E0EAE2F0E0808184608C93ABE234
:10038000B0E0EBE2F0E0808184608C93AAE2B0E020
:10039000EAE2F0E0808180628C93AAE2B0E0EAE2D7
:1003A000F0E0808180648C93AAE2B0E0EAE2F0E0C1
:1003B000808184608C93AAE2B0E0EAE2F0E0808180
:1003C00088608C930E94450581E00E9463000E9432
:1003D000E1080E949D03AAE2B0E0EAE2F0E0808139
:1003E0008C930E94F302CF91DF910895DF93CF9316
:1003F00000D00F92CDB7DEB79A8389836B838B8150
:1004000091E08927882391F0A5E2B0E0E5E2F0E0F1
:100410008081282F81E090E0098002C0880F991F19
:100420000A94E2F7809582238C9310C0A5E2B0E095
:10043000E5E2F0E08081282F81E090E0098002C0B1
:10044000880F991F0A94E2F7822B8C930F900F90DC
:100450000F90CF91DF910895DF93CF9300D00F924B
:10046000CDB7DEB79A8389836B838B8191E089272F
:10047000882391F0ABE2B0E0EBE2F0E08081282F3E
:1004800081E090E0098002C0880F991F0A94E2F78A
:10049000809582238C9310C0ABE2B0E0EBE2F0E0F9
:1004A0008081282F81E090E0098002C0880F991F89
:1004B0000A94E2F7822B8C930F900F900F90CF91BC
:1004C000DF910895DF93CF9300D000D000D0CDB757
:1004D000DEB789837B836A834C838981282F332706
:1004E00027FD30953E832D838D819E818234910539
:1004F000E1F12D813E812434310509F06BC0AAE27F
:10050000B0E0EAE2F0E08081282F81E090E00A800C
:1005100002C0880F991F0A94E2F7822B8C938C817A
:10052000882389F0ABE2B0E0EBE2F0E08081282F95
:1005300081E090E00A8002C0880F991F0A94E2F7D8
:10054000822B8C9347C0ABE2B0E0EBE2F0E080811D
:10055000282F81E090E00A8002C0880F991F0A943A
:10056000E2F7809582238C9335C0A4E2B0E0E4E208
:10057000F0E08081282F81E090E00A8002C0880F9F
:10058000991F0A94E2F7822B8C938C81882389F03F
:10059000A5E2B0E0E5E2F0E08081282F81E090E084
:1005A0000A8002C0880F991F0A94E2F7822B8C936D
:1005B00011C0A5E2B0E0E5E2F0E08081282F81E003
:1005C00090E00A8002C0880F991F0A94E2F7809594
:1005D00082238C9326960FB6F894DEBF0FBECDBF54
:1005E000CF91DF910895DF93CF93CDB7DEB7E6E4E7
:1005F000F0E01082A5E4B0E0E5E4F0E08081826004
:100600008C93AEE6B0E0EEE6F0E0808181608C9302
:10061000CF91DF910895DF93CF93CDB7DEB780916F
:10062000D9038B3018F081E080931501E9E2F0E006
:100630008081882F90E088709070009711F410925C
:1006400015018091DA038B3018F081E08093160158
:10065000E9E2F0E08081882F90E08071907000974F
:1006600011F410921601CF91DF910895DF93CF938B
:10067000CDB7DEB780911501813001F51092F903F5
:100680000AC081E00E94C4070E941F098091F903FB
:100690008F5F8093F9038091F903823090F381E0BA
:1006A0000E94C4070E941F098091F9038823B9F3AF
:1006B0008091F9038F5F8093F90302C01092F903D0
:1006C000CF91DF9108951F920F920FB60F921124D0
:1006D0008F939F93EF93FF93DF93CF93CDB7DEB7C5
:1006E000E9E2F0E08081882F90E0887090700097B8
:1006F00031F08091D9038F5F8093D90302C01092AB
:10070000D903E9E2F0E08081882F90E08071907059
:10071000009731F08091DA038F5F8093DA0302C093
:100720001092DA03CF91DF91FF91EF919F918F911A
:100730000F900FBE0F901F901895DF93CF93CDB7FA
:10074000DEB7E9EBF0E01082E8EBF0E088E48083CC
:10075000CF91DF910895DF93CF9300D000D0CDB734
:10076000DEB789838981282F30E03C832B838B81FE
:100770009C818130910571F02B813C8122303105C3
:1007800071F08B819C81009781F4ECEBF0E084EABE
:1007900080830BC0ECEBF0E084E8808306C0ECEBD8
:1007A000F0E084E980831A820BC0ECEBF0E08081FA
:1007B0008823DCF7E9EBF0E08081982F987F9A831B
:1007C0008A810F900F900F900F90CF91DF91089535
:1007D000DF93CF93CDB7DEB72B970FB6F894DEBF7C
:1007E0000FBECDBF9D838C837F836E8348871B8222
:1007F0008FEF89831B868B81823310F021E02B875A
:100800008B818F5F8B833B85332341F08981282F38
:10081000332727FD30953A87298786C080E00E94DC
:10082000AB038A838A81883329F38A81883021F057
:100830008A81803109F06DC0EBEBF0E08C81808320
:1008400081E00E94AB038A838A81803299F28A8197
:10085000883381F28A81883109F05BC088858823DA
:1008600029F0EBEBF0E080E6808304C0EBEBF0E0F6
:1008700080E4808381E00E94AB038A838A8188328E
:1008800009F047C0EBEBF0E08E81808381E00E94AD
:10089000AB038A838A818832E1F5EBEBF0E08E814D
:1008A0009F81892F9927808381E00E94AB038A83EF
:1008B0008A81883271F58885882329F0EBEBF0E096
:1008C00080E6808304C0EBEBF0E080E4808381E08D
:1008D0000E94AB038A838A818832D9F4EBEBF0E083
:1008E0008E81808381E00E94AB038A838A81883273
:1008F00081F4EBEBF0E08E819F81892F9927808333
:1009000081E00E94AB038A838A81883211F481E0FE
:10091000898382E00E94AB038A838981282F332751
:1009200027FD30953A87298789859A852B960FB6BA
:10093000F894DEBF0FBECDBFCF91DF910895DF9356
:10094000CF93CDB7DEB72D970FB6F894DEBF0FBEAD
:10095000CDBF9A87898718868FEF8E831D868885FD
:10096000823310F021E02D8788858F5F88873D8551
:10097000332341F08E81282F332727FD30953C8784
:100980002B8766C080E00E94AB038F838F81883302
:1009900029F38F81883021F08F81803109F04DC09B
:1009A000EBEBF0E089858160808381E00E94AB03FE
:1009B0008F838F81803291F28F81883379F28F819A
:1009C0008831D9F5EBEBF0E080818D838D81882F24
:1009D00090E090931801809317018F81883269F518
:1009E000EBEBF0E080818C838F81883231F5EBEB8B
:1009F000F0E080818B838C81282F30E08B81882FE1
:100A000090E0892F990F990B822B932B90931A01C9
:100A1000809319018F81883281F4EBEBF0E08081C3
:100A20008A838F81883249F4EBEBF0E080818983FF
:100A30008F81883211F481E08E8382E00E94AB03C3
:100A40008F838E81282F332727FD30953C872B8776
:100A50008B859C852D960FB6F894DEBF0FBECDBF5B
:100A6000CF91DF910895DF93CF93CDB7DEB70E948A
:100A7000B40181E00E948F0680E091E00E945F094E
:100A80000E940B030E943603FBCFDF93CF93CDB7B9
:100A9000DEB7A5E4B0E0E5E4F0E0808183608C930C
:100AA000A4E4B0E0E4E4F0E0808181608C93AAE209
:100AB000B0E0EAE2F0E0808180628C93AAE2B0E0EC
:100AC000EAE2F0E0808180648C93A1E8B0E0E1E8A4
:100AD000F0E0808183608C93A0E8B0E0E0E8F0E093
:100AE000808183608C93A4E2B0E0E4E2F0E0808156
:100AF00082608C93A4E2B0E0E4E2F0E08081846064
:100B00008C93A1EBB0E0E1EBF0E0808184608C930A
:100B1000A0EBB0E0E0EBF0E0808181608C93AAE292
:100B2000B0E0EAE2F0E0808188608C93A4E2B0E07B
:100B3000E4E2F0E0808188608C93CF91DF910895AA
:100B4000DF93CF93CDB7DEB7A5E4B0E0E5E4F0E006
:100B5000808183608C93A4E4B0E0E4E4F0E08081E1
:100B600081608C93AAE2B0E0EAE2F0E080818062EA
:100B70008C93AAE2B0E0EAE2F0E0808180648C939A
:100B8000CF91DF910895DF93CF930F92CDB7DEB76A
:100B90008983A4E4B0E0E4E4F0E0808180688C9391
:100BA000E7E4F0E0898180830F90CF91DF91089591
:100BB000DF93CF930F92CDB7DEB78983A4E4B0E083
:100BC000E4E4F0E0808180628C93E8E4F0E08981E5
:100BD00080830F90CF91DF910895DF93CF93CDB7AE
:100BE000DEB7A1E8B0E0E1E8F0E0808183608C93BB
:100BF000A0E8B0E0E0E8F0E080818A618C93A4E2B4
:100C0000B0E0E4E2F0E0808182608C93A4E2B0E0A6
:100C1000E4E2F0E0808184608C93CF91DF910895CD
:100C2000DF93CF9300D0CDB7DEB79A838983A0E856
:100C3000B0E0E0E8F0E0808180688C93E8E8F0E0E4
:100C400089819A81918380830F900F90CF91DF915A
:100C50000895DF93CF9300D0CDB7DEB79A83898311
:100C6000A0E8B0E0E0E8F0E0808180628C93EAE800
:100C7000F0E089819A81918380830F900F90CF91CA
:100C8000DF910895DF93CF93CDB7DEB7A1EBB0E04E
:100C9000E1EBF0E0808184608C93A0EBB0E0E0EBCE
:100CA000F0E0808181608C93AAE2B0E0EAE2F0E0BB
:100CB000808188608C93A4E2B0E0E4E2F0E080817F
:100CC00088608C93CF91DF910895DF93CF930F923B
:100CD000CDB7DEB78983A0EBB0E0E0EBF0E0808138
:100CE00080688C93E3EBF0E0898180830F90CF9153
:100CF000DF910895DF93CF930F92CDB7DEB789834D
:100D0000A0EBB0E0E0EBF0E0808180628C93E4EB5C
:100D1000F0E0898180830F90CF91DF910895DF9378
:100D2000CF93CDB7DEB72F970FB6F894DEBF0FBEC7
:100D3000CDBF8F878F850E94B00080E090E0A0EA51
:100D4000B1E48B879C87AD87BE876B857C858D855D
:100D50009E8520E030E04AE755E40E94D20BDC019A
:100D6000CB018F839887A987BA876F81788589851A
:100D70009A8520E030E040E85FE30E942C0D882354
:100D80002CF481E090E09E838D833FC06F81788555
:100D900089859A8520E03FEF4FE757E40E94CC0C0D
:100DA00018164CF56B857C858D859E8520E030E09E
:100DB00040E251E40E94D20BDC01CB01BC01CD0129
:100DC0000E94FC09DC01CB019E838D830FC080E96A
:100DD00091E09C838B838B819C810197F1F79C83AD
:100DE0008B838D819E8101979E838D838D819E81D2
:100DF000009769F714C06F81788589859A850E946C
:100E0000FC09DC01CB019E838D838D819E819A83B9
:100E1000898389819A810197F1F79A838983E9E728
:100E2000F0E08081882F90E09093D8038093D703DF
:100E30001092100151C0E9E7F0E08081282F30E0E6
:100E400080911101909112018C599F4F8217930745
:100E500090F4E9E7F0E080818695282F30E08091DA
:100E600011019091120196958795820F931F90938F
:100E7000D8038093D703E9E7F0E08081282F30E0A2
:100E800080911101909112018456904028173907E2
:100E900090F4E9E7F0E080818695282F30E080919A
:100EA00011019091120196958795820F931F90934F
:100EB000D8038093D70380911001282F30E08091D0
:100EC000D7039091D803F901E552FC4F80838091BC
:100ED00010018F5F8093100180911001853108F41B
:100EE000AACF1092100119C080911001882F90E0B4
:100EF000FC01E552FC4F8081282F30E080911101E8
:100F000090911201820F931F90931201809311010F
:100F1000809110018F5F80931001809110018531C5
:100F200018F3809111019091120122E130E0B90192
:100F30000E94560FCB019093120180931101809172
:100F400011019091120190930F0180930E01109264
:100F500010010DC080911001882F90E0FC01E55236
:100F6000FC4F1082809110018F5F8093100180915F
:100F70001001853178F32F960FB6F894DEBF0FBEBF
:100F8000CDBFCF91DF910895DF93CF93CDB7DEB77B
:100F90002F970FB6F894DEBF0FBECDBF8F878F851A
:100FA0000E94B00080E090E0A0EAB1E48B879C87CB
:100FB000AD87BE876B857C858D859E8520E030E082
:100FC0004AE755E40E94D20BDC01CB018F8398875E
:100FD000A987BA876F81788589859A8520E030E076
:100FE00040E85FE30E942C0D88232CF481E090E020
:100FF0009E838D833FC06F81788589859A8520E0A7
:101000003FEF4FE757E40E94CC0C18164CF56B8568
:101010007C858D859E8520E030E040E251E40E9491
:10102000D20BDC01CB01BC01CD010E94FC09DC012B
:10103000CB019E838D830FC080E991E09C838B83DD
:101040008B819C810197F1F79C838B838D819E819D
:1010500001979E838D838D819E81009769F714C0CF
:101060006F81788589859A850E94FC09DC01CB0116
:101070009E838D838D819E819A83898389819A81C4
:101080000197F1F79A838983E9E7F0E08081882F5F
:1010900090E09093D8038093D7031092100151C031
:1010A000E9E7F0E08081282F30E0809111019091F4
:1010B00012018C599F4F8217930790F4E9E7F0E0F3
:1010C00080818695282F30E0809111019091120146
:1010D00096958795820F931F9093D8038093D7039B
:1010E000E9E7F0E08081282F30E0809111019091B4
:1010F0001201845690402817390790F4E9E7F0E090
:1011000080818695282F30E0809111019091120105
:1011100096958795820F931F9093D8038093D7035A
:1011200080911001282F30E08091D7039091D8034F
:10113000F901E552FC4F8083809110018F5F80930D
:101140001001809110018F3108F4AACF1092100184
:1011500019C080911001882F90E0FC01E552FC4FEE
:101160008081282F30E08091110190911201820F2F
:10117000931F9093120180931101809110018F5F52
:1011800080931001809110018F3118F3809111012B
:10119000909112012EE130E0B9010E94560FCB016F
:1011A000909312018093110180911101909112018D
:1011B0002F960FB6F894DEBF0FBECDBFCF91DF9153
:1011C0000895DF93CF93CDB7DEB7A1ECB0E0E1ECAB
:1011D000F0E0808188618C93A2ECB0E0E2ECF0E07A
:1011E000808186608C93E4ECF0E087E68083E5EC18
:1011F000F0E01082A1ECB0E0E1ECF0E080818068EA
:101200008C937894E0ECF0E08081882F90E08072FD
:1012100090700097B9F3E6ECF0E08AE08083E0ECB0
:10122000F0E08081882F90E0807290700097B9F391
:10123000E6ECF0E08DE08083CF91DF910895DF93BD
:10124000CF930F92CDB7DEB78983E0ECF0E08081D9
:10125000882F90E0807290700097B9F3E6ECF0E090
:10126000898180830F90CF91DF910895DF93CF9391
:1012700000D0CDB7DEB79A838983E0ECF0E08081BF
:10128000882F90E0807290700097B9F3E6ECF0E060
:1012900089818083E0ECF0E08081882F90E080728B
:1012A00090700097B9F3E6ECF0E089819A81892F7C
:1012B000992780830F900F90CF91DF910895DF934E
:1012C000CF9300D0CDB7DEB79A83898314C0E0EC0A
:1012D000F0E08081882F90E0807290700097B9F3E1
:1012E000A6ECB0E0E981FA8180818C9389819A81B2
:1012F00001969A838983E981FA818081882339F76D
:101300000F900F90CF91DF910895DF93CF930F92BD
:10131000CDB7DEB7A1ECB0E0E1ECF0E08081806811
:101320008C937894A3E5B0E0E3E5F0E08081816000
:101330008C938895A3E5B0E0E3E5F0E080818E7FB3
:101340008C93F8948091130190911401009721F4EB
:101350008091D60389830AC0809113019091140172
:101360000197FC01E55EFE4F8081898389818D3084
:1013700011F48AE0898389810F90CF91DF910895DC
:101380001F920F920FB60F9211242F933F938F93BA
:101390009F93EF93FF93DF93CF93CDB7DEB7209169
:1013A000130130911401E6ECF0E08081F901E55E73
:1013B000FE4F8083809113019091140101969093C8
:1013C000140180931301809113019091140122E084
:1013D0008C3B920721F41092140110921301CF91CB
:1013E000DF91FF91EF919F918F913F912F910F90FE
:1013F0000FBE0F901F901895EF92FF920F931F93BF
:101400007B018C0120E030E040E05FE40E94FC0CB6
:1014100088238CF0C801B70120E030E040E05FE4B1
:101420000E94740B0E945C0D9B01AC012050304067
:101430004040504806C0C801B7010E945C0D9B01A6
:10144000AC01B901CA011F910F91FF90EF9008956F
:10145000A0E0B0E0EEE2FAE00C946A0FDC012B01B0
:10146000FA019C91923008F439C1EB0188818230F5
:1014700008F433C1943069F4843009F02FC1119617
:101480009C9111978981981709F428C1A6E0B1E0D1
:1014900025C1843009F421C18230A9F4923009F0C9
:1014A0001DC19A01AD0188E0EA010990AE01E90190
:1014B00009929E018150C1F7E201898111969C91A8
:1014C0008923818308C1923009F407C112962D90B7
:1014D0003C901397EB018A819B811496AD90BD904F
:1014E000CD90DC901797EC80FD800E811F819101DB
:1014F000281B390BB90137FF04C066277727621B09
:10150000730B603271050CF061C0121613066CF596
:1015100037014801062E04C0969487947794679407
:101520000A94D2F721E030E040E050E004C0220FFE
:10153000331F441F551F6A95D2F721503040404059
:1015400050402E213F2140235123211531054105D3
:10155000510521F021E030E040E050E079018A01BE
:10156000E628F728082919293CC0232BD1F1260E9B
:10157000371E35014601062E04C096948794779451
:1015800067940A94D2F721E030E040E050E004C0D4
:10159000220F331F441F551F6A95D2F72150304048
:1015A000404050402A213B214C215D21211531052D
:1015B0004105510521F021E030E040E050E05901C3
:1015C0006A01A628B728C828D9280BC08215930518
:1015D0002CF01C01AA24BB24650103C0EE24FF24C7
:1015E000870111969C91D20111968C91981709F45C
:1015F00045C0992339F0A80197012A193B094C09E4
:101600005D0906C0A60195012E193F09400B510B3B
:1016100057FD08C01182338222822483358346839A
:1016200057831DC081E081833382228288279927D6
:10163000DC01821B930BA40BB50B84839583A683DB
:10164000B7830DC0220F331F441F551F24833583DA
:101650004683578382819381019793838283248178
:10166000358146815781DA01C9010197A109B10984
:101670008F5F9F4FAF4FBF4328F30BC091833382DF
:101680002282EA0CFB1C0C1D1D1DE482F5820683E0
:10169000178383E08083248135814681578157FFFA
:1016A0001AC0C901AA2797FDA095BA2F8170907022
:1016B000A070B0705695479537952795822B932B40
:1016C000A42BB52B84839583A683B78382819381D2
:1016D000019693838283DF0101C0D201CD01CDB792
:1016E000DEB7E2E10C94860FA0E2B0E0EAE7FBE0AF
:1016F0000C94760F69837A838B839C832D833E833E
:101700004F835887E9E0EE2EF12CEC0EFD1ECE0142
:101710000196B7010E94850E8E010F5E1F4FCE010C
:101720000596B8010E94850E8A8991E089278A8BE7
:10173000C701B801AE01475E5F4F0E94280A0E94B0
:10174000B00DA096E6E00C94920FA0E2B0E0EBEAB8
:10175000FBE00C94760F69837A838B839C832D83C3
:101760003E834F835887F9E0EF2EF12CEC0EFD1EDF
:10177000CE010196B7010E94850E8E010F5E1F4FAC
:10178000CE010596B8010E94850EC701B801AE01D1
:10179000475E5F4F0E94280A0E94B00DA096E6E0C7
:1017A0000C94920FA0E2B0E0E8EDFBE00C946A0F1D
:1017B00069837A838B839C832D833E834F835887F1
:1017C000CE010196BE01675F7F4F0E94850ECE015C
:1017D0000596BE016F5E7F4F0E94850E99859230FF
:1017E00088F089898230C8F0943019F4823051F43D
:1017F00004C0843029F4923081F486E091E0C6C0C0
:10180000923049F420E09A858A89981321E02A874A
:10181000CE010996BBC0823049F420E09A858A89BE
:10182000981321E02A8BCE014196B0C02D843E84CE
:101830004F8458886D887E888F88988CEE24FF248A
:101840008701AA24BB24650140E050E060E070E01D
:10185000E0E0F0E0C10181709070892BE9F0E60CC6
:10186000F71C081D191D9A01AB012A0D3B1D4C1DCB
:101870005D1D80E090E0A0E0B0E0E614F70408050C
:10188000190520F481E090E0A0E0B0E0BA01A901E0
:10189000480F591F6A1F7B1FAA0CBB1CCC1CDD1CE8
:1018A00097FE08C081E090E0A0E0B0E0A82AB92A45
:1018B000CA2ADB2A3196E032F10549F0660C771C22
:1018C000881C991C5694479437942794C3CFFA8563
:1018D000EA892B893C898B859C85280F391F2E5FCF
:1018E0003F4F17C0CA0181709070892B61F0169527
:1018F0000795F794E79480E090E0A0E0B0E8E82A4C
:10190000F92A0A2B1B2B76956795579547952F5FDC
:101910003F4F77FDE7CF0CC0440F551F661F771F61
:1019200017FD4160EE0CFF1C001F111F21503040BD
:10193000403090E0590790E0690790E4790760F340
:101940002B8F3C8FDB01CA018F779070A070B07035
:1019500080349105A105B10561F447FD0AC0E11489
:10196000F1040105110529F0405C5F4F6F4F7F4F77
:1019700040781A8EFE1711F081E08A8F4D8F5E8FAE
:101980006F8F78A383E0898FCE0149960E94B00DB6
:10199000A096E2E10C94860FA8E1B0E0E2EDFCE055
:1019A0000C94760F69837A838B839C832D833E838B
:1019B0004F83588789E0E82EF12CEC0EFD1ECE01F6
:1019C0000196B7010E94850E8E010F5E1F4FCE015A
:1019D0000596B8010E94850E8985823040F089897C
:1019E000823028F0C701B8010E94FD0E01C08FEFC0
:1019F0006896E6E00C94920FA8E1B0E0E2E0FDE02A
:101A00000C94760F69837A838B839C832D833E832A
:101A10004F83588789E0E82EF12CEC0EFD1ECE0195
:101A20000196B7010E94850E8E010F5E1F4FCE01F9
:101A30000596B8010E94850E8985823040F089891B
:101A4000823028F0C701B8010E94FD0E01C08FEF5F
:101A50006896E6E00C94920FA8E1B0E0E2E3FDE0C6
:101A60000C94760F69837A838B839C832D833E83CA
:101A70004F83588789E0E82EF12CEC0EFD1ECE0135
:101A80000196B7010E94850E8E010F5E1F4FCE0199
:101A90000596B8010E94850E8985823040F08989BB
:101AA000823028F0C701B8010E94FD0E01C081E01C
:101AB0006896E6E00C94920FACE0B0E0E2E6FDE060
:101AC0000C947A0F69837A838B839C83CE01019671
:101AD000BE016B5F7F4F0E94850E8D81823061F168
:101AE000823050F1843021F48E81882351F12EC050
:101AF0002F81388537FD20C06E812F3131051CF0D4
:101B00006623F9F023C08EE190E0821B930B2985B8
:101B10003A854B855C8504C0569547953795279542
:101B20008A95D2F76623B1F050954095309521956E
:101B30003F4F4F4F5F4F0EC020E030E040E050E09D
:101B400009C02FEF3FEF4FEF5FE704C020E030E028
:101B500040E050E8B901CA012C96E2E00C94960FDF
:101B6000DF92EF92FF920F931F93FC01E480F580C8
:101B700006811781D1808081823048F480E090E036
:101B8000A0E1B0E0E82AF92A0A2B1B2BA5C084307B
:101B900009F49FC0823021F4EE24FF24870105C0A0
:101BA000E114F1040105110519F4E0E0F0E096C03C
:101BB000628173819FEF623879070CF05BC022E885
:101BC0003FEF261B370B2A3131052CF020E030E0A7
:101BD00040E050E02AC0B801A701022E04C076956B
:101BE0006795579547950A94D2F781E090E0A0E079
:101BF000B0E004C0880F991FAA1FBB1F2A95D2F717
:101C00000197A109B1098E219F21A023B12300973B
:101C1000A105B10521F081E090E0A0E0B0E09A01DB
:101C2000AB01282B392B4A2B5B2BDA01C9018F77AB
:101C30009070A070B07080349105A105B10539F4A1
:101C400027FF09C0205C3F4F4F4F5F4F04C0215C0E
:101C50003F4F4F4F5F4FE0E0F0E02030A0E03A0709
:101C6000A0E04A07A0E45A0710F0E1E0F0E07901B3
:101C70008A0127C06038710564F5FB01E158FF4F08
:101C8000D801C7018F779070A070B0708034910533
:101C9000A105B10539F4E7FE0DC080E490E0A0E0B5
:101CA000B0E004C08FE390E0A0E0B0E0E80EF91EE1
:101CB0000A1F1B1F17FF05C016950795F794E79499
:101CC000319687E016950795F794E7948A95D1F7B2
:101CD00005C0EE24FF248701EFEFF0E06E2F67953B
:101CE00066276795902F9F77D794DD24D7948E2F02
:101CF0008695492F462B582F5D29B701CA011F91A0
:101D00000F91FF90EF90DF900895FC01DB0140817F
:101D100051812281622F6F7770E0221F2227221FBC
:101D20009381892F880F822B282F30E0991F9927C4
:101D3000991F11969C93119721153105A9F541150D
:101D400051056105710511F482E037C082E89FEF0B
:101D500013969C938E9312979A01AB0167E0220F22
:101D6000331F441F551F6A95D1F783E08C930DC034
:101D7000220F331F441F551F12968D919C9113976C
:101D8000019713969C938E931297203080E038072A
:101D900080E0480780E4580758F314962D933D934C
:101DA0004D935C93179708952F3F310579F44115B2
:101DB00051056105710519F484E08C93089564FF61
:101DC00003C081E08C9312C01C9210C02F5730408A
:101DD00013963C932E93129783E08C9387E0440FE5
:101DE000551F661F771F8A95D1F7706414964D931F
:101DF0005D936D937C93179708951F93DC01FB010E
:101E00009C91923008F447C08081823008F443C02E
:101E1000943051F411961C91843099F58181682F8A
:101E200070E0611B71093FC0843021F0923031F4C1
:101E30008230B9F18181882389F12DC011961C91DE
:101E400011978230F1F081811817D9F412962D91F3
:101E50003C911397828193818217930794F02817FE
:101E60003907BCF014968D919D910D90BC91A02DD9
:101E70002481358146815781281739074A075B0736
:101E800018F4112341F00AC082179307A407B5077D
:101E900040F4112319F061E070E005C06FEF7FEFAF
:101EA00002C060E070E0CB011F910895AA1BBB1B2C
:101EB00051E107C0AA1FBB1FA617B70710F0A61B4A
:101EC000B70B881F991F5A95A9F780959095BC016B
:101ED000CD0108952F923F924F925F926F927F9221
:101EE0008F929F92AF92BF92CF92DF92EF92FF922A
:101EF0000F931F93CF93DF93CDB7DEB7CA1BDB0BD6
:101F00000FB6F894DEBF0FBECDBF09942A8839887A
:101F100048885F846E847D848C849B84AA84B98481
:101F2000C884DF80EE80FD800C811B81AA81B9818D
:101F3000CE0FD11D0FB6F894DEBF0FBECDBFED01A1
:061F40000895F894FFCFA4
:0E1F460048656C6C6F00000000000000000099
:00000001FF
