:100000000C9434000C9451000C9451000C94510049
:100010000C9451000C9451000C9451000C9451001C
:100020000C9451000C9451000C9451000C9451000C
:100030000C9451000C9451000C9451000C945100FC
:100040000C9451000C9451000C9451000C945100EC
:100050000C9451000C9453000C9451000C945100DA
:100060000C9451000C94510011241FBECFEFD8E026
:10007000DEBFCDBF12E0A0E0B1E0EEE1F5E402C0EA
:1000800005900D92A830B107D9F712E0A8E0B2E0D0
:1000900001C01D92AE35B107E1F70E94E5060C9450
:1000A0008D220C9400001F920F920FB60F92112414
:1000B000DF93CF93CDB7DEB7CF91DF910F900FBE17
:1000C0000F901F901895DF93CF93CDB7DEB7AAE7B7
:1000D000B0E0EAE7F0E0808187608C93ACE7B0E0C5
:1000E000ECE7F0E0808180648C93ACE7B0E0ECE773
:1000F000F0E0808180628C93AAE7B0E0EAE7F0E06C
:10010000808180628C93AAE7B0E0EAE7F0E080812A
:1001100080688C93AAE7B0E0EAE7F0E0808188602D
:100120008C937894AAE7B0E0EAE7F0E080818064FD
:100130008C93CF91DF910895DF93CF93CDB7DEB746
:10014000EAE7F0E0AAE7B0E08C918083CF91DF91FD
:100150000895DF93CF9300D000D0CDB7DEB79A8358
:100160008983EAE7F0E0AAE7B0E08C918083898197
:100170009A819C838B838B819C818430910509F4C7
:1001800056C08B819C8185309105D4F48B819C81F4
:1001900081309105A1F18B819C81823091052CF4F5
:1001A0008B819C81009721F169C08B819C81823079
:1001B000910569F18B819C818330910581F15EC04D
:1001C0008B819C818630910509F441C08B819C8193
:1001D00086309105A4F18B819C818730910509F4CB
:1001E0003EC08B819C818830910509F440C046C097
:1001F000ECE7F0E0ACE7B0E08C9180833FC0ACE787
:10020000B0E0ECE7F0E0808181608C9337C0ACE730
:10021000B0E0ECE7F0E0808182608C932FC0ACE727
:10022000B0E0ECE7F0E0808183608C9327C0ACE71E
:10023000B0E0ECE7F0E0808184608C931FC0ACE715
:10024000B0E0ECE7F0E0808185608C9317C0ACE70C
:10025000B0E0ECE7F0E0808186608C930FC0ACE703
:10026000B0E0ECE7F0E0808187608C9307C0ACE7FA
:10027000B0E0ECE7F0E0808188608C93AAE7B0E022
:10028000EAE7F0E0808180648C930F900F900F90EC
:100290000F90CF91DF910895DF93CF93CDB7DEB765
:1002A00084E463E070E041E050E00E946C06CF918E
:1002B000DF910895DF93CF93CDB7DEB784E463E099
:1002C00070E040E050E00E946C06CF91DF9108950D
:1002D000DF93CF93CDB7DEB76C970FB6F894DEBF40
:1002E0000FBECDBF84E463E070E041E050E00E94C7
:1002F0006C0680E090E0AAEFB3E4898F9A8FAB8F11
:10030000BC8F698D7A8D8B8D9C8D20E030E04AE723
:1003100055E40E94E31DDC01CB018D8B9E8BAF8BDE
:10032000B88F6D897E898F89988D20E030E040E814
:100330005FE30E943D1F88232CF481E090E09C8BBA
:100340008B8B3FC06D897E898F89988D20E03FEF30
:100350004FE757E40E94DD1E18164CF5698D7A8D23
:100360008B8D9C8D20E030E040E251E40E94E31D43
:10037000DC01CB01BC01CD010E940D1CDC01CB01D5
:100380009C8B8B8B0FC080E991E09A8B898B89893C
:100390009A890197F1F79A8B898B8B899C890197B0
:1003A0009C8B8B8B8B899C89009769F714C06D8916
:1003B0007E898F89988D0E940D1CDC01CB019C8B5E
:1003C0008B8B8B899C89988B8F878F8598890197D8
:1003D000F1F7988B8F8784E463E070E040E050E0B1
:1003E0000E946C0680E090E0AAEFB3E48B879C87C4
:1003F000AD87BE876B857C858D859E8520E030E04E
:100400004AE755E40E94E31DDC01CB018F83988706
:10041000A987BA876F81788589859A8520E030E041
:1004200040E85FE30E943D1F88232CF481E090E0C8
:100430009E838D833FC06F81788589859A8520E072
:100440003FEF4FE757E40E94DD1E18164CF56B8511
:100450007C858D859E8520E030E040E251E40E945D
:10046000E31DDC01CB01BC01CD010E940D1CDC01B0
:10047000CB019E838D830FC080E991E09C838B83A9
:100480008B819C810197F1F79C838B838D819E8169
:1004900001979E838D838D819E81009769F714C09B
:1004A0006F81788589859A850E940D1CDC01CB01BE
:1004B0009E838D838D819E819A83898389819A8190
:1004C0000197F1F79A8389836C960FB6F894DEBF93
:1004D0000FBECDBFCF91DF910895DF93CF93CDB7FE
:1004E000DEB7AAE2B0E0EAE2F0E0808184608C93BB
:1004F000AAE2B0E0EAE2F0E0808188608C93AAE2B0
:10050000B0E0EAE2F0E0808180618C93AAE2B0E0A2
:10051000EAE2F0E0808180628C9384E462E070E043
:1005200041E050E00E946C060E94E20D0E946300D0
:100530000E944C01CF91DF9108950F931F93DF9399
:10054000CF93CDB7DEB7C455D0400FB6F894DEBF19
:100550000FBECDBF8FEF90E06AE070E00E944F0EBB
:10056000FE01EF5AFF4F80E090E0AAEFB3E48083F2
:100570009183A283B3838E01035B1F4FFE01EF5A69
:10058000FF4F608171818281938120E030E04AE7F2
:1005900055E40E94E31DDC01CB01F80180839183C7
:1005A000A283B383FE01E35BFF4F6081718182818F
:1005B000938120E030E040E85FE30E943D1F882304
:1005C00044F4FE01E55BFF4F81E090E0918380837E
:1005D00064C0FE01E35BFF4F608171818281938182
:1005E00020E03FEF4FE757E40E94DD1E18160CF0A5
:1005F00043C0FE01EF5AFF4F608171818281938178
:1006000020E030E040E251E40E94E31DDC01CB0138
:100610008E01055B1F4FBC01CD010E940D1CDC014A
:10062000CB01F801918380831FC0FE01E75BFF4F80
:1006300080E991E091838083FE01E75BFF4F808139
:1006400091810197F1F7FE01E75BFF4F9183808372
:10065000DE01A55BBF4FFE01E55BFF4F808191810D
:10066000019711969C938E93FE01E55BFF4F80816D
:1006700091810097D1F627C08E01055B1F4FFE01C7
:10068000E35BFF4F60817181828193810E940D1C29
:10069000DC01CB01F80191838083DE01A95BBF4FB0
:1006A000FE01E55BFF4F808191818D939C93FE015C
:1006B000E95BFF4F808191810197F1F7FE01E95BD2
:1006C000FF4F9183808380E090E06AE070E00E94B9
:1006D0004F0E84E464E070E041E050E00E946C065C
:1006E0008FEF90E06AE070E00E944F0EFE01ED5B3C
:1006F000FF4F80E090E0AAEFB3E480839183A28370
:10070000B3838E01015C1F4FFE01ED5BFF4F6081E3
:1007100071818281938120E030E04AE755E40E94B4
:10072000E31DDC01CB01F80180839183A283B383B5
:10073000FE01FF96608171818281938120E030E02B
:1007400040E85FE30E943D1F88232CF481E090E0A5
:100750009EAF8DAF46C0FE01FF96608171818281A0
:10076000938120E03FEF4FE757E40E94DD1E18160B
:1007700064F5FE01ED5BFF4F6081718182819381A1
:1007800020E030E040E251E40E94E31DDC01CB01B7
:10079000BC01CD010E940D1CDC01CB019EAF8DAFD1
:1007A0000FC080E991E09CAF8BAF8BAD9CAD019702
:1007B000F1F79CAF8BAF8DAD9EAD01979EAF8DAF26
:1007C0008DAD9EAD009769F716C0FE01FF96608162
:1007D0007181828193810E940D1CDC01CB019EAF4F
:1007E0008DAF8DAD9EAD9AAF89AF89AD9AAD0197B2
:1007F000F1F79AAF89AF80E090E06AE070E00E9484
:100800004F0E84E464E070E040E050E00E946C062B
:100810000E945A0180E090E0AAE7B4E48DAB9EAB61
:10082000AFABB8AF6DA97EA98FA998AD20E030E03D
:100830004AE755E40E94E31DDC01CB0189AB9AAB8A
:10084000ABABBCAB69A97AA98BA99CA920E030E02D
:1008500040E85FE30E943D1F88232CF481E090E094
:1008600098AB8FA73FC069A97AA98BA99CA920E062
:100870003FEF4FE757E40E94DD1E18164CF56DA9B7
:100880007EA98FA998AD20E030E040E251E40E94BB
:10089000E31DDC01CB01BC01CD010E940D1CDC017C
:1008A000CB0198AB8FA70FC080E991E09EA78DA7E1
:1008B0008DA59EA50197F1F79EA78DA78FA598A955
:1008C000019798AB8FA78FA598A9009769F714C0D7
:1008D00069A97AA98BA99CA90E940D1CDC01CB01F6
:1008E00098AB8FA78FA598A99CA78BA78BA59CA534
:1008F0000197F1F79CA78BA70E944C018FEF90E026
:100900000E94360E80E090E0AAEFB3E48FA398A790
:10091000A9A7BAA76FA178A589A59AA520E030E07C
:100920004AE755E40E94E31DDC01CB018BA39CA3A5
:10093000ADA3BEA36BA17CA18DA19EA120E030E060
:1009400040E85FE30E943D1F88232CF481E090E0A3
:100950009AA389A33FC06BA17CA18DA19EA120E099
:100960003FEF4FE757E40E94DD1E18164CF56FA1CC
:1009700078A589A59AA520E030E040E251E40E94E4
:10098000E31DDC01CB01BC01CD010E940D1CDC018B
:10099000CB019AA389A30FC080E991E098A38F8F20
:1009A0008F8D98A10197F1F798A38F8F89A19AA1B4
:1009B00001979AA389A389A19AA1009769F714C006
:1009C0006BA17CA18DA19EA10E940D1CDC01CB011D
:1009D0009AA389A389A19AA19E8F8D8F8D8D9E8DBB
:1009E0000197F1F79E8F8D8F80E090E00E94360E88
:1009F00084E465E070E041E050E00E946C0680E035
:100A000090E0AAEFB3E4898F9A8FAB8FBC8F698D8A
:100A10007A8D8B8D9C8D20E030E04AE755E40E9472
:100A2000E31DDC01CB018D8B9E8BAF8BB88F6D8965
:100A30007E898F89988D20E030E040E85FE30E9456
:100A40003D1F88232CF481E090E09C8B8B8B3FC072
:100A50006D897E898F89988D20E03FEF4FE757E4BD
:100A60000E94DD1E18164CF5698D7A8D8B8D9C8D3C
:100A700020E030E040E251E40E94E31DDC01CB01C4
:100A8000BC01CD010E940D1CDC01CB019C8B8B8B2A
:100A90000FC080E991E09A8B898B89899A890197A7
:100AA000F1F79A8B898B8B899C8901979C8B8B8B17
:100AB0008B899C89009769F714C06D897E898F891D
:100AC000988D0E940D1CDC01CB019C8B8B8B8B893C
:100AD0009C89988B8F878F8598890197F1F7988BE0
:100AE0008F878FEF90E00E94360E80E090E0AAEFB3
:100AF000B3E48B879C87AD87BE876B857C858D85AE
:100B00009E8520E030E04AE755E40E94E31DDC01C9
:100B1000CB018F839887A987BA876F81788589856C
:100B20009A8520E030E040E85FE30E943D1F882383
:100B30002CF481E090E09E838D833FC06F817885A7
:100B400089859A8520E03FEF4FE757E40E94DD1E3C
:100B500018164CF56B857C858D859E8520E030E0F0
:100B600040E251E40E94E31DDC01CB01BC01CD0158
:100B70000E940D1CDC01CB019E838D830FC080E998
:100B800091E09C838B838B819C810197F1F79C83FF
:100B90008B838D819E8101979E838D838D819E8124
:100BA000009769F714C06F81788589859A850E94BE
:100BB0000D1CDC01CB019E838D838D819E819A83E8
:100BC000898389819A810197F1F79A83898380E0EB
:100BD00090E00E94360E84E465E070E040E050E072
:100BE0000E946C06CC5ADF4F0FB6F894DEBF0FBEE2
:100BF000CDBFCF91DF911F910F910895DF93CF93D8
:100C000000D000D0CDB7DEB79A8389837C836B8315
:100C10008B819C81009791F4A5E2B0E0E5E2F0E0E1
:100C20008081282F81E090E0098002C0880F991F01
:100C30000A94E2F7809582238C9310C0A5E2B0E07D
:100C4000E5E2F0E08081282F81E090E0098002C099
:100C5000880F991F0A94E2F7822B8C930F900F90C4
:100C60000F900F90CF91DF910895DF93CF9300D035
:100C700000D0CDB7DEB79A8389837C836B838B8169
:100C80009C81009791F4ABE2B0E0EBE2F0E0808170
:100C9000282F81E090E0098002C0880F991F0A94F4
:100CA000E2F7809582238C9310C0ABE2B0E0EBE2D8
:100CB000F0E08081282F81E090E0098002C0880F59
:100CC000991F0A94E2F7822B8C930F900F900F904C
:100CD0000F90CF91DF910895DF93CF93CDB7DEB71B
:100CE00027970FB6F894DEBF0FBECDBF89837B83F5
:100CF0006A835D834C838981282F332727FD3095B4
:100D00003F832E838E819F818234910571F12E81E4
:100D10003F812434310509F04FC08C819D818130A1
:100D2000910589F4ABE2B0E0EBE2F0E08081282F9E
:100D300081E090E00A8002C0880F991F0A94E2F7D0
:100D4000822B8C9339C0ABE2B0E0EBE2F0E0808123
:100D5000282F81E090E00A8002C0880F991F0A9432
:100D6000E2F7809582238C9327C08C819D8181300E
:100D7000910589F4A5E2B0E0E5E2F0E08081282F5A
:100D800081E090E00A8002C0880F991F0A94E2F780
:100D9000822B8C9311C0A5E2B0E0E5E2F0E0808107
:100DA000282F81E090E00A8002C0880F991F0A94E2
:100DB000E2F7809582238C9327960FB6F894DEBFD6
:100DC0000FBECDBFCF91DF910895DF93CF93CDB705
:100DD000DEB70E946D020E9411140E94431A84E043
:100DE00090E00E94A9000E942C1B909359028093CE
:100DF000580280915802909159020E9463142091E8
:100E0000580230915902809156029091570228174A
:100E1000390784F084E462E070E040E050E00E9432
:100E20006C0685E090E00E94A9000E942C1B0E94A5
:100E30006314D9CF84E462E070E041E050E00E94A6
:100E40006C06D1CFDF93CF93CDB7DEB7A5E4B0E08A
:100E5000E5E4F0E0808183608C93A4E4B0E0E4E416
:100E6000F0E0808181608C93AAE2B0E0EAE2F0E0F9
:100E7000808180628C93AAE2B0E0EAE2F0E08081B7
:100E800080648C931092530210925202109251027D
:100E90001092500210923D0210923C0210923902C0
:100EA00010923802109245021092440210923502BC
:100EB00010923402A1E8B0E0E1E8F0E080818360C4
:100EC0008C93A0E8B0E0E0E8F0E0808181608C9352
:100ED000A4E2B0E0E4E2F0E0808182608C93A4E2DE
:100EE000B0E0E4E2F0E0808184608C931092330201
:100EF00010923202109237021092360210924F0274
:100F000010924E02109243021092420210924B0233
:100F100010924A0210923F0210923E02A1EBB0E002
:100F2000E1EBF0E0808184608C93A0EBB0E0E0EB3B
:100F3000F0E0808181608C93AAE2B0E0EAE2F0E028
:100F4000808188608C93A4E2B0E0E4E2F0E08081EC
:100F500088608C9310923B0210923A0210924702E2
:100F60001092460210924D0210924C0210924102D1
:100F700010924002109249021092480210925502BB
:100F800010925402CF91DF910895DF93CF93CDB7A4
:100F9000DEB7A5E4B0E0E5E4F0E0808183608C9307
:100FA000A4E4B0E0E4E4F0E0808181608C93AAE204
:100FB000B0E0EAE2F0E0808180628C93AAE2B0E0E7
:100FC000EAE2F0E0808180648C93109253021092E8
:100FD0005202109251021092500210923D02109251
:100FE0003C0210923902109238021092450210927F
:100FF00044021092350210923402CF91DF9108958D
:10100000DF93CF9300D0CDB7DEB79A838983A4E472
:10101000B0E0E4E4F0E0808180688C93E7E4F0E005
:10102000898180830F900F90CF91DF910895DF9396
:10103000CF9300D0CDB7DEB79A838983A4E4B0E024
:10104000E4E4F0E0808180628C93E8E4F0E0898160
:1010500080830F900F90CF91DF910895DF93CF930E
:10106000CDB7DEB7A4970FB6F894DEBF0FBECDBFE5
:101070009AA389A37CA36BA389A19AA1009729F4C1
:1010800080E090E00E94000847C120914E0230911C
:101090004F0289A19AA12817390708F09FC0A4E43C
:1010A000B0E0E4E4F0E0808180688C9380913C02C1
:1010B00090913D0298A38F8F82C0E7E4F0E08F8D7E
:1010C00080838F8D98A1019698A38F8F8BA19CA16F
:1010D000CC01A0E0B0E0BC01CD010E94C11FDC0149
:1010E000CB01898F9A8FAB8FBC8F698D7A8D8B8D59
:1010F0009C8D20E030E04AE755E40E94E31DDC01CE
:10110000CB018D8B9E8BAF8BB88F6D897E898F893C
:10111000988D20E030E040E85FE30E943D1F882387
:101120002CF481E090E09C8B8B8B3FC06D897E8995
:101130008F89988D20E03FEF4FE757E40E94DD1E36
:1011400018164CF5698D7A8D8B8D9C8D20E030E0E2
:1011500040E251E40E94E31DDC01CB01BC01CD0162
:101160000E940D1CDC01CB019C8B8B8B0FC080E996
:1011700091E09A8B898B89899A890197F1F79A8BEB
:10118000898B8B899C8901979C8B8B8B8B899C8904
:10119000009769F714C06D897E898F89988D0E94A8
:1011A0000D1CDC01CB019C8B8B8B8B899C89988BD4
:1011B0008F878F8598890197F1F7988B8F872F8D6F
:1011C00038A189A19AA18217930708F076CF89A147
:1011D0009AA190933D0280933C0298C0A4E4B0E0B1
:1011E000E4E4F0E0808180688C9380913C029091EF
:1011F0003D029E8F8D8F82C0E7E4F0E08D8D80836D
:101200008D8D9E8D01979E8F8D8F8BA19CA1CC0182
:10121000A0E0B0E0BC01CD010E94C11FDC01CB0108
:101220008B879C87AD87BE876B857C858D859E85EA
:1012300020E030E04AE755E40E94E31DDC01CB01E9
:101240008F839887A987BA876F81788589859A85E2
:1012500020E030E040E85FE30E943D1F88232CF44B
:1012600081E090E09E838D833FC06F817885898582
:101270009A8520E03FEF4FE757E40E94DD1E1816E5
:101280004CF56B857C858D859E8520E030E040E2C5
:1012900051E40E94E31DDC01CB01BC01CD010E94A1
:1012A0000D1CDC01CB019E838D830FC080E991E092
:1012B0009C838B838B819C810197F1F79C838B832B
:1012C0008D819E8101979E838D838D819E81009764
:1012D00069F714C06F81788589859A850E940D1CF5
:1012E000DC01CB019E838D838D819E819A838983CE
:1012F00089819A810197F1F79A8389832D8D3E8D9B
:1013000089A19AA12817390708F076CF89A19AA157
:1013100090933D0280933C02A4960FB6F894DEBFF2
:101320000FBECDBFCF91DF910895DF93CF93CDB79F
:10133000DEB764970FB6F894DEBF0FBECDBF9A8BB1
:10134000898B7C8B6B8BA4E4B0E0E4E4F0E08081DB
:1013500080688C9380913C0290913D02988B8F879E
:1013600082C0E7E4F0E08F8580838F8598890196BD
:10137000988B8F878B899C89CC01A0E0B0E0BC0161
:10138000CD010E94C11FDC01CB018B879C87AD87FB
:10139000BE876B857C858D859E8520E030E04AE7A1
:1013A00055E40E94E31DDC01CB018F839887A98758
:1013B000BA876F81788589859A8520E030E040E89A
:1013C0005FE30E943D1F88232CF481E090E09E8320
:1013D0008D833FC06F81788589859A8520E03FEFB6
:1013E0004FE757E40E94DD1E18164CF56B857C858F
:1013F0008D859E8520E030E040E251E40E94E31DAF
:10140000DC01CB01BC01CD010E940D1CDC01CB0134
:101410009E838D830FC080E991E09C838B838B81B9
:101420009C810197F1F79C838B838D819E8101972D
:101430009E838D838D819E81009769F714C06F8193
:10144000788589859A850E940D1CDC01CB019E83DD
:101450008D838D819E819A83898389819A81019769
:10146000F1F79A8389832F85388989899A89821728
:10147000930708F076CF89899A8990933D028093EB
:101480003C0264960FB6F894DEBF0FBECDBFCF917D
:10149000DF910895DF93CF93CDB7DEB764970FB692
:1014A000F894DEBF0FBECDBF9A8B898B7C8B6B8B84
:1014B00089899A89009729F480E090E00E940008C9
:1014C00098C0A4E4B0E0E4E4F0E0808180688C930C
:1014D00080913C0290913D02988B8F8782C0E7E417
:1014E000F0E08F8580838F8598890197988B8F870F
:1014F0008B899C89CC01A0E0B0E0BC01CD010E94A9
:10150000C11FDC01CB018B879C87AD87BE876B85B4
:101510007C858D859E8520E030E04AE755E40E9479
:10152000E31DDC01CB018F839887A987BA876F8180
:10153000788589859A8520E030E040E85FE30E9465
:101540003D1F88232CF481E090E09E838D833FC073
:101550006F81788589859A8520E03FEF4FE757E4D2
:101560000E94DD1E18164CF56B857C858D859E8549
:1015700020E030E040E251E40E94E31DDC01CB01B9
:10158000BC01CD010E940D1CDC01CB019E838D832B
:101590000FC080E991E09C838B838B819C810197B4
:1015A000F1F79C838B838D819E8101979E838D8330
:1015B0008D819E81009769F714C06F817885898538
:1015C0009A850E940D1CDC01CB019E838D838D8149
:1015D0009E819A83898389819A810197F1F79A8301
:1015E00089832F85388989899A892817390708F0CE
:1015F00076CF89899A8990933D0280933C026496C4
:101600000FB6F894DEBF0FBECDBFCF91DF91089526
:10161000DF93CF93CDB7DEB7A4970FB6F894DEBFB4
:101620000FBECDBF9AA389A37CA36BA389A19AA166
:10163000009721F481E090E09AA389A320913402DD
:101640003091350289A19AA12817390708F09FC067
:10165000A4E4B0E0E4E4F0E0808180628C938091C7
:1016600034029091350298A38F8F82C0E8E4F0E0B5
:101670008F8D80838F8D98A1019698A38F8F8BA1DA
:101680009CA1CC01A0E0B0E0BC01CD010E94C11F33
:10169000DC01CB01898F9A8FAB8FBC8F698D7A8DDE
:1016A0008B8D9C8D20E030E04AE755E40E94E31DDD
:1016B000DC01CB018D8B9E8BAF8BB88F6D897E89C2
:1016C0008F89988D20E030E040E85FE30E943D1F65
:1016D00088232CF481E090E09C8B8B8B3FC06D893C
:1016E0007E898F89988D20E03FEF4FE757E40E9475
:1016F000DD1E18164CF5698D7A8D8B8D9C8D20E042
:1017000030E040E251E40E94E31DDC01CB01BC016A
:10171000CD010E940D1CDC01CB019C8B8B8B0FC07B
:1017200080E991E09A8B898B89899A890197F1F7F1
:101730009A8B898B8B899C8901979C8B8B8B8B894E
:101740009C89009769F714C06D897E898F89988D6F
:101750000E940D1CDC01CB019C8B8B8B8B899C899F
:10176000988B8F878F8598890197F1F7988B8F8752
:101770002F8D38A189A19AA18217930708F076CFFF
:1017800089A19AA190933502809334029EC0A4E46B
:10179000B0E0E4E4F0E0808180628C9380913402D8
:1017A000909135029E8F8D8F82C0E8E4F0E08D8DA0
:1017B00080838D8D9E8D01979E8F8D8F8BA19CA197
:1017C000CC01A0E0B0E0BC01CD010E94C11FDC0152
:1017D000CB018B879C87AD87BE876B857C858D858C
:1017E0009E8520E030E04AE755E40E94E31DDC01DD
:1017F000CB018F839887A987BA876F817885898580
:101800009A8520E030E040E85FE30E943D1F882396
:101810002CF481E090E09E838D833FC06F817885BA
:1018200089859A8520E03FEF4FE757E40E94DD1E4F
:1018300018164CF56B857C858D859E8520E030E003
:1018400040E251E40E94E31DDC01CB01BC01CD016B
:101850000E940D1CDC01CB019E838D830FC080E9AB
:1018600091E09C838B838B819C810197F1F79C8312
:101870008B838D819E8101979E838D838D819E8137
:10188000009769F714C06F81788589859A850E94D1
:101890000D1CDC01CB019E838D838D819E819A83FB
:1018A000898389819A810197F1F79A8389832D8DA4
:1018B0003E8D89A19AA12817390708F076CF89A112
:1018C0009AA19093350280933402A4960FB6F894AF
:1018D000DEBF0FBECDBFCF91DF910895DF93CF93D1
:1018E000CDB7DEB764970FB6F894DEBF0FBECDBF9D
:1018F0009A8B898B7C8B6B8BA4E4B0E0E4E4F0E002
:10190000808180628C938091340290913502988B13
:101910008F8782C0E8E4F0E08F8580838F85988987
:101920000196988B8F878B899C89CC01A0E0B0E0D1
:10193000BC01CD010E94C11FDC01CB018B879C87BC
:10194000AD87BE876B857C858D859E8520E030E0E8
:101950004AE755E40E94E31DDC01CB018F839887A1
:10196000A987BA876F81788589859A8520E030E0DC
:1019700040E85FE30E943D1F88232CF481E090E063
:101980009E838D833FC06F81788589859A8520E00D
:101990003FEF4FE757E40E94DD1E18164CF56B85AC
:1019A0007C858D859E8520E030E040E251E40E94F8
:1019B000E31DDC01CB01BC01CD010E940D1CDC014B
:1019C000CB019E838D830FC080E991E09C838B8344
:1019D0008B819C810197F1F79C838B838D819E8104
:1019E00001979E838D838D819E81009769F714C036
:1019F0006F81788589859A850E940D1CDC01CB0159
:101A00009E838D838D819E819A83898389819A812A
:101A10000197F1F79A8389832F85388989899A8973
:101A20008217930708F076CF89899A8990933502B7
:101A30008093340264960FB6F894DEBF0FBECDBF1C
:101A4000CF91DF910895DF93CF93CDB7DEB7649741
:101A50000FB6F894DEBF0FBECDBF9A8B898B7C8BFF
:101A60006B8B89899A89009721F481E090E09A8BA9
:101A7000898BA4E4B0E0E4E4F0E0808180628C93A0
:101A80008091340290913502988B8F8784C0EAE868
:101A9000F0E08F859889918380838F85988901975D
:101AA000988B8F878B899C89CC01A0E0B0E0BC012A
:101AB000CD010E94C11FDC01CB018B879C87AD87C4
:101AC000BE876B857C858D859E8520E030E04AE76A
:101AD00055E40E94E31DDC01CB018F839887A98721
:101AE000BA876F81788589859A8520E030E040E863
:101AF0005FE30E943D1F88232CF481E090E09E83E9
:101B00008D833FC06F81788589859A8520E03FEF7E
:101B10004FE757E40E94DD1E18164CF56B857C8557
:101B20008D859E8520E030E040E251E40E94E31D77
:101B3000DC01CB01BC01CD010E940D1CDC01CB01FD
:101B40009E838D830FC080E991E09C838B838B8182
:101B50009C810197F1F79C838B838D819E810197F6
:101B60009E838D838D819E81009769F714C06F815C
:101B7000788589859A850E940D1CDC01CB019E83A6
:101B80008D838D819E819A83898389819A81019732
:101B9000F1F79A8389832F85388989899A8928174B
:101BA000390708F074CF89899A8990933502809318
:101BB000340264960FB6F894DEBF0FBECDBFCF914E
:101BC000DF910895DF93CF93CDB7DEB7A1E8B0E002
:101BD000E1E8F0E0808183608C93A0E8B0E0E0E889
:101BE000F0E0808181608C93A4E2B0E0E4E2F0E078
:101BF000808182608C93A4E2B0E0E4E2F0E0808136
:101C000084608C9310923302109232021092370249
:101C10001092360210924F0210924E02109243021E
:101C20001092420210924B0210924A0210923F020E
:101C300010923E02CF91DF910895DF93CF9300D0B1
:101C4000CDB7DEB79A838983A0E8B0E0E0E8F0E0A2
:101C5000808180688C93E8E8F0E089819A819183A3
:101C600080830F900F90CF91DF910895DF93CF93F2
:101C700000D0CDB7DEB79A838983A0E8B0E0E0E872
:101C8000F0E0808180628C93EAE8F0E089819A81BB
:101C9000918380830F900F90CF91DF910895DF9310
:101CA000CF93CDB7DEB7A4970FB6F894DEBF0FBEC3
:101CB000CDBF9AA389A37CA36BA389A19AA1009706
:101CC00029F480E090E00E941D0E4BC120914E024D
:101CD00030914F0289A19AA12817390708F0A1C0B5
:101CE000A0E8B0E0E0E8F0E0808180688C9380912B
:101CF0004E0290914F0298A38F8F84C0E8E8F0E0E5
:101D00008F8D98A1918380838F8D98A1019698A340
:101D10008F8F8BA19CA1CC01A0E0B0E0BC01CD01D4
:101D20000E94C11FDC01CB01898F9A8FAB8FBC8FC2
:101D3000698D7A8D8B8D9C8D20E030E04AE755E4EB
:101D40000E94E31DDC01CB018D8B9E8BAF8BB88F86
:101D50006D897E898F89988D20E030E040E85FE3CF
:101D60000E943D1F88232CF481E090E09C8B8B8B9C
:101D70003FC06D897E898F89988D20E03FEF4FE7C6
:101D800057E40E94DD1E18164CF5698D7A8D8B8DF7
:101D90009C8D20E030E040E251E40E94E31DDC0134
:101DA000CB01BC01CD010E940D1CDC01CB019C8B41
:101DB0008B8B0FC080E991E09A8B898B89899A89F6
:101DC0000197F1F79A8B898B8B899C8901979C8B62
:101DD0008B8B8B899C89009769F714C06D897E89EC
:101DE0008F89988D0E940D1CDC01CB019C8B8B8B05
:101DF0008B899C89988B8F878F8598890197F1F7BC
:101E0000988B8F872F8D38A189A19AA1821793076C
:101E100008F074CF89A19AA190934F0280934E024B
:101E20009AC0A0E8B0E0E0E8F0E0808180688C93A0
:101E300080914E0290914F029E8F8D8F84C0E8E872
:101E4000F0E08D8D9E8D918380838D8D9E8D019789
:101E50009E8F8D8F8BA19CA1CC01A0E0B0E0BC0136
:101E6000CD010E94C11FDC01CB018B879C87AD8710
:101E7000BE876B857C858D859E8520E030E04AE7B6
:101E800055E40E94E31DDC01CB018F839887A9876D
:101E9000BA876F81788589859A8520E030E040E8AF
:101EA0005FE30E943D1F88232CF481E090E09E8335
:101EB0008D833FC06F81788589859A8520E03FEFCB
:101EC0004FE757E40E94DD1E18164CF56B857C85A4
:101ED0008D859E8520E030E040E251E40E94E31DC4
:101EE000DC01CB01BC01CD010E940D1CDC01CB014A
:101EF0009E838D830FC080E991E09C838B838B81CF
:101F00009C810197F1F79C838B838D819E81019742
:101F10009E838D838D819E81009769F714C06F81A8
:101F2000788589859A850E940D1CDC01CB019E83F2
:101F30008D838D819E819A83898389819A8101977E
:101F4000F1F79A8389832D8D3E8D89A19AA1281757
:101F5000390708F074CF89A19AA190934F0280931A
:101F60004E02A4960FB6F894DEBF0FBECDBFCF9140
:101F7000DF910895DF93CF93CDB7DEB764970FB6A7
:101F8000F894DEBF0FBECDBF9A8B898B7C8B6B8B99
:101F9000A0E8B0E0E0E8F0E0808180688C93809178
:101FA0004E0290914F02988B8F8784C0E8E8F0E052
:101FB0008F859889918380838F8598890196988BE6
:101FC0008F878B899C89CC01A0E0B0E0BC01CD015A
:101FD0000E94C11FDC01CB018B879C87AD87BE8728
:101FE0006B857C858D859E8520E030E04AE755E451
:101FF0000E94E31DDC01CB018F839887A987BA87F4
:102000006F81788589859A8520E030E040E85FE33C
:102010000E943D1F88232CF481E090E09E838D83F5
:102020003FC06F81788589859A8520E03FEF4FE733
:1020300057E40E94DD1E18164CF56B857C858D8556
:102040009E8520E030E040E251E40E94E31DDC0187
:10205000CB01BC01CD010E940D1CDC01CB019E8394
:102060008D830FC080E991E09C838B838B819C8161
:102070000197F1F79C838B838D819E8101979E83CD
:102080008D838D819E81009769F714C06F8178855B
:1020900089859A850E940D1CDC01CB019E838D836E
:1020A0008D819E819A83898389819A810197F1F735
:1020B0009A8389832F85388989899A89821793071A
:1020C00008F074CF89899A8990934F0280934E02C9
:1020D00064960FB6F894DEBF0FBECDBFCF91DF91EF
:1020E0000895DF93CF93CDB7DEB764970FB6F8941A
:1020F000DEBF0FBECDBF9A8B898B7C8B6B8B8989A2
:102100009A89009729F480E090E00E941D0E9AC001
:10211000A0E8B0E0E0E8F0E0808180688C938091F6
:102120004E0290914F02988B8F8784C0E8E8F0E0D0
:102130008F859889918380838F8598890197988B63
:102140008F878B899C89CC01A0E0B0E0BC01CD01D8
:102150000E94C11FDC01CB018B879C87AD87BE87A6
:102160006B857C858D859E8520E030E04AE755E4CF
:102170000E94E31DDC01CB018F839887A987BA8772
:102180006F81788589859A8520E030E040E85FE3BB
:102190000E943D1F88232CF481E090E09E838D8374
:1021A0003FC06F81788589859A8520E03FEF4FE7B2
:1021B00057E40E94DD1E18164CF56B857C858D85D5
:1021C0009E8520E030E040E251E40E94E31DDC0106
:1021D000CB01BC01CD010E940D1CDC01CB019E8313
:1021E0008D830FC080E991E09C838B838B819C81E0
:1021F0000197F1F79C838B838D819E8101979E834C
:102200008D838D819E81009769F714C06F817885D9
:1022100089859A850E940D1CDC01CB019E838D83EC
:102220008D819E819A83898389819A810197F1F7B3
:102230009A8389832F85388989899A89281739074C
:1022400008F074CF89899A8990934F0280934E0247
:1022500064960FB6F894DEBF0FBECDBFCF91DF916D
:102260000895DF93CF93CDB7DEB7A4970FB6F89458
:10227000DEBF0FBECDBF9AA389A37CA36BA389A1A8
:102280009AA1009721F481E090E09AA389A320917C
:102290003E0230913F0289A19AA12817390708F020
:1022A000A1C0A0E8B0E0E0E8F0E0808180628C931B
:1022B00080913E0290913F0298A38F8F84C0EAE8FC
:1022C000F0E08F8D98A1918380838F8D98A10196E6
:1022D00098A38F8F8BA19CA1CC01A0E0B0E0BC01A2
:1022E000CD010E94C11FDC01CB01898F9A8FAB8F7A
:1022F000BC8F698D7A8D8B8D9C8D20E030E04AE714
:1023000055E40E94E31DDC01CB018D8B9E8BAF8BCE
:10231000B88F6D897E898F89988D20E030E040E804
:102320005FE30E943D1F88232CF481E090E09C8BAA
:102330008B8B3FC06D897E898F89988D20E03FEF20
:102340004FE757E40E94DD1E18164CF5698D7A8D13
:102350008B8D9C8D20E030E040E251E40E94E31D33
:10236000DC01CB01BC01CD010E940D1CDC01CB01C5
:102370009C8B8B8B0FC080E991E09A8B898B89892C
:102380009A890197F1F79A8B898B8B899C890197A0
:102390009C8B8B8B8B899C89009769F714C06D8906
:1023A0007E898F89988D0E940D1CDC01CB019C8B4E
:1023B0008B8B8B899C89988B8F878F8598890197C8
:1023C000F1F7988B8F872F8D38A189A19AA1821759
:1023D000930708F074CF89A19AA190933F0280934C
:1023E0003E02A0C0A0E8B0E0E0E8F0E080818062BA
:1023F0008C9380913E0290913F029E8F8D8F84C07E
:10240000EAE8F0E08D8D9E8D918380838D8D9E8D89
:1024100001979E8F8D8F8BA19CA1CC01A0E0B0E095
:10242000BC01CD010E94C11FDC01CB018B879C87C1
:10243000AD87BE876B857C858D859E8520E030E0ED
:102440004AE755E40E94E31DDC01CB018F839887A6
:10245000A987BA876F81788589859A8520E030E0E1
:1024600040E85FE30E943D1F88232CF481E090E068
:102470009E838D833FC06F81788589859A8520E012
:102480003FEF4FE757E40E94DD1E18164CF56B85B1
:102490007C858D859E8520E030E040E251E40E94FD
:1024A000E31DDC01CB01BC01CD010E940D1CDC0150
:1024B000CB019E838D830FC080E991E09C838B8349
:1024C0008B819C810197F1F79C838B838D819E8109
:1024D00001979E838D838D819E81009769F714C03B
:1024E0006F81788589859A850E940D1CDC01CB015E
:1024F0009E838D838D819E819A83898389819A8130
:102500000197F1F79A8389832D8D3E8D89A19AA138
:102510002817390708F074CF89A19AA190933F0238
:1025200080933E02A4960FB6F894DEBF0FBECDBFD7
:10253000CF91DF910895DF93CF93CDB7DEB7649746
:102540000FB6F894DEBF0FBECDBF9A8B898B7C8B04
:102550006B8BA0E8B0E0E0E8F0E0808180628C93D3
:1025600080913E0290913F02988B8F8784C0EAE869
:10257000F0E08F859889918380838F859889019673
:10258000988B8F878B899C89CC01A0E0B0E0BC013F
:10259000CD010E94C11FDC01CB018B879C87AD87D9
:1025A000BE876B857C858D859E8520E030E04AE77F
:1025B00055E40E94E31DDC01CB018F839887A98736
:1025C000BA876F81788589859A8520E030E040E878
:1025D0005FE30E943D1F88232CF481E090E09E83FE
:1025E0008D833FC06F81788589859A8520E03FEF94
:1025F0004FE757E40E94DD1E18164CF56B857C856D
:102600008D859E8520E030E040E251E40E94E31D8C
:10261000DC01CB01BC01CD010E940D1CDC01CB0112
:102620009E838D830FC080E991E09C838B838B8197
:102630009C810197F1F79C838B838D819E8101970B
:102640009E838D838D819E81009769F714C06F8171
:10265000788589859A850E940D1CDC01CB019E83BB
:102660008D838D819E819A83898389819A81019747
:10267000F1F79A8389832F85388989899A89821706
:10268000930708F074CF89899A8990933F028093C9
:102690003E0264960FB6F894DEBF0FBECDBFCF9159
:1026A000DF910895DF93CF93CDB7DEB764970FB670
:1026B000F894DEBF0FBECDBF9A8B898B7C8B6B8B62
:1026C00089899A89009721F481E090E09A8B898B1F
:1026D000A0E8B0E0E0E8F0E0808180628C93809137
:1026E0003E0290913F02988B8F8784C0EAE8F0E029
:1026F0008F859889918380838F8598890197988B9E
:102700008F878B899C89CC01A0E0B0E0BC01CD0112
:102710000E94C11FDC01CB018B879C87AD87BE87E0
:102720006B857C858D859E8520E030E04AE755E409
:102730000E94E31DDC01CB018F839887A987BA87AC
:102740006F81788589859A8520E030E040E85FE3F5
:102750000E943D1F88232CF481E090E09E838D83AE
:102760003FC06F81788589859A8520E03FEF4FE7EC
:1027700057E40E94DD1E18164CF56B857C858D850F
:102780009E8520E030E040E251E40E94E31DDC0140
:10279000CB01BC01CD010E940D1CDC01CB019E834D
:1027A0008D830FC080E991E09C838B838B819C811A
:1027B0000197F1F79C838B838D819E8101979E8386
:1027C0008D838D819E81009769F714C06F81788514
:1027D00089859A850E940D1CDC01CB019E838D8327
:1027E0008D819E819A83898389819A810197F1F7EE
:1027F0009A8389832F85388989899A892817390787
:1028000008F074CF89899A8990933F0280933E02A1
:1028100064960FB6F894DEBF0FBECDBFCF91DF91A7
:102820000895DF93CF93CDB7DEB7A1EBB0E0E1EB36
:10283000F0E0808184608C93A0EBB0E0E0EBF0E00E
:10284000808181608C93AAE2B0E0EAE2F0E08081CE
:1028500088608C93A4E2B0E0E4E2F0E080818860DC
:102860008C9310923B0210923A02109247021092FF
:10287000460210924D0210924C02109241021092A8
:102880004002109249021092480210925502109292
:102890005402CF91DF910895DF93CF9300D0CDB74D
:1028A000DEB79A838983A0EBB0E0E0EBF0E08081B3
:1028B00080688C93E3EBF0E0898180830F900F9028
:1028C000CF91DF910895DF93CF9300D0CDB7DEB7DE
:1028D0009A838983A0EBB0E0E0EBF0E08081806236
:1028E0008C93E4EBF0E0898180830F900F90CF917F
:1028F000DF910895DF93CF93CDB7DEB7A4970FB6DE
:10290000F894DEBF0FBECDBF9AA389A37CA36BA3AF
:1029100089A19AA1009729F480E090E00E944C14CC
:1029200047C120914C0230914D0289A19AA12817EC
:10293000390708F09FC0A0EBB0E0E0EBF0E0808149
:1029400080688C9380914C0290914D0298A38F8F58
:1029500082C0E3EBF0E08F8D80838F8D98A101968C
:1029600098A38F8F8BA19CA1CC01A0E0B0E0BC010B
:10297000CD010E94C11FDC01CB01898F9A8FAB8FE3
:10298000BC8F698D7A8D8B8D9C8D20E030E04AE77D
:1029900055E40E94E31DDC01CB018D8B9E8BAF8B38
:1029A000B88F6D897E898F89988D20E030E040E86E
:1029B0005FE30E943D1F88232CF481E090E09C8B14
:1029C0008B8B3FC06D897E898F89988D20E03FEF8A
:1029D0004FE757E40E94DD1E18164CF5698D7A8D7D
:1029E0008B8D9C8D20E030E040E251E40E94E31D9D
:1029F000DC01CB01BC01CD010E940D1CDC01CB012F
:102A00009C8B8B8B0FC080E991E09A8B898B898995
:102A10009A890197F1F79A8B898B8B899C89019709
:102A20009C8B8B8B8B899C89009769F714C06D896F
:102A30007E898F89988D0E940D1CDC01CB019C8BB7
:102A40008B8B8B899C89988B8F878F859889019731
:102A5000F1F7988B8F872F8D38A189A19AA18217C2
:102A6000930708F076CF89A19AA190934D028093A5
:102A70004C0298C0A0EBB0E0E0EBF0E08081806811
:102A80008C9380914C0290914D029E8F8D8F82C0CD
:102A9000E3EBF0E08D8D80838D8D9E8D01979E8F71
:102AA0008D8F8BA19CA1CC01A0E0B0E0BC01CD0139
:102AB0000E94C11FDC01CB018B879C87AD87BE873D
:102AC0006B857C858D859E8520E030E04AE755E466
:102AD0000E94E31DDC01CB018F839887A987BA8709
:102AE0006F81788589859A8520E030E040E85FE352
:102AF0000E943D1F88232CF481E090E09E838D830B
:102B00003FC06F81788589859A8520E03FEF4FE748
:102B100057E40E94DD1E18164CF56B857C858D856B
:102B20009E8520E030E040E251E40E94E31DDC019C
:102B3000CB01BC01CD010E940D1CDC01CB019E83A9
:102B40008D830FC080E991E09C838B838B819C8176
:102B50000197F1F79C838B838D819E8101979E83E2
:102B60008D838D819E81009769F714C06F81788570
:102B700089859A850E940D1CDC01CB019E838D8383
:102B80008D819E819A83898389819A810197F1F74A
:102B90009A8389832D8D3E8D89A19AA128173907A3
:102BA00008F076CF89A19AA190934D0280934C02B0
:102BB000A4960FB6F894DEBF0FBECDBFCF91DF91C4
:102BC0000895DF93CF93CDB7DEB764970FB6F8942F
:102BD000DEBF0FBECDBF9A8B898B7C8B6B8BA0EB3E
:102BE000B0E0E0EBF0E0808180688C9380914C0253
:102BF00090914D02988B8F8782C0E3EBF0E08F8538
:102C000080838F8598890196988B8F878B899C8983
:102C1000CC01A0E0B0E0BC01CD010E94C11FDC01ED
:102C2000CB018B879C87AD87BE876B857C858D8527
:102C30009E8520E030E04AE755E40E94E31DDC0178
:102C4000CB018F839887A987BA876F81788589851B
:102C50009A8520E030E040E85FE30E943D1F882332
:102C60002CF481E090E09E838D833FC06F81788556
:102C700089859A8520E03FEF4FE757E40E94DD1EEB
:102C800018164CF56B857C858D859E8520E030E09F
:102C900040E251E40E94E31DDC01CB01BC01CD0107
:102CA0000E940D1CDC01CB019E838D830FC080E947
:102CB00091E09C838B838B819C810197F1F79C83AE
:102CC0008B838D819E8101979E838D838D819E81D3
:102CD000009769F714C06F81788589859A850E946D
:102CE0000D1CDC01CB019E838D838D819E819A8397
:102CF000898389819A810197F1F79A8389832F8546
:102D0000388989899A898217930708F076CF89894B
:102D10009A8990934D0280934C0264960FB6F89472
:102D2000DEBF0FBECDBFCF91DF910895DF93CF936C
:102D3000CDB7DEB764970FB6F894DEBF0FBECDBF38
:102D40009A8B898B7C8B6B8B89899A89009729F464
:102D500080E090E00E944C1498C0A0EBB0E0E0EB63
:102D6000F0E0808180688C9380914C0290914D02BC
:102D7000988B8F8782C0E3EBF0E08F8580838F850F
:102D800098890197988B8F878B899C89CC01A0E0CB
:102D9000B0E0BC01CD010E94C11FDC01CB018B87DB
:102DA0009C87AD87BE876B857C858D859E8520E061
:102DB00030E04AE755E40E94E31DDC01CB018F833C
:102DC0009887A987BA876F81788589859A8520E059
:102DD00030E040E85FE30E943D1F88232CF481E04F
:102DE00090E09E838D833FC06F81788589859A8529
:102DF00020E03FEF4FE757E40E94DD1E18164CF528
:102E00006B857C858D859E8520E030E040E251E435
:102E10000E94E31DDC01CB01BC01CD010E940D1C11
:102E2000DC01CB019E838D830FC080E991E09C8300
:102E30008B838B819C810197F1F79C838B838D81A0
:102E40009E8101979E838D838D819E81009769F776
:102E500014C06F81788589859A850E940D1CDC01DC
:102E6000CB019E838D838D819E819A838983898105
:102E70009A810197F1F79A8389832F853889898907
:102E80009A892817390708F076CF89899A8990930B
:102E90004D0280934C0264960FB6F894DEBF0FBECD
:102EA000CDBFCF91DF910895DF93CF93CDB7DEB73C
:102EB000A4970FB6F894DEBF0FBECDBF9AA389A327
:102EC0007CA36BA389A19AA1009721F481E090E0F3
:102ED0009AA389A3209154023091550289A19AA105
:102EE0002817390708F09FC0A0EBB0E0E0EBF0E056
:102EF000808180628C93809154029091550298A3B6
:102F00008F8F82C0E4EBF0E08F8D80838F8D98A14E
:102F1000019698A38F8F8BA19CA1CC01A0E0B0E07B
:102F2000BC01CD010E94C11FDC01CB01898F9A8FAA
:102F3000AB8FBC8F698D7A8D8B8D9C8D20E030E0BE
:102F40004AE755E40E94E31DDC01CB018D8B9E8B8B
:102F5000AF8BB88F6D897E898F89988D20E030E0A6
:102F600040E85FE30E943D1F88232CF481E090E05D
:102F70009C8B8B8B3FC06D897E898F89988D20E0DB
:102F80003FEF4FE757E40E94DD1E18164CF5698DA0
:102F90007A8D8B8D9C8D20E030E040E251E40E94E0
:102FA000E31DDC01CB01BC01CD010E940D1CDC0145
:102FB000CB019C8B8B8B0FC080E991E09A8B898B26
:102FC00089899A890197F1F79A8B898B8B899C89DA
:102FD00001979C8B8B8B8B899C89009769F714C018
:102FE0006D897E898F89988D0E940D1CDC01CB0133
:102FF0009C8B8B8B8B899C89988B8F878F859889ED
:103000000197F1F7988B8F872F8D38A189A19AA10D
:103010008217930708F076CF89A19AA19093550261
:10302000809354029EC0A0EBB0E0E0EBF0E0808122
:1030300080628C9380915402909155029E8F8D8F67
:1030400082C0E4EBF0E08D8D80838D8D9E8D0197A5
:103050009E8F8D8F8BA19CA1CC01A0E0B0E0BC0124
:10306000CD010E94C11FDC01CB018B879C87AD87FE
:10307000BE876B857C858D859E8520E030E04AE7A4
:1030800055E40E94E31DDC01CB018F839887A9875B
:10309000BA876F81788589859A8520E030E040E89D
:1030A0005FE30E943D1F88232CF481E090E09E8323
:1030B0008D833FC06F81788589859A8520E03FEFB9
:1030C0004FE757E40E94DD1E18164CF56B857C8592
:1030D0008D859E8520E030E040E251E40E94E31DB2
:1030E000DC01CB01BC01CD010E940D1CDC01CB0138
:1030F0009E838D830FC080E991E09C838B838B81BD
:103100009C810197F1F79C838B838D819E81019730
:103110009E838D838D819E81009769F714C06F8196
:10312000788589859A850E940D1CDC01CB019E83E0
:103130008D838D819E819A83898389819A8101976C
:10314000F1F79A8389832D8D3E8D89A19AA1281745
:10315000390708F076CF89A19AA190935502809300
:103160005402A4960FB6F894DEBF0FBECDBFCF9128
:10317000DF910895DF93CF93CDB7DEB764970FB695
:10318000F894DEBF0FBECDBF9A8B898B7C8B6B8B87
:10319000A0EBB0E0E0EBF0E0808180628C93809166
:1031A000540290915502988B8F8782C0E4EBF0E037
:1031B0008F8580838F8598890196988B8F878B89DF
:1031C0009C89CC01A0E0B0E0BC01CD010E94C11FF0
:1031D000DC01CB018B879C87AD87BE876B857C85A7
:1031E0008D859E8520E030E04AE755E40E94E31D8E
:1031F000DC01CB018F839887A987BA876F81788597
:1032000089859A8520E030E040E85FE30E943D1F19
:1032100088232CF481E090E09E838D833FC06F81F2
:10322000788589859A8520E03FEF4FE757E40E9433
:10323000DD1E18164CF56B857C858D859E8520E0FE
:1032400030E040E251E40E94E31DDC01CB01BC010F
:10325000CD010E940D1CDC01CB019E838D830FC02C
:1032600080E991E09C838B838B819C810197F1F7AE
:103270009C838B838D819E8101979E838D838D811D
:103280009E81009769F714C06F81788589859A853A
:103290000E940D1CDC01CB019E838D838D819E815C
:1032A0009A83898389819A810197F1F79A83898327
:1032B0002F85388989899A898217930708F076CFF4
:1032C00089899A89909355028093540264960FB627
:1032D000F894DEBF0FBECDBFCF91DF910895DF938D
:1032E000CF93CDB7DEB764970FB6F894DEBF0FBEAD
:1032F000CDBF9A8B898B7C8B6B8B89899A89009740
:1033000021F481E090E09A8B898BA0EBB0E0E0EBB8
:10331000F0E0808180628C938091540290915502FC
:10332000988B8F8782C0E4EBF0E08F8580838F8558
:1033300098890197988B8F878B899C89CC01A0E015
:10334000B0E0BC01CD010E94C11FDC01CB018B8725
:103350009C87AD87BE876B857C858D859E8520E0AB
:1033600030E04AE755E40E94E31DDC01CB018F8386
:103370009887A987BA876F81788589859A8520E0A3
:1033800030E040E85FE30E943D1F88232CF481E099
:1033900090E09E838D833FC06F81788589859A8573
:1033A00020E03FEF4FE757E40E94DD1E18164CF572
:1033B0006B857C858D859E8520E030E040E251E480
:1033C0000E94E31DDC01CB01BC01CD010E940D1C5C
:1033D000DC01CB019E838D830FC080E991E09C834B
:1033E0008B838B819C810197F1F79C838B838D81EB
:1033F0009E8101979E838D838D819E81009769F7C1
:1034000014C06F81788589859A850E940D1CDC0126
:10341000CB019E838D838D819E819A83898389814F
:103420009A810197F1F79A8389832F853889898951
:103430009A892817390708F076CF89899A89909355
:1034400055028093540264960FB6F894DEBF0FBE07
:10345000CDBFCF91DF910895DF93CF93CDB7DEB786
:10346000CF91DF910895DF93CF93CDB7DEB7CF91A2
:10347000DF910895DF93CF93CDB7DEB70E94680147
:10348000CF91DF910895DF93CF93CDB7DEB7289723
:103490000FB6F894DEBF0FBECDBF85E090E00E946E
:1034A000A900E9E7F0E08081882F90E090935D0229
:1034B00080935C0210925B0210925A027CC0E9E792
:1034C000F0E08081282F30E080913002909131022D
:1034D0008C599F4F8217930724F5E9E7F0E080812C
:1034E0008695282F30E03C832B8380913002909189
:1034F00031029E838D838D819E81992334F42D81A9
:103500003E812F5F3F4F3E832D838D819E81959518
:1035100087952B813C81820F931F90935D0280934E
:103520005C02E9E7F0E08081282F30E080913002F2
:1035300090913102845690402817390724F5E9E725
:10354000F0E080818695282F30E03A8329838091AE
:1035500030029091310298878F838F8198859923CB
:1035600034F42F8138852F5F3F4F38872F838F8129
:1035700098859595879529813A81820F931F90931D
:103580005D0280935C0280915A0290915B022091CF
:103590005C0230915D02880F991FFC01E85FFD4FCE
:1035A0003183208380915A0290915B02019690931F
:1035B0005B0280935A0280915A0290915B0285319E
:1035C00091050CF47CCF10925B0210925A021EC03F
:1035D00080915A0290915B02880F991FFC01E85F6D
:1035E000FD4F208131818091300290913102820F14
:1035F000931F909331028093300280915A029091F0
:103600005B02019690935B0280935A0280915A026A
:1036100090915B0285319105DCF2809130029091AE
:10362000310224E130E0B9010E942F22CB019093B6
:103630003102809330028091300290913102909358
:1036400057028093560228960FB6F894DEBF0FBE3D
:10365000CDBFCF91DF910895DF93CF93CDB7DEB784
:1036600028970FB6F894DEBF0FBECDBFE9E7F0E0B4
:103670008081882F90E090935D0280935C0210928D
:103680005B0210925A027CC0E9E7F0E08081282FAB
:1036900030E080913002909131028C599F4F821717
:1036A000930724F5E9E7F0E080818695282F30E044
:1036B0003C832B8380913002909131029E838D83D5
:1036C0008D819E81992334F42D813E812F5F3F4F60
:1036D0003E832D838D819E81959587952B813C819D
:1036E000820F931F90935D0280935C02E9E7F0E004
:1036F0008081282F30E080913002909131028456F1
:1037000090402817390724F5E9E7F0E08081869595
:10371000282F30E03A832983809130029091310242
:1037200098878F838F819885992334F42F813885EA
:103730002F5F3F4F38872F838F8198859595879589
:1037400029813A81820F931F90935D0280935C02DE
:1037500080915A0290915B0220915C0230915D024F
:10376000880F991FFC01E85FFD4F31832083809112
:103770005A0290915B02019690935B0280935A02E9
:1037800080915A0290915B02853191050CF47CCFB7
:1037900010925B0210925A021EC080915A029091C0
:1037A0005B02880F991FFC01E85FFD4F208131818A
:1037B0008091300290913102820F931F90933102D9
:1037C0008093300280915A0290915B02019690930F
:1037D0005B0280935A0280915A0290915B0285317C
:1037E0009105DCF2809130029091310224E130E0C9
:1037F000B9010E942F22CB019093310280933002B5
:10380000809130029091310228960FB6F894DEBF75
:103810000FBECDBFCF91DF910895EF92FF920F932E
:103820001F937B018C0120E030E040E05FE40E94C8
:103830000D1F88238CF0C801B70120E030E040E084
:103840005FE40E94851D0E946D1F9B01AC0120500A
:1038500030404040504806C0C801B7010E946D1F6B
:103860009B01AC01B901CA011F910F91FF90EF902C
:103870000895A0E0B0E0EFE3FCE10C945622DC01F7
:103880002B01FA019C91923008F439C1EB01888137
:10389000823008F433C1943069F4843009F02FC1C8
:1038A00011969C9111978981981709F428C1A0E07D
:1038B000B1E025C1843009F421C18230A9F49230ED
:1038C00009F01DC19A01AD0188E0EA010990AE013D
:1038D000E90109929E018150C1F7E20189811196A7
:1038E0009C918923818308C1923009F407C1129603
:1038F0002D903C901397EB018A819B811496AD909B
:10390000BD90CD90DC901797EC80FD800E811F81DB
:103910009101281B390BB90137FF04C066277727AF
:10392000621B730B603271050CF061C01216130636
:103930006CF537014801062E04C09694879477945D
:1039400067940A94D2F721E030E040E050E004C0F0
:10395000220F331F441F551F6A95D2F72150304064
:10396000404050402E213F21402351232115310555
:103970004105510521F021E030E040E050E07901BF
:103980008A01E628F728082919293CC0232BD1F100
:10399000260E371E35014601062E04C096948794E4
:1039A000779467940A94D2F721E030E040E050E049
:1039B00004C0220F331F441F551F6A95D2F72150B0
:1039C0003040404050402A213B214C215D212115AF
:1039D00031054105510521F021E030E040E050E0A3
:1039E00059016A01A628B728C828D9280BC0821512
:1039F00093052CF01C01AA24BB24650103C0EE240E
:103A0000FF24870111969C91D20111968C919817F1
:103A100009F445C0992339F0A80197012A193B09F7
:103A20004C095D0906C0A60195012E193F09400BFE
:103A3000510B57FD08C011823382228224833583C3
:103A4000468357831DC081E0818333822282882789
:103A50009927DC01821B930BA40BB50B8483958300
:103A6000A683B7830DC0220F331F441F551F248325
:103A70003583468357838281938101979383828321
:103A80002481358146815781DA01C9010197A10955
:103A9000B1098F5F9F4FAF4FBF4328F30BC0918396
:103AA00033822282EA0CFB1C0C1D1D1DE482F58270
:103AB0000683178383E08083248135814681578183
:103AC00057FF1AC0C901AA2797FDA095BA2F817088
:103AD0009070A070B0705695479537952795822BBA
:103AE000932BA42BB52B84839583A683B7838281E4
:103AF0009381019693838283DF0101C0D201CD01BE
:103B0000CDB7DEB7E2E10C947222A0E2B0E0EBE8C0
:103B1000FDE10C94622269837A838B839C832D83DD
:103B20003E834F835887E9E0EE2EF12CEC0EFD1E0C
:103B3000CE010196B7010E945E218E010F5E1F4FDC
:103B4000CE010596B8010E945E218A8991E08927FD
:103B50008A8BC701B801AE01475E5F4F0E94391CD6
:103B60000E948920A096E6E00C947E22A0E2B0E0BC
:103B7000ECEBFDE10C94622269837A838B839C8356
:103B80002D833E834F835887F9E0EF2EF12CEC0E06
:103B9000FD1ECE010196B7010E945E218E010F5ECF
:103BA0001F4FCE010596B8010E945E21C701B801E2
:103BB000AE01475E5F4F0E94391C0E948920A0968B
:103BC000E6E00C947E22A0E2B0E0E9EEFDE10C9488
:103BD000562269837A838B839C832D833E834F8314
:103BE0005887CE010196BE01675F7F4F0E945E211C
:103BF000CE010596BE016F5E7F4F0E945E219985C2
:103C0000923088F089898230C8F0943019F482307B
:103C100051F404C0843029F4923081F480E091E0C2
:103C2000C6C0923049F420E09A858A89981321E031
:103C30002A87CE010996BBC0823049F420E09A85DC
:103C40008A89981321E02A8BCE014196B0C02D8439
:103C50003E844F8458886D887E888F88988CEE24A7
:103C6000FF248701AA24BB24650140E050E060E006
:103C700070E0E0E0F0E0C10181709070892BE9F024
:103C8000E60CF71C081D191D9A01AB012A0D3B1DFE
:103C90004C1D5D1D80E090E0A0E0B0E0E614F7046C
:103CA0000805190520F481E090E0A0E0B0E0BA0139
:103CB000A901480F591F6A1F7B1FAA0CBB1CCC1CF3
:103CC000DD1C97FE08C081E090E0A0E0B0E0A82AEB
:103CD000B92ACA2ADB2A3196E032F10549F0660C8E
:103CE000771C881C991C5694479437942794C3CF0B
:103CF000FA85EA892B893C898B859C85280F391F99
:103D00002E5F3F4F17C0CA0181709070892B61F000
:103D100016950795F794E79480E090E0A0E0B0E86E
:103D2000E82AF92A0A2B1B2B769567955795479514
:103D30002F5F3F4F77FDE7CF0CC0440F551F661F25
:103D4000771F17FD4160EE0CFF1C001F111F215053
:103D50003040403090E0590790E0690790E47907DF
:103D600060F32B8F3C8FDB01CA018F779070A070BE
:103D7000B07080349105A105B10561F447FD0AC01A
:103D8000E114F1040105110529F0405C5F4F6F4F0C
:103D90007F4F40781A8EFE1711F081E08A8F4D8F89
:103DA0005E8F6F8F78A383E0898FCE0149960E9442
:103DB0008920A096E2E10C947222A8E1B0E0E3EE43
:103DC000FEE10C94622269837A838B839C832D832A
:103DD0003E834F83588789E0E82EF12CEC0EFD1EC0
:103DE000CE010196B7010E945E218E010F5E1F4F2A
:103DF000CE010596B8010E945E218985823040F08F
:103E00008989823028F0C701B8010E94D62101C0FB
:103E10008FEF6896E6E00C947E22A8E1B0E0E3E143
:103E2000FFE10C94622269837A838B839C832D83C8
:103E30003E834F83588789E0E82EF12CEC0EFD1E5F
:103E4000CE010196B7010E945E218E010F5E1F4FC9
:103E5000CE010596B8010E945E218985823040F02E
:103E60008989823028F0C701B8010E94D62101C09B
:103E70008FEF6896E6E00C947E22A8E1B0E0E3E4E0
:103E8000FFE10C94622269837A838B839C832D8368
:103E90003E834F83588789E0E82EF12CEC0EFD1EFF
:103EA000CE010196B7010E945E218E010F5E1F4F69
:103EB000CE010596B8010E945E218985823040F0CE
:103EC0008989823028F0C701B8010E94D62101C03B
:103ED00081E06896E6E00C947E22ACE0B0E0E3E797
:103EE000FFE10C94662269837A838B839C83CE01E5
:103EF0000196BE016B5F7F4F0E945E218D818230F3
:103F000061F1823050F1843021F48E81882351F1A7
:103F10002EC02F81388537FD20C06E812F313105AD
:103F20001CF06623F9F023C08EE190E0821B930B16
:103F300029853A854B855C8504C05695479537950C
:103F400027958A95D2F76623B1F050954095309524
:103F500021953F4F4F4F5F4F0EC020E030E040E0D3
:103F600050E009C02FEF3FEF4FEF5FE704C020E0C4
:103F700030E040E050E8B901CA012C96E2E00C9430
:103F80008222A8E0B0E0E7ECFFE10C945E227B0126
:103F90008C01611571058105910519F482E0898311
:103FA00060C083E089838EE1C82ED12CDC82CB8275
:103FB000ED82FE820F831887C801B7010E943A2064
:103FC000FC013197F7FF3BC0222733272E1B3F0B05
:103FD00057016801022E04C0D694C794B794A794E1
:103FE0000A94D2F740E050E060E070E081E090E0B9
:103FF000A0E0B0E004C0880F991FAA1FBB1F2A953C
:10400000D2F70197A109B1098E219F21A023B123E5
:104010000097A105B10521F041E050E060E070E0BB
:104020004A295B296C297D294D835E836F837887BC
:104030008EE190E08E1B9F0B9C838B8312C0309788
:1040400081F00E2E04C0EE0CFF1C001F111F0A94FD
:10405000D2F7ED82FE820F831887CE1ADF0ADC8248
:10406000CB821A82CE0101960E9489202896EAE02E
:104070000C947A22EF92FF920F931F937B018C0195
:1040800080E0E81680E0F80681E0080780E0180785
:1040900088F48FEFE816F1040105110531F028F0DE
:1040A00088E090E0A0E0B0E017C080E090E0A0E001
:1040B000B0E012C080E0E81680E0F80680E0080773
:1040C00081E0180728F088E190E0A0E0B0E004C0AB
:1040D00080E190E0A0E0B0E020E230E040E050E09D
:1040E000281B390B4A0B5B0B04C016950795F794F8
:1040F000E7948A95D2F7F701E85FFE4F8081281B8D
:10410000310941095109C9011F910F91FF90EF90A9
:104110000895DF92EF92FF920F931F93FC01E480CA
:10412000F58006811781D1808081823048F480E05B
:1041300090E0A0E1B0E0E82AF92A0A2B1B2BA5C0E9
:10414000843009F49FC0823021F4EE24FF248701DB
:1041500005C0E114F1040105110519F4E0E0F0E0F7
:1041600096C0628173819FEF623879070CF05BC063
:1041700022E83FEF261B370B2A3131052CF020E0D7
:1041800030E040E050E02AC0B801A701022E04C090
:1041900076956795579547950A94D2F781E090E018
:1041A000A0E0B0E004C0880F991FAA1FBB1F2A958A
:1041B000D2F70197A109B1098E219F21A023B12334
:1041C0000097A105B10521F081E090E0A0E0B0E00A
:1041D0009A01AB01282B392B4A2B5B2BDA01C90141
:1041E0008F779070A070B07080349105A105B105F3
:1041F00039F427FF09C0205C3F4F4F4F5F4F04C089
:10420000215C3F4F4F4F5F4FE0E0F0E02030A0E0F7
:104210003A07A0E04A07A0E45A0710F0E1E0F0E016
:1042200079018A0127C06038710564F5FB01E15806
:10423000FF4FD801C7018F779070A070B0708034A5
:104240009105A105B10539F4E7FE0DC080E490E0C9
:10425000A0E0B0E004C08FE390E0A0E0B0E0E80EA2
:10426000F91E0A1F1B1F17FF05C016950795F79427
:10427000E794319687E016950795F794E7948A9529
:10428000D1F705C0EE24FF248701EFEFF0E06E2F99
:10429000679566276795902F9F77D794DD24D794ED
:1042A0008E2F8695492F462B582F5D29B701CA01BD
:1042B0001F910F91FF90EF90DF900895FC01DB01BB
:1042C000408151812281622F6F7770E0221F222767
:1042D000221F9381892F880F822B282F30E0991F6E
:1042E0009927991F11969C93119721153105A9F5CE
:1042F000411551056105710511F482E037C082E86E
:104300009FEF13969C938E9312979A01AB0167E0EF
:10431000220F331F441F551F6A95D1F783E08C93FA
:104320000DC0220F331F441F551F12968D919C9173
:104330001397019713969C938E931297203080E0E9
:10434000380780E0480780E4580758F314962D9307
:104350003D934D935C93179708952F3F310579F462
:10436000411551056105710519F484E08C93089598
:1043700064FF03C081E08C9312C01C9210C02F57C1
:10438000304013963C932E93129783E08C9387E0F2
:10439000440F551F661F771F8A95D1F770641496D6
:1043A0004D935D936D937C93179708951F93DC0154
:1043B000FB019C91923008F447C08081823008F460
:1043C00043C0943051F411961C91843099F5818149
:1043D000682F70E0611B71093FC0843021F092307A
:1043E00031F48230B9F18181882389F12DC0119691
:1043F0001C9111978230F1F081811817D9F412962F
:104400002D913C911397828193818217930794F0A9
:1044100028173907BCF014968D919D910D90BC9191
:10442000A02D2481358146815781281739074A07F5
:104430005B0718F4112341F00AC082179307A40701
:10444000B50740F4112319F061E070E005C06FEF8B
:104450007FEF02C060E070E0CB011F91089597FBF1
:10446000092E07260AD077FD04D00CD006D00020F4
:104470001AF4709561957F4F0895F6F790958195A0
:104480009F4F0895AA1BBB1B51E107C0AA1FBB1F6A
:10449000A617B70710F0A61BB70B881F991F5A95D0
:1044A000A9F780959095BC01CD0108952F923F9278
:1044B0004F925F926F927F928F929F92AF92BF9234
:1044C000CF92DF92EF92FF920F931F93CF93DF93E0
:1044D000CDB7DEB7CA1BDB0B0FB6F894DEBF0FBE3D
:1044E000CDBF09942A88398848885F846E847D848A
:1044F0008C849B84AA84B984C884DF80EE80FD808C
:104500000C811B81AA81B981CE0FD11D0FB6F89401
:0E451000DEBF0FBECDBFED010895F894FFCFC2
:10451E00000000000000000000010202030303037C
:10452E000404040404040404050505050505050535
:10453E000505050505050505060606060606060615
:10454E0006060606060606060606060606060606FD
:10455E0006060606060606060707070707070707E5
:10456E0007070707070707070707070707070707CD
:10457E0007070707070707070707070707070707BD
:10458E0007070707070707070707070707070707AD
:10459E000707070707070707080808080808080895
:1045AE00080808080808080808080808080808087D
:1045BE00080808080808080808080808080808086D
:1045CE00080808080808080808080808080808085D
:1045DE00080808080808080808080808080808084D
:1045EE00080808080808080808080808080808083D
:1045FE00080808080808080808080808080808082D
:10460E00080808080808080808080808080808081C
:08461E00080808080808080854
:00000001FF
